:020000040800F2
:1000000000000220C12C0008112D0008112D00084D
:10001000112D0008112D0008112D0008000000000E
:10002000000000000000000000000000D1320008C5
:10003000112D000800000000E133000849340008D9
:10004000112D0008112D0008112D0008112D000898
:10005000112D0008112D0008112D0008112D000888
:10006000112D0008112D0008112D0008112D000878
:10007000112D0008112D0008112D0008112D000868
:10008000112D0008112D0008112D0008112D000858
:10009000112D0008112D0008112D0008112D000848
:1000A000112D0008112D0008112D0008112D000838
:1000B00005440008112D0008112D0008112D00081D
:1000C000112D0008112D0008112D0008112D000818
:1000D000112D00085D440008112D0008112D0008A5
:1000E000112D0008112D0008112D0008112D0008F8
:1000F000112D0008112D0008112D0008112D0008E8
:10010000112D0008112D0008112D0008112D0008D7
:10011000112D0008112D0008112D0008112D0008C7
:10012000112D0008112D0008112D0008112D0008B7
:10013000112D0008112D0008112D0008112D0008A7
:10014000112D0008112D0008112D0008112D000897
:10015000112D0008112D0008112D0008112D000887
:10016000112D0008112D0008112D0008112D000877
:10017000112D0008112D0008112D000800000000AD
:08018000112D0008112D0008EB
:1001C00081F0004102E000BF83F0004330B54FEA08
:1001D00041044FEA430594EA050F08BF90EA020F75
:1001E0001FBF54EA000C55EA020C7FEA645C7FEA08
:1001F000655C00F0E2804FEA5454D4EB5555B8BF2B
:100200006D420CDD2C4480EA020281EA030382EA9B
:10021000000083EA010180EA020281EA0303362D2D
:1002200088BF30BD11F0004F4FEA01314FF4801C00
:100230004CEA113102D0404261EB410113F0004F12
:100240004FEA03334CEA133302D0524263EB4303C9
:1002500094EA050F00F0A780A4F10104D5F1200E67
:100260000DDB02FA0EFC22FA05F2801841F10001C2
:1002700003FA0EF2801843FA05F359410EE0A5F196
:1002800020050EF1200E012A03FA0EFC28BF4CF0C7
:10029000020C43FA05F3C01851EBE37101F000457D
:1002A00007D54FF0000EDCF1000C7EEB00006EEB8A
:1002B0000101B1F5801F1BD3B1F5001F0CD3490814
:1002C0005FEA30004FEA3C0C04F101044FEA44526B
:1002D00012F5800F80F09A80BCF1004F08BF5FEAF2
:1002E000500C50F1000041EB045141EA050130BDD2
:1002F0005FEA4C0C404141EB0101013C28BFB1F5E4
:10030000801FE9D291F0000F04BF01460020B1FA2E
:1003100081F308BF2033A3F10B03B3F120020CDA01
:100320000C3208DD02F1140CC2F10C0201FA0CF0DF
:1003300021FA02F10CE002F11402D8BFC2F1200C44
:1003400001FA02F120FA0CFCDCBF41EA0C019040FA
:10035000E41AA2BF01EB0451294330BD6FEA040443
:100360001F3C1CDA0C340EDC04F11404C4F120022E
:1003700020FA04F001FA02F340EA030021FA04F340
:1003800045EA030130BDC4F10C04C4F1200220FA97
:1003900002F001FA04F340EA0300294630BD21FAD5
:1003A00004F0294630BD94F0000F83F4801306BF9B
:1003B00081F480110134013D4EE77FEA645C18BF8F
:1003C0007FEA655C29D094EA050F08BF90EA020F26
:1003D00005D054EA000C04BF1946104630BD91EA1E
:1003E000030F1EBF0021002030BD5FEA545C05D121
:1003F0004000494128BF41F0004130BD14F5800460
:100400003CBF01F5801130BD01F0004545F0FE41D3
:1004100041F470014FF0000030BD7FEA645C1ABF08
:10042000194610467FEA655C1CBF0B46024650EA3F
:10043000013406BF52EA033591EA030F41F400216B
:1004400030BD00BF90F0000F04BF0021704730B5F1
:100450004FF4806404F132044FF000054FF00001C6
:1004600050E700BF90F0000F04BF0021704730B587
:100470004FF4806404F1320410F0004548BF40425C
:100480004FF000013EE700BF42004FEAE2014FEAB1
:1004900031014FEA02701FBF12F07F4393F07F4F8C
:1004A00081F06051704732F07F4208BF704793F08F
:1004B0007F4F04BF41F40021704730B54FF46074A2
:1004C00001F0004521F000411CE700BF50EA0102A5
:1004D00008BF704730B54FF000050AE050EA01024E
:1004E00008BF704730B511F0004502D5404261EBBE
:1004F00041014FF4806404F132045FEA915C3FF4FF
:10050000D8AE4FF003025FEADC0C18BF03325FEA9B
:10051000DC0C18BF033202EBDC02C2F1200300FA4C
:1005200003FC20FA02F001FA03FE40EA0E0021FA71
:1005300002F11444BDE600BF4A0011D212F50012C8
:1005400011D20DD56FF47873B3EB62520ED44FEA2B
:10055000C12343F0004343EA505323FA02F07047AB
:100560004FF00000704750EA013002D14FF0FF30E9
:1005700070474FF00000704700F1340191E83800F7
:100580009C46A6464CF8045D90E8FF0FE54600BD8A
:1005900090EC210B704700BF80EC210B704700BF2F
:1005A00090EC200B704700BF80EC200B704700BF21
:1005B000D0EC200B704700BFC0EC200B704700BF91
:1005C000F0EC0201F0EC0211F0EC0221F0EC02314F
:1005D000F0EC0241F0EC0251F0EC0261F0EC02713F
:1005E000F0EC0281F0EC0291F0EC02A1F0EC02B12F
:1005F000F0EC02C1F0EC02D1F0EC02E1F0EC02F11F
:10060000704700BFE0EC0201E0EC0211E0EC0221D7
:10061000E0EC0231E0EC0241E0EC0251E0EC02617E
:10062000E0EC0271E0EC0281E0EC0291E0EC02A16E
:10063000E0EC02B1E0EC02C1E0EC02D1E0EC02E15E
:10064000E0EC02F1704700BFB0FC0181B0FC019109
:10065000B0FC01A1B0FC01B1704700BFA0FC01815A
:10066000A0FC0191A0FC01A1A0FC01B1704700BF5A
:10067000EC4600B52DE900502DE9FF1F4FF00003B7
:100680002DE90C0001A90CF053FFDDF840E012B099
:10069000704700BFEC4600B52DE900502DE9FF1F63
:1006A0004FF000032DE90C0001A90CF07DFFDDF8EF
:1006B00040E012B0704700BFEC4600B52DE9005095
:1006C0002DE9FF1F4FF000032DE90C0001A90CF0EC
:1006D0008DFFDDF840E012B0704700BFEC4600B57A
:1006E0002DE900502DE9FF1F4FF000032DE90C000C
:1006F00001AB0CF051FFDDF840E012B0704700BFD5
:10070000EC4600B52DE900502DE9FF1F4FF0000326
:100710002DE90C0001AA0CF0C9FFDDF840E012B091
:10072000704700BF00000000000000000000000053
:1007300000000000000000000000000000000000B9
:1007400002780B78012A28BF9A4240F0D8806DE9E0
:10075000044540EA0104CDE902676FF0000C4FEA5E
:1007600044721AB380EA010414F0070F6BD100F051
:10077000070420F0070004F0030521F007014FEA09
:10078000C505F0E8042314F0040FF1E804670CFA3F
:1007900005F462EA040266EA04060BD063EA040385
:1007A000624667EA0407664604E000BFF0E80423F7
:1007B000F1E8046782FA4CF582EA0604A4FA8CF4A4
:1007C0006CBB83FA4CF583EA0705A5FA8CF595B95D
:1007D00050E9022351E9026782FA4CF582EA0604E5
:1007E000A4FA8CF483FA4CF583EA0705A5FA8CF594
:1007F0002543DBD09CB92DBAB5FA85F424F0070463
:1008000027FA04F1DDE9026723FA04F303F0FF009D
:1008100001F0FF01FDE80445A0EB0100704724BA98
:10082000B4FA84F424F0070426FA04F1DDE902673F
:1008300022FA04F202F0FF0001F0FF01FDE8044596
:10084000A0EB0100704714F0030F3CD110F003043B
:1008500028D150F8082B51F8083B82FA4CF582EA6F
:100860000305A5FA8CF55DB950F8042C51F8043C49
:1008700082FA4CF582EA0305A5FA8CF5002DE8D042
:100880002DBAB5FA85F424F0070423FA04F122FA0C
:1008900004F202F0FF0001F0FF01FDE80445A0EBC7
:1008A000010070474FEAC40420F0030050F8082B01
:1008B00021F0030151F8083B0CFA04F462EA040247
:1008C00063EA0403C9E710F003041DD0A1EB04019F
:1008D00020F00300E40750F8042B06D012D28B78E6
:1008E0005FFAA2F4E41A06D12BB1CB785FFAB2F426
:1008F000E41A00D133B920465DF8104B7047A2EBE3
:100900000300704701F1040150F8042BCC0721F0DB
:10091000030151F8043B48D824D222F07F4482FAE4
:100920004CF594EA1325A5FA8CF50AD165B951F86E
:10093000043B84EA0204B4EB036F0ED150F8042B9D
:10094000EBE74FEA132355E035F07F454DD10878AA
:10095000FDE80445C0F1000070474FEA126203F061
:10096000FF0347E002EA1C4482FA4CF594EA13457F
:10097000A5FA8CF50AD165B951F8043B84EA020462
:10098000B4EB034F0CD150F8042BEBE74FEA1343C1
:1009900030E015EA1C4528D10B884FEA124229E0C5
:1009A0004FEA124203EA1C4324E002F0FF0482FAF9
:1009B0004CF594EA1365A5FA8CF50AD165B951F89E
:1009C000043B84EA0204B4EB032F09D150F8042B52
:1009D000EBE74FEA13630DE015F0FF0F05D10B684D
:1009E0004FEA122223F07F4304E04FF00000FDE8BD
:1009F0000445704712BA1BBA82FA4CF482EA030427
:100A0000A4FA8CF5B5FA85F402FA04F203FA04F3B9
:100A10004FEA1260FDE80445A0EB1360704700BF89
:100A200001F0FF01102A2BDB10F0070F08D010F89F
:100A3000013B013A8B422DD010F0070F42B3F6D1A3
:100A4000F0B441EA012141EA014122F007047FF0BC
:100A500000070023F0E80256083C85EA010586EA13
:100A6000010685FA47F5A3FA87F586FA47F6A5FA4F
:100A700087F68EB9EED1F0BC01F0FF0102F007025B
:100A800032B110F8013B013A83EA010313B1F8D106
:100A90000020704701387047002D06BF35460338E7
:100AA000073815F0010F07D1013015F4807F02BF20
:100AB000013015F4C03F0130F0BC0138704700BF71
:100AC000844641EA000313F003036DD1403A41D359
:100AD00051F8043B40F8043B51F8043B40F8043B18
:100AE00051F8043B40F8043B51F8043B40F8043B08
:100AF00051F8043B40F8043B51F8043B40F8043BF8
:100B000051F8043B40F8043B51F8043B40F8043BE7
:100B100051F8043B40F8043B51F8043B40F8043BD7
:100B200051F8043B40F8043B51F8043B40F8043BC7
:100B300051F8043B40F8043B51F8043B40F8043BB7
:100B400051F8043B40F8043B51F8043B40F8043BA7
:100B5000403ABDD2303211D351F8043B40F8043B47
:100B600051F8043B40F8043B51F8043B40F8043B87
:100B700051F8043B40F8043B103AEDD20C3205D357
:100B800051F8043B40F8043B043AF9D2043208D04F
:100B9000D2071CBF11F8013B00F8013B01D30B88C1
:100BA00003806046704700BF082A13D38B078DD09F
:100BB00010F003038AD0C3F10403D21ADB071CBF71
:100BC00011F8013B00F8013B80D331F8023B20F8DB
:100BD000023B7BE7043AD9D3013A11F8013B00F814
:100BE000013BF9D20B7803704B7843708B7883709C
:100BF0006046704700000000000000000000000098
:100C000030B490F800F020F007016FF0000C10F005
:100C1000070491F820F040F048804FF000046FF096
:100C20000700D1E9002391F840F000F1080082FAB2
:100C30004CF2A4FA8CF283FA4CF3A2FA8CF34BBB7D
:100C4000D1E9022382FA4CF200F10800A4FA8CF2F6
:100C500083FA4CF3A2FA8CF3E3B9D1E9042382FAC4
:100C60004CF200F10800A4FA8CF283FA4CF3A2FAD9
:100C70008CF37BB9D1E9062301F1200182FA4CF211
:100C800000F10800A4FA8CF283FA4CF3A2FA8CF378
:100C9000002BC6D0002A04BF04301A4612BAB2FA9A
:100CA00082F200EBD20030BC7047D1E9002304F09F
:100CB0000305C4F100004FEAC50514F0040F91F8D4
:100CC00040F00CFA05F562EA05021CBF63EA050371
:100CD00062464FF00004AAE770B54FF0FF0C4CF4E9
:100CE000E06C1CEA11541DBF1CEA135594EA0C0F6A
:100CF00095EA0C0F00F0DEF82C4481EA030621EAA5
:100D00004C5123EA4C5350EA013518BF52EA0335DF
:100D100041F4801143F4801338D0A0FB02CE4FF091
:100D20000005E1FB02E506F00042E0FB03E54FF0C1
:100D30000006E1FB03569CF0000F18BF4EF0010EB9
:100D4000A4F1FF04B6F5007F64F5407404D25FEAB5
:100D50004E0E6D4146EB060642EAC62141EA555168
:100D60004FEAC52040EA5E504FEACE2EB4F1FD0CAA
:100D700088BFBCF5E06F1ED8BEF1004F08BF5FEA28
:100D8000500E50F1000041EB045170BD06F00046DA
:100D900046EA010140EA020081EA0301B4EB5C0487
:100DA000C2BFD4EB0C0541EA045170BD41F480117F
:100DB0004FF0000E013C00F3AB8014F1360FDEBFA4
:100DC000002001F0004170BDC4F10004203C35DA80
:100DD0000C341BDC04F11404C4F1200500FA05F303
:100DE00020FA04F001FA05F240EA020001F00042A4
:100DF00021F0004110EBD37021FA04F642EB06011A
:100E00005EEA430E08BF20EAD37070BDC4F10C0443
:100E1000C4F1200500FA04F320FA05F001FA04F207
:100E200040EA020001F0004110EBD37041F10001F3
:100E30005EEA430E08BF20EAD37070BDC4F12005FE
:100E400000FA05F24EEA020E20FA04F301FA05F266
:100E500043EA020321FA04F001F0004121FA04F20E
:100E600020EA020000EBD3705EEA430E08BF20EADE
:100E7000D37070BD94F0000F0FD101F00046400018
:100E800041EB010111F4801F08BF013CF7D041EA9A
:100E9000060195F0000F18BF704703F0004652009E
:100EA00043EB030313F4801F08BF013DF7D043EA6F
:100EB0000603704794EA0C0F0CEA135518BF95EA25
:100EC0000C0F0CD050EA410618BF52EA4306D1D1AC
:100ED00081EA030101F000414FF0000070BD50EACB
:100EE000410606BF1046194652EA430619D094EA55
:100EF0000C0F02D150EA013613D195EA0C0F05D13F
:100F000052EA03361CBF104619460AD181EA030192
:100F100001F0004141F0FE4141F470014FF000004A
:100F200070BD41F0FE4141F4780170BD70B54FF0E5
:100F3000FF0C4CF4E06C1CEA11541DBF1CEA135565
:100F400094EA0C0F95EA0C0F00F0A7F8A4EB050447
:100F500081EA030E52EA03354FEA013100F088803E
:100F60004FEA03334FF0805545EA131343EA126307
:100F70004FEA022245EA111545EA10654FEA0026BC
:100F80000EF000419D4208BF964244F1FD0404F575
:100F9000407402D25B084FEA3202B61A65EB0305D1
:100FA0005B084FEA32024FF480104FF4002CB6EB8E
:100FB000020E75EB030E22BFB61A754640EA0C000E
:100FC0005B084FEA3202B6EB020E75EB030E22BF4E
:100FD000B61A754640EA5C005B084FEA3202B6EB8F
:100FE000020E75EB030E22BFB61A754640EA9C004E
:100FF0005B084FEA3202B6EB020E75EB030E22BF1E
:10100000B61A754640EADC0055EA060E18D04FEADB
:10101000051545EA16754FEA06164FEAC30343EA7B
:1010200052734FEAC2025FEA1C1CC0D111F4801F48
:101030000BD141EA00014FF000004FF0004CB6E741
:1010400011F4801F04BF01430020B4F1FD0C88BFE0
:10105000BCF5E06F3FF6AFAEB5EB030C04BFB6EBEB
:10106000020C5FEA500C50F1000041EB045170BDDE
:101070000EF0004E4EEA113114EB5C04C2BFD4EB0B
:101080000C0541EA045170BD41F480114FF0000E8F
:10109000013C90E645EA060E8DE60CEA135594EA0B
:1010A0000C0F08BF95EA0C0F3FF43BAF94EA0C0F0E
:1010B0000AD150EA01347FF434AF95EA0C0F7FF483
:1010C00025AF104619462CE795EA0C0F06D152EAD7
:1010D00003353FF4FDAE1046194622E750EA4106BB
:1010E00018BF52EA43067FF4C5AE50EA41047FF4CC
:1010F0000DAF52EA43057FF4EBAE12E74FF0FF3C31
:1011000006E000BF4FF0010C02E000BF4FF0010C01
:101110004DF804CD4FEA410C7FEA6C5C4FEA430C7A
:1011200018BF7FEA6C5C1BD001B050EA410C0CBFC9
:1011300052EA430C91EA030F02BF90EA020F00202B
:10114000704710F1000F91EA030F58BF994208BF92
:1011500090422CBFD8176FEAE37040F0010070474F
:101160004FEA410C7FEA6C5C02D150EA013C07D1A6
:101170004FEA430C7FEA6C5CD6D152EA033CD3D0F1
:101180005DF8040B704700BF8446104662468C46EB
:101190001946634600E000BF01B5FFF7B7FF00281E
:1011A00048BF10F1000F01BD4DF808EDFFF7F4FF47
:1011B0000CBF012000205DF808FB00BF4DF808EDD2
:1011C000FFF7EAFF34BF012000205DF808FB00BFF5
:1011D0004DF808EDFFF7E0FF94BF012000205DF817
:1011E00008FB00BF4DF808EDFFF7CEFF94BF0120CC
:1011F00000205DF808FB00BF4DF808EDFFF7C4FFC5
:1012000034BF012000205DF808FB00BF4FEA410C0D
:101210007FEA6C5C02D150EA013C0AD14FEA430CF0
:101220007FEA6C5C02D152EA033C02D14FF000002D
:1012300070474FF0010070474FEA410212F500126B
:1012400015D211D56FF47873B3EB625212D94FEA0D
:10125000C12343F0004343EA505311F0004F23FAF7
:1012600002F018BF404270474FF00000704750EA4C
:10127000013005D111F0004008BF6FF00040704709
:101280004FF00000704700BF0348044B834202D078
:10129000034B03B118477047E0060020E00600202A
:1012A000000000000548064B1B1AD90F01EBA301F3
:1012B000491002D0034B03B118477047E0060020E5
:1012C000E00600200000000010B5064C237843B96A
:1012D000FFF7DAFF044B13B10448AFF3008001239A
:1012E000237010BDE006002000000000E84901085E
:1012F00008B5054B1BB105490548AFF30080BDE8B3
:101300000840FFF7CFBF00BF00000000E406002048
:10131000E849010880B483B000AF7860044A7B6874
:101320001A607B6818460C37BD465DF8047B704731
:10133000144B010880B584B000AF87ED030AC7EDF8
:10134000020A87ED011A97ED027AD7ED017AB4EE21
:10135000E77AF1EE10FA06DD3A1D07F108031146AF
:10136000184600F01FF8D7ED027A97ED037AB4EE35
:10137000E77AF1EE10FA02D5BB68FB600AE0D7ED20
:10138000017A97ED037AB4EEE77AF1EE10FA01DD17
:101390007B68FB60FB6807EE903AB0EE670A103797
:1013A000BD4680BD80B485B000AF786039607B6891
:1013B0001B68FB603B681A687B681A603B68FA68C8
:1013C0001A6000BF1437BD465DF8047B704700000B
:1013D00080B483B000AF7860044A7B681A607B6891
:1013E00018460C37BD465DF8047B7047584B010822
:1013F00080B586B000AFF860B960394681E80C006E
:10140000FB68B96B184604F02DF8FB6810331846DA
:10141000FFF7DEFFFB681433BA8E1146184600F062
:101420006FFF754AFB681A60744AFB681A61FB68B3
:10143000BA68DA61FB6820333A4692E8030083E831
:101440000300FB68283307F1200292E8030083E8D9
:101450000300BB686A4A934205D14FF48001694892
:1014600000F0C5F90EE0BB68674A934205D14FF41E
:101470000001644800F0BBF904E04FF4001161483A
:1014800000F0B5F93B4693E80600F86800F0C6F8AE
:1014900007F1200393E80600F86800F0BFF8F86849
:1014A00000F068F9BB6800221A60BB6800225A602D
:1014B000BB6800229A60BB680022DA6097F8283087
:1014C00032220221184600F0A3F9034687F828309B
:1014D000BB68043397F828203F21184600F0BDF977
:1014E00097F8283007EE903AB8EEE77ADFED476AD2
:1014F000C6EE877AC7ED047A97F82C30002B3DD1E1
:10150000BB681C334FF40041184600F070F9DFED62
:10151000406AD7ED047A86EEA77AB0EE470A03F068
:101520004DFD03469BB20133FB8297F83030012B0F
:101530000FD1BB681C334FF48041184600F057F9B7
:1015400097F82830334AA2FB0323DB08DBB2BB82C7
:1015500030E0BB681C334FF48041184600F0A2F91C
:1015600097F8282013469B0013445B002A4A82FB0D
:1015700003125210DB17D31ABB821BE0BB681C336B
:101580004FF40041184600F08DF997F828309BB2CF
:101590001A4692001344BB82DFED1C6AD7ED047A31
:1015A00086EEA77AB0EE470A03F008FD03469BB229
:1015B0000133FB82BB681C33BA8A40F6FF711846C0
:1015C00000F04BF9BB682033FA8A3F21184600F03F
:1015D00044F9BB680121184600F009F9FB6806E0F0
:1015E000FB681433184600F0AEFE04F04DF81846C0
:1015F0001837BD4680BD00BF3C4B01084C4B01086D
:101600000058004040380240005C004000007A442E
:1016100000009643CDCCCCCCABAAAA2A80B584B02E
:1016200000AFF8603B1D83E806007B68474A9342A1
:1016300004D10121464800F0DAF847E07B68454ACA
:10164000934204D10221424800F0D1F83EE07B6889
:10165000414A934204D104213D4800F0C8F835E0E6
:101660007B683E4A934204D10821394800F0BFF814
:101670002CE07B683A4A934204D11021344800F0B0
:10168000B6F823E07B68374A934204D120213048E2
:1016900000F0ADF81AE07B68334A934204D1402150
:1016A0002B4800F0A4F811E07B68304A934204D143
:1016B0008021274800F09BF808E07B682C4A934281
:1016C00004D14FF48071224800F091F87B681846ED
:1016D0003B7A5B00032202FA03F30222194600F070
:1016E000BCF87B6804333A7A1146184600F0ECF8EF
:1016F0007B6803F108003B7A5B00032202FA03F3E4
:101700000322194600F0A9F83B7A072B0CD87B6816
:1017100003F120003B7A9B000F2202FA03F304221C
:10172000194600F09AF80CE07B6803F124003B7A3C
:10173000083B9B000F2202FA03F30422194600F033
:101740008CF800BF1037BD4680BD00BF00000240CE
:10175000303802400004024000080240000C024001
:10176000001002400014024000180240001C024019
:101770000020024080B582B000AF78607B68DB69F2
:101780004FF40041184600F032F800BF7B68DB6977
:101790004FF40041184600F0ABF80346002BF5D19A
:1017A0007B68DB694FF40041184600F07BF800BF0E
:1017B0007B68DB694FF40041184600F0ACF8034643
:1017C000002BF5D100BF00BF0837BD4680BD80B5F6
:1017D00082B000AF78607B68184603F057FE00BF08
:1017E0000837BD4680BDA0F11000FFF7F0BF80B400
:1017F00083B000AF786039607B681A683B681A4331
:101800007B681A6000BF0C37BD465DF8047B7047EB
:1018100080B582B000AF0346FB710B46BB71134627
:101820007B71BA797B799A4205D97A1DBB1D114625
:10183000184600F0A0F8BB79FA799A4202D2BB7937
:10184000FB7105E07B79FA799A4201D97B79FB71CA
:10185000FB7918460837BD4680BD80B586B000AF1D
:10186000F860B9607A60B86800F09AF80346FB75D2
:1018700097F91730002B11DBFB681A68BB68DB4354
:101880001A40FB681A60FB681A6897F91730796884
:1018900001FA03F31A43FB681A6000E000BF18372F
:1018A000BD4680BD80B483B000AF786039607B688E
:1018B0001A683B68DB431A407B681A6000BF0C372C
:1018C000BD465DF8047B704780B483B000AF78609C
:1018D00039607B681B6801213A6801FA02F21A43F9
:1018E0007B681A6000BF0C37BD465DF8047B70470B
:1018F00080B582B000AF786039603968786800F0F0
:1019000079F80346002B0CBF01230023DBB21846F5
:101910000837BD4680BD80B582B000AF78603960C1
:101920003968786800F066F80346012B0CBF012384
:101930000023DBB218460837BD4680BD80B487B0AF
:1019400000AFF860B9601346FB7100237B6107E0CC
:101950007B69FA681344FA791A707B6901337B61F9
:101960007B69BA689A42F3D800BF00BF1C37BD46F6
:101970005DF8047B704780B485B000AF7860396053
:101980007B681B78FB733B681A787B681A703B682E
:10199000FA7B1A7000BF1437BD465DF8047B7047B0
:1019A00080B485B000AF78602023BB730023FB7345
:1019B00012E097F90F30012202FA03F31A467B680E
:1019C0001340002B02D097F90F300DE097F90F303C
:1019D000DBB20133DBB2FB7397F90F2097F90E30BE
:1019E0009A42E6DB4FF0FF3318461437BD465DF8E8
:1019F000047B704780B483B000AF786039607B6847
:101A00001A683B681340002B14BF01230023DBB28C
:101A100018460C37BD465DF8047B704790B58FB013
:101A200000AFF860B960394681E80C00FB68B96F17
:101A3000184603F017FDFB6810331846FFF7C8FC83
:101A4000FB681433B7F874201146184600F058FCB0
:101A50006A4AFB681A606A4AFB681A61FB68BA68DE
:101A6000DA61FB683A6F1A62FB6897F8682083F8BE
:101A700024200121386F01F0DFF9052387F8373082
:101A8000BB68604A934205D14FF480415E48FFF73E
:101A9000AEFE11E0BB685D4A934208D1062387F889
:101AA00037304FF400415848FFF7A1FE04E04FF4EF
:101AB00080515748FFF79BFE97F837303A4606CAE1
:101AC000F86800F0ABF897F8373007F1480206CA1B
:101AD000F86800F0A3F897F8373007F1500206CA0B
:101AE000F86800F09BF84B4B07F124040FCB84E817
:101AF0000F00494B07F114040FCB84E80F000023BB
:101B000087F835301DE097F835305B0038333B44BB
:101B100033F8243C87F8363097F835305B0038339B
:101B20003B4433F8143CB7F85C20B2FBF3F39BB2B0
:101B3000B7F858209A4209D297F83530013387F820
:101B4000353097F83530072BDDD900E000BFBB6892
:101B500000221A60BB6800225A60BB680022DA616A
:101B6000BB6897F8362038211846FFF776FEBB6829
:101B700097F8602002211846FFF76FFEBB6897F8C0
:101B8000642001211846FFF768FEBB6897F86820BB
:101B90004FF400611846FFF760FEBB6897F86C20B1
:101BA00080211846FFF759FEBB684FF400711846B4
:101BB000FFF71DFEBB684FF480711846FFF717FE54
:101BC000BB6804211846FFF712FEBB6804334021AE
:101BD0001846FFF70CFEBB6840211846FFF707FECA
:101BE000FB6806E0FB681433184600F0ACFB03F01A
:101BF0004BFD18463C37BD4690BD00BFE84B010881
:101C0000F84B01080038004040380240003C0040DA
:101C100044380240004A0108104A010880B584B0E7
:101C200000AFF860381D80E80600FB707B68454A0D
:101C3000934204D101214448FFF7D9FD47E07B6876
:101C4000424A934204D102213F48FFF7D0FD3EE0D3
:101C50007B683F4A934204D104213B48FFF7C7FD0C
:101C600035E07B683B4A934204D108213648FFF7B0
:101C7000BEFD2CE07B68384A934204D110213248E3
:101C8000FFF7B5FD23E07B68344A934204D120215D
:101C90002D48FFF7ACFD1AE07B68314A934204D12E
:101CA00040212948FFF7A3FD11E07B682D4A9342AC
:101CB00004D180212448FFF79AFD08E07B682A4A76
:101CC000934204D14FF480711F48FFF790FD7B6869
:101CD00018463B7A5B00032202FA03F302221946FC
:101CE000FFF7BBFD7B6803F108003B7A5B00032232
:101CF00002FA03F303221946FFF7AFFD3B7A072BE5
:101D00000DD87B6803F120003B7A9B000F2202FA7A
:101D100003F31946FB781A46FFF79FFD0DE07B6839
:101D200003F124003B7A083B9B000F2202FA03F3E5
:101D30001946FB781A46FFF790FD00BF1037BD46E5
:101D400080BD00BF00000240303802400004024065
:101D500000080240000C0240001002400014024043
:101D600000180240001C02400020024080B582B0F2
:101D700000AF78607B68184603F088FB00BF083727
:101D8000BD4680BDA0F11000FFF7F0BF80B483B066
:101D900000AF0346FB7197F90730002B0BDBFB7993
:101DA00003F01F02074997F907305B09012000FA89
:101DB00002F241F8232000BF0C37BD465DF8047BDA
:101DC000704700BF00E100E080B483B000AF03467D
:101DD0003960FB7197F90730002B0ADB3B68DAB2F8
:101DE0000C4997F907301201D2B20B4483F8002353
:101DF0000AE03B68DAB20849FB7903F00F03043BC1
:101E00001201D2B20B441A7600BF0C37BD465DF802
:101E1000047B704700E100E000ED00E080B58AB08F
:101E200000AF7861396107F1080181E80C007B6936
:101E3000F96C184603F016FB7B6910331846FFF760
:101E4000C7FA7B691433B7F848201146184600F0EA
:101E500057FA964A7B691A60954A7B691A617B69D1
:101E60003A69DA617B6900221A843B690022DA60F0
:101E70003B6900221A613B6900225A613B690022DA
:101E80009A603B6900229A613B698A4A934209D170
:101E9000894B5B6C884A43F400335364262387F8EC
:101EA000273040E03B69854A934209D1824B5B6C05
:101EB000814A43F480235364272387F8273032E094
:101EC0003B697F4A934209D17B4B5B6C7A4A43F46E
:101ED00000235364342387F8273024E03B69794A90
:101EE000934209D1744B5B6C734A43F4801353647F
:101EF000352387F8273016E03B69734A934209D1AE
:101F00006D4B5B6C6C4A43F020035364472387F8A6
:101F1000273008E0684B5B6C674A43F0100353645A
:101F2000252387F8273097F927301846FFF72EFF2B
:101F300097F9273003211846FFF746FF3B69634AAC
:101F4000934207D03B695B4A934203D03B695B4AAB
:101F5000934203D1072387F8263002E0082387F84D
:101F6000263097F8262007F108031146184600F09E
:101F7000B1F897F82630194607F1300000F0AAF8BA
:101F8000BB6B534A02FB03F307EE903AF8EE676A25
:101F9000FB6B07EE903AF8EEE77AB3EE007A27EEA5
:101FA000877AC6EE877AC7ED087AD7ED087AFCEE15
:101FB000E77A17EE903AFB83FB8B07EE903AF8EE48
:101FC000677A97ED087A77EE677AB3EE007A67EE74
:101FD000877AFCEEE77AC7ED017A3B797B773B693C
:101FE0000833FA8B4FF6F0711846FFF736FC3B6961
:101FF00008337A7F0F211846FFF72FFC97F84030FF
:10200000002B15D03B69DB6843F480623B69DA60E2
:102010003B69DB6843F480523B69DA6097F84030F3
:10202000022B05D13B69DB6843F400723B69DA603F
:1020300097F84430012B02D0022B09D011E03B6904
:10204000103303224FF440511846FFF706FC08E016
:102050003B69103302224FF440511846FFF7FDFB55
:1020600000BF3B69DB6843F400523B69DA603B69BF
:10207000DB6843F020023B69DA603B69DB6843F0D0
:1020800008023B69DA603B69DB6843F004023B69A4
:10209000DA607B6906E07B691433184600F053F977
:1020A00003F0F2FA18462837BD4680BD384C0108C7
:1020B000484C0108004400400038024000480040FD
:1020C000004C00400050004000140140001001404E
:1020D00040420F0080B582B000AF78600B46FB70C5
:1020E0007B681B685A4A934206D15A4B1B6B594A6C
:1020F00043F0010313635EE07B681B68564A93421A
:1021000006D1544B1B6B534A43F00203136352E056
:102110007B681B68514A934206D14E4B1B6B4D4A5C
:1021200043F00403136346E07B681B684C4A934208
:1021300006D1484B1B6B474A43F0080313633AE050
:102140007B681B68474A934206D1424B1B6B414A4E
:1021500043F0100313632EE07B681B68424A9342EE
:1021600006D13C4B1B6B3B4A43F02003136322E038
:102170007B681B683D4A934206D1364B1B6B354A40
:1021800043F04003136316E07B681B68384A9342B0
:1021900006D1304B1B6B2F4A43F0800313630AE0D8
:1021A0007B681B68334A934205D12A4B1B6B294A33
:1021B00043F4807313637B681B7919460F2000F08A
:1021C0008AF803461A467B681A717B681B681846B2
:1021D0007B681B795B00032202FA03F30222194693
:1021E000FFF73BFB7B681B6803F108007B681B79EA
:1021F0005B00032202FA03F303221946FFF72DFBCB
:102200007B681B79072B0FD87B681B6803F12000C4
:102210007B681B799B000F2202FA03F31946FB78B7
:102220001A46FFF71AFB0FE07B681B6803F12400D6
:102230007B681B79083B9B000F2202FA03F31946C7
:10224000FB781A46FFF709FB00BF0837BD4680BD83
:102250000000024000380240000402400008024032
:10226000000C02400010024000140240001802401E
:10227000001C02400020024080B582B000AF7860B0
:102280007B68DB691B6803F02003002B14BF01236C
:102290000023DBB2002B0AD07B6803F114027B68B9
:1022A000DB695B68DBB21946104600F0CDF800BF71
:1022B0000837BD4680BD80B582B000AF78607B68CE
:1022C000184603F0E3F800BF0837BD4680BDA0F113
:1022D0001000FFF7F0BF80B483B000AF03460A469A
:1022E000FB711346BB71FA79BB799A4201D2FB7933
:1022F00000E0BB7918460C37BD465DF8047B70479B
:1023000080B582B000AF78600B467B807B6800228E
:102310001A607B687A889A807B680022DA807B88E2
:10232000184603F06FFE03461A467B681A607B6806
:102330001B68798800221846FFF700FB7B68184667
:102340000837BD4680BD80B582B000AF78607B683D
:102350001B68002B04D07B681B68184603F092F9B9
:102360007B6818460837BD4680BD80B582B000AF97
:10237000786039603B681A887B689B88013B9BB218
:102380001946104600F02DF903461A463B681A809C
:1023900000BF0837BD4680BD80B584B000AFF8608F
:1023A000B9601346FB80BB681888FB689A88FB8875
:1023B000D31A9BB2194600F014F903461A46BB68BB
:1023C0001A8000BF1037BD4680BD90B587B002AF00
:1023D000F860084611461A4603467B810B463B814E
:1023E0001346FB71FB799AB23B8912FB03F39BB254
:1023F0003B8107F10A031946F868FFF7B6FF7A89AF
:1024000007F108031946F868FFF7C6FFFB6818686C
:10241000FB6899887A893B890024009400F0F6F8DB
:10242000FB68DB883A891146184600F0DAF8034663
:102430003B81FB68DA883B89D31A9AB2FB68DA8061
:1024400000BF1437BD4690BD80B483B000AF786044
:102450000B46FB707B68DA887B689B889A420CD2BB
:102460007B681B687A68D2881344FA781A707B6894
:10247000DB8801339AB27B68DA8000BF0C37BD4637
:102480005DF8047B704780B586B000AFF860B96036
:1024900011461A460B46FB801346BB80FB88FB8225
:1024A0000AE0FB8ABA6813441B781946F868FFF7FC
:1024B000CBFFFB8A0133FB82FA8AF988BB880B4485
:1024C0009A42EEDB00BF00BF1837BD4680BD80B525
:1024D00084B000AFF860B9601346FB80FB8800222F
:1024E000B968F868FFF7CFFF00BF1037BD4680BD61
:1024F00080B582B000AF78600B467B807B6819683E
:102500007B689A887B88184600F0BCF8034618461A
:102510000837BD4680BD80B582B000AF78600B46FD
:102520007B807B8819467868FFF7E2FF03461846F0
:1025300002F078FCF0EE407AB0EE670A0837BD464C
:1025400080BD80B582B000AF78600B467B801346BB
:102550003B803A88798804237868FFF736FF00BF0C
:102560000837BD4680BD80B582B000AF78600B46AD
:102570007B8013463B803A887B8819467868FFF752
:10258000E0FF00BF0837BD4680BD80B582B000AF18
:1025900078600B467B807B88012219467868FFF7BC
:1025A000E2FF00BF0837BD4680BD80B584B000AFF4
:1025B00078600B467B807B8819467868FFF7ABFF15
:1025C000F0EE407AC7ED037A7B8819467868FFF70A
:1025D000DCFFFB6807EE903AB0EE670A1037BD46A5
:1025E00080BD80B483B000AF03460A46FB8013462B
:1025F000BB80FA88BB889A4201D2FB8800E0BB8886
:1026000018460C37BD465DF8047B704780B487B030
:1026100000AFF860084611461A4603467B810B4618
:102620003B811346FB803A89FB881A447B899A4296
:1026300022DA3B897B611AE0FA887B691A447B893C
:102640009A420BDAFA887B6913441A46FB681A44EB
:102650007B69F9680B4412781A7005E07B69FA68A7
:10266000134497F820201A707B6901337B617B89C2
:102670007A699A42E0DB00E000BF1C37BD465DF896
:10268000047B704780B485B000AF03463960FB809F
:102690001346BB800023FB6004237B72FA88BB884F
:1026A0009A4201D3002326E000237B811BE07A8934
:1026B000FB881A44BB889A421BDA7A89FB88134448
:1026C0001A463B6813441B7819467A7A7B89D31AD9
:1026D000013BDB0001FA03F31A46FB681343FB607E
:1026E0007B8901337B817B7A9BB27A899A42DED3E4
:1026F00000E000BFFB6818461437BD465DF8047B58
:102700007047000080B58AB000AF78620B4687ED55
:10271000070AC7ED060A87ED051AC7ED041A87ED0B
:10272000032AC7ED022A87ED013A7B84134687F816
:1027300021307B6A1846FEF7EDFD274A7B6A1A6056
:102740007B6A4FF000025A607B6A7A8C1A817B6A3E
:10275000FA69DA607B6ABA691A617B6A7A695A61D6
:102760007B6A3A699A617B6AFA68DA617B6ABA685D
:102770001A627B6A7A685A627B6A002283F8282090
:102780007B6A97F8212083F829207B6A4FF00002AA
:10279000DA627B6A4FF000021A637B6A4FF0000234
:1027A0005A637B6A4FF000029A637B6A4FF0000223
:1027B000DA637B6A4FF000021A647B6A4FF0000212
:1027C0005A64786A00F005F9786A00F0E8F87B6AE4
:1027D00018462837BD4680BD8C4C010880B483B0B4
:1027E00000AF78607B681B8918460C37BD465DF8E2
:1027F000047B704780B582B000AF786087ED000A37
:102800007B683A685A607B681B681B6878689847E1
:1028100000BF0837BD4680BD80B582B000AF78608C
:1028200087ED000A7B683A681A61786800F0D1F891
:1028300000BF0837BD4680BD80B582B000AF78606C
:1028400087ED000A7B683A685A61786800F0C1F841
:1028500000BF0837BD4680BD80B582B000AF78604C
:1028600087ED000A7B683A689A61786800F0B1F8F1
:1028700000BF0837BD4680BD80B483B000AF78602C
:102880000B46FB707B68FA7883F8282000BF0C3772
:10289000BD465DF8047B704780B584B000AF7860BA
:1028A0007B6893F8283083F00103DBB2002B70D1F2
:1028B0007B6893F82930002B08D07B6893ED017A70
:1028C0007B68D3ED037A77EE677A07E07B6893ED58
:1028D000037A7B68D3ED017A77EE677AC7ED037AE6
:1028E00097ED030A00F00BF9B0EE407A7B68D3ED68
:1028F000077AB4EEE77AF1EE10FA4CBF0123002319
:10290000DBB2002B47D17B685A6B7B689A637B688C
:102910001A6B7B685A637B68FA681A637B6893ED6D
:102920000B7A7B68D3ED0F6A7B68D3ED0C7A66EE89
:10293000A76A7B6893ED106A7B68D3ED0D7A66EE2B
:10294000277A76EEA76A7B6893ED116A7B68D3EDF0
:102950000E7A66EE277A76EEA77A77EE277A7B688C
:10296000C3ED0B7A7B68D3ED0B7A7B6893ED097A24
:102970007B68D3ED086AB0EE661AF0EE470AB0EE57
:10298000670AFEF7D7FCF0EE407A7B68C3ED0B7A5E
:1029900002E000BF00E000BF1037BD4680BD80B43C
:1029A00083B000AF78607B684FF00002DA627B682A
:1029B0004FF000021A637B684FF000025A637B6895
:1029C0004FF000029A6300BF0C37BD465DF8047BF0
:1029D000704780B483B000AF78607B681B8907EED6
:1029E000903AF8EEE77AF5EE407AF1EE10FA70D010
:1029F0007B68D3ED057AF5EE407AF1EE10FA17D147
:102A00007B6893ED047A7B6893ED066A7B681B898B
:102A100007EE903AF8EEE76AC6EE267AF7EE006A1D
:102A200077EEA67A67EE277A7B68C3ED0F7A23E00C
:102A30007B6893ED047A7B681B8907EE903AB8EEC9
:102A4000E76A7B68D3ED056AC6EE267AF7EE006A80
:102A500077EEA66A7B68D3ED065A7B681B8907EE82
:102A6000903AB8EEE76AC5EE867A76EEA77A67EE18
:102A7000277A7B68C3ED0F7A7B6893ED047A7B68D5
:102A8000D3ED067A37EEA76A7B681B8907EE903A8A
:102A9000F8EEE76AC6EE267AFFEE006A76EEE77A8F
:102AA00067EE277A7B68C3ED107A7B6893ED047A32
:102AB0007B68D3ED067A67EE276A7B681B8907EE91
:102AC000903AB8EEE77AC6EE877A7B68C3ED117A62
:102AD00000E000BF0C37BD465DF8047B704780B551
:102AE00082B000AF786087ED000A97ED000A786841
:102AF000FFF780FE7B6818460837BD4680BD80B46E
:102B000083B000AF87ED010AD7ED017AF5EEC07A08
:102B1000F1EE10FA05D5D7ED017AF1EE677AC7ED3F
:102B2000017A7B6807EE903AB0EE670A0C37BD4633
:102B30005DF8047B704780B400AF01231846BD46A2
:102B40005DF8047B704780B582B000AF7860396073
:102B50000CF016FF034616221A604FF0FF3318469A
:102B60000837BD4680BD80B582B000AF78604FF0B9
:102B7000FF317868FFF7E7FFFEE780B586B000AF6A
:102B8000F860B9607A6000237B610AE0AFF30080EF
:102B90000146BB685A1CBA60CAB21A707B6901331D
:102BA0007B617A697B689A42F0DB7B68184618374C
:102BB000BD4680BD80B586B000AFF860B9607A6070
:102BC00000237B6109E0BB685A1CBA601B78184679
:102BD000AFF300807B6901337B617A697B689A423D
:102BE000F1DB7B6818461837BD4680BD80B483B0E2
:102BF00000AF78604FF0FF3318460C37BD465DF8E4
:102C0000047B704780B483B000AF786039603B6864
:102C10004FF400525A60002318460C37BD465DF849
:102C2000047B704780B483B000AF786001231846FE
:102C30000C37BD465DF8047B704780B485B000AFAB
:102C4000F860B9607A60002318461437BD465DF815
:102C5000047B704780B586B000AF7860144A154B8E
:102C6000D31A7B617B693B61134B1B68002B02D13C
:102C7000114B124A1A60104B1A687B6813443A6968
:102C80009A4207D20CF07CFE03460C221A604FF0E9
:102C9000FF3309E0084B1B68FB60074B1A687B6831
:102CA0001344054A1360FB6818461837BD4680BDBB
:102CB000000002200080000000070020A85C002027
:102CC000DFF834D001F078FB0C480D490D4A0023A1
:102CD00002E0D458C4500433C4188C42F9D30A4AD1
:102CE0000A4C002301E013600432A242FBD30CF033
:102CF0004DFE01F0BDFB70470000022000000020E7
:102D0000E0060020246F0108E0060020A45C0020FB
:102D1000FEE7000080B483B000AF7860044A7B68AF
:102D20001A607B6818460C37BD465DF8047B704717
:102D3000BC4C010880B582B000AF78607B68184653
:102D4000FFF7E8FF034A7B681A607B68184608377C
:102D5000BD4680BDEC4D010880B584B000AFF86081
:102D60003B1D83E80600FB6803F108003B1D93E868
:102D7000060000F075F8FB681846FFF7DBFF0A4A0B
:102D8000FB681A60FB68DB681846FB681B7A5B000F
:102D9000032202FA03F301221946FEF75EFDFB68E7
:102DA00018461037BD4680BDAC4C010880B483B0D6
:102DB00000AF78607B68DB685B697A68127A1146DD
:102DC00001228A401340002B14BF01230023DBB2F1
:102DD00018460C37BD465DF8047B704780B582B05D
:102DE00000AF78600B46FB707B68FA781146184696
:102DF00000F099F9FB78002B0DD07B68DB689A69AD
:102E00007B681B7A194601238B4019467B68DB6877
:102E10000A439A610DE07B68DB689A697B681B7ADC
:102E20001033012101FA03F319467B68DB680A437A
:102E30009A610837BD4680BD80B582B000AF78602A
:102E40000B46FB707B681B6804331B68FA781146DD
:102E5000786898477B6818460837BD4680BD0000F3
:102E600080B485B000AFF8603B1D83E806007A6847
:102E7000FB685A603A7AFB681A70FB681B780F2B64
:102E800002D9FB6800221A70FB685B68374A9342DC
:102E900006D1374B1B6B364A43F0010313635EE0E8
:102EA000FB685B68334A934206D1314B1B6B304A57
:102EB00043F00203136352E0FB685B682E4A9342BF
:102EC00006D12B4B1B6B2A4A43F00403136346E0E5
:102ED000FB685B68294A934206D1254B1B6B244A49
:102EE00043F0080313633AE0FB685B68244A9342AB
:102EF00006D11F4B1B6B1E4A43F0100313632EE0D9
:102F0000FB685B681F4A934206D1194B1B6B184A3A
:102F100043F02003136322E0FB685B68194A934285
:102F200006D1134B1B6B124A43F04003136316E0A8
:102F3000FB685B68134A934206D10D4B1B6B0C4A2E
:102F400043F0800313630AE0FB685B680D4A934219
:102F500005D1074B1B6B064A43F480731363FB6870
:102F600018461437BD465DF8047B704700000240E8
:102F7000003802400004024000080240000C0240F9
:102F8000001002400014024080B584B000AFF86029
:102F90003B1D83E80600FB68181D3B1D93E80600F7
:102FA000FFF75EFFFB681846FFF7B4FE114AFB68A7
:102FB0001A60FB689B681846FB681B795B0003225C
:102FC00002FA03F300221946FEF747FCFB689B68F0
:102FD00003F10C00FB681B795B00032202FA03F388
:102FE00001221946FEF739FCFB6818461037BD462A
:102FF00080BD00BF1C4D010880B483B000AF786075
:103000007B689B681B697A681279114601228A40A5
:103010001340002B0CBF01230023DBB218460C37F2
:10302000BD465DF8047B704780B584B000AFF860A2
:10303000381D80E806007B80FB687A8811461846B8
:1030400002F0AEF9FB6803F110003B1D93E80600A7
:10305000FFF782FEFB6820331846FEF7B9F9074AEE
:10306000FB681A60064AFB681A61064AFB681A6226
:10307000FB6818461037BD4680BD00BF584D01089B
:103080006C4D01087C4D010890B583B000AF7860AD
:103090007B68184602F098F97B6803F110047B689E
:1030A000184602F0C8F9034619462046FFF796FE77
:1030B00000BF0C37BD4690BDA0F12000FFF7E4BF74
:1030C00080B582B000AF78600B46FB707B68FA7801
:1030D0001146184602F08FF900BF0837BD4680BD83
:1030E000A0F11000FFF7ECBF80B582B000AF7860B0
:1030F0000B46FB707B681B6808331B68FA78114627
:10310000786898477B6818460837BD4680BD80B40C
:1031100083B000AF78607B681B7918460C37BD46DA
:103120005DF8047B704780B483B000AF78600B46D5
:10313000FB707B68FA781A7100BF0C37BD465DF8EA
:10314000047B704790B583B000AF78607B681B68E4
:1031500004331C687B681B681B68786898470346C3
:1031600083F00103DBB219467868A04700BF0C3733
:10317000BD4690BD80B584B000AFF860381D80E8D2
:1031800006007B80FB687A881146184602F02CF80E
:10319000FB6803F110003B1D93E80600FFF7F4FE07
:1031A000FB681C331846FEF713F9074AFB681A60E0
:1031B000064AFB681A61064AFB68DA61FB68184632
:1031C0001037BD4680BD00BF184E01082C4E0108C7
:1031D000384E010890B583B000AF78607C687B689A
:1031E00010331846FFF708FF03461946204602F041
:1031F00078F87B68184602F00BF800BF0C37BD4624
:1032000090BDA0F11C00FFF7E5BF80B582B000AF14
:1032100078607B68184602F084F803461846083741
:10322000BD4680BDA0F11000FFF7EFBF80B485B0B0
:1032300000AFF860B9607A60FB68043BFB60FB6834
:103240004FF080721A60FB68043BFB60BB6823F0A0
:103250000102FB681A60FB68043BFB600C4AFB68D8
:103260001A60FB68143BFB607A68FB681A60FB68B5
:10327000043BFB60FB686FF002021A60FB68203BB6
:10328000FB60FB6818461437BD465DF8047B704749
:103290009532000880B483B000AF00233B604FF04C
:1032A000500383F31188BFF36F8FBFF34F8F7B60A1
:1032B00000BF00BF3B68002BFCD000BF00BF0C3735
:1032C000BD465DF8047B7047000000000000000070
:1032D000074B19680868B0E8F04F80F30988BFF31E
:1032E0006F8F4FF0000080F311887047AFF30080BC
:1032F0002057002000BF00BF08480068006880F326
:1033000008884FF0000080F3148862B661B6BFF3FE
:103310004F8FBFF36F8F00DF00BF000008ED00E0AC
:1033200000BF00BF80B500AF104B1B680F4A43F4CD
:10333000700313600D4B1B680C4A43F0704313601D
:1033400000F0A4F80A4B00221A6000F0BBF8094B09
:103350001B68084A43F040431360FFF7CDFF00F0BD
:103360008BFEFFF797FF0023184680BD20ED00E09D
:103370000800002034EF00E080B483B000AF4FF0CD
:10338000500383F31188BFF36F8FBFF34F8F7B60C0
:1033900000BF054B1B680133034A136000BF0C37A5
:1033A000BD465DF8047B70470800002080B483B000
:1033B00000AF0A4B1B68013B084A1360074B1B68B0
:1033C000002B05D100237B607B6883F3118800BF4D
:1033D00000BF0C37BD465DF8047B70470800002035
:1033E000EFF30980BFF36F8F154B1A681EF0100FB3
:1033F00008BF20ED108A20E9F04F10602DE9090088
:103400004FF0500080F31188BFF34F8FBFF36F8FE1
:1034100000F032FE4FF0000080F3118809BC1968FB
:103420000868B0E8F04F1EF0100F08BFB0EC108A2B
:1034300080F30988BFF36F8F704700BFAFF3008040
:103440002057002000BF00BF80B582B000AF4FF012
:10345000500383F31188BFF36F8FBFF34F8F7B60EF
:1034600000BF00F0FBFC0346002B03D0064B4FF0DF
:1034700080521A6000233B603B6883F3118800BFD1
:1034800000BF0837BD4680BD04ED00E080B400AF4A
:10349000084B00221A60084B00221A60074B084AAA
:1034A0001A60044B07221A6000BFBD465DF8047B1A
:1034B000704700BF10E000E018E000E014E000E01A
:1034C0003F900200DFF80C00016841F470010160D8
:1034D0007047000088ED00E000BF00BF80B588B0F5
:1034E00000AF786000237B6100F0BEFB434B1B689C
:1034F000002B01D100F0C6F87B68002B12D0082207
:103500007B6803F00703D31A08333B613B69DB4355
:103510007A689A4204D87A683B6913447B6001E078
:1035200000237B607B68002B60DB7B68002B5DD019
:10353000334B1B687A689A4258D8324BBB61314B87
:103540001B68FB6104E0FB69BB61FB691B68FB61F5
:10355000FB695B687A689A4203D9FB691B68002B98
:10356000F1D1264B1B68FA699A423FD0BB691B68B0
:10357000082213447B61FB691A68BB691A60FB6906
:103580005A687B68D21A08235B009A420FD9FA69FD
:103590007B681344FB60FB695A687B68D21AFB683E
:1035A0005A60FB697A685A60F86800F0C7F8144BF3
:1035B0001A68FB695B68D31A114A1360104B1A68CA
:1035C000114B1B689A4203D20D4B1B680E4A1360C5
:1035D000FB695B6843F00042FB695A60FB690022AB
:1035E0001A600A4B1B680133084A136000F04AFB5B
:1035F0007B6918462037BD4680BD00BF0C570020B0
:10360000105700200457002014570020185700209E
:1036100080B584B000AF78607B68FB607B68002B6E
:1036200027D008235B42FA681344FB60FB68BB6049
:10363000BB685B68002B1CDABB681B68002B18D1C9
:10364000BB685B6823F00042BB685A6000F00CFB6B
:10365000BB685A68094B1B681344084A1360B86872
:1036600000F06CF8064B1B680133054A136000F04C
:1036700009FB00BF1037BD4680BD00BF10570020BA
:103680001C57002080B485B000AF4FF4A043BB604E
:10369000254BFB60FB6803F00703002B0CD0FB6895
:1036A0000733FB60FB6823F00703FB60BA68FB6825
:1036B000D31A1D4A1344BB60FB687B601B4A7B68BE
:1036C00013601A4B00225A607B68BA681344FB608F
:1036D0000822FB689B1AFB60FB6823F00703FB6072
:1036E000FB68134A1360124B1B6800225A60104B90
:1036F0001B6800221A607B683B603B68FA68D21A3C
:103700003B685A600A4B1A683B681A603B685B6802
:10371000084A13603B685B68074A136000BF1437B0
:10372000BD465DF8047B7047040700200457002065
:103730000C570020145700201057002080B485B08B
:1037400000AF7860284BFB6002E0FB681B68FB6001
:10375000FB681B687A689A42F7D8FB68BB60FB6815
:103760005B68BA6813447A689A4208D1FB685A6861
:103770007B685B681A44FB685A60FB687B607B6807
:10378000BB607B685B68BA681A44FB681B689A4236
:1037900018D1FB681A68154B1B689A420DD07B68DC
:1037A0005A68FB681B685B681A447B685A60FB6850
:1037B0001B681A687B681A6008E00C4B1A687B6803
:1037C0001A6003E0FB681A687B681A60FA687B6815
:1037D0009A4202D0FB687A681A6000BF1437BD466F
:1037E0005DF8047B704700BF045700200C57002091
:1037F00080B483B000AF78607B6803F108027B6817
:103800005A607B684FF0FF329A607B6803F10802D0
:103810007B68DA607B6803F108027B681A617B6869
:1038200000221A6000BF0C37BD465DF8047B70476C
:1038300080B483B000AF78607B6800221A6100BF5B
:103840000C37BD465DF8047B704780B485B000AF8F
:10385000786039603B681B68BB60BB68B3F1FF3FB1
:1038600003D17B681B69FB600CE07B680833FB605D
:1038700002E0FB685B68FB60FB685B681B68BA681A
:103880009A42F6D2FB685A683B685A603B685B68AC
:103890003A689A603B68FA689A60FB683A685A60CE
:1038A0003B687A681A617B681B685A1C7B681A60DF
:1038B00000BF1437BD465DF8047B704780B485B007
:1038C00000AF78607B681B69FB607B685B687A6827
:1038D00092689A607B689B687A6852685A60FB6855
:1038E0005B687A689A4203D17B689A68FB685A6081
:1038F0007B6800221A61FB681B685A1EFB681A600D
:10390000FB681B6818461437BD465DF8047B70479A
:1039100080B58CB004AFF860B9603B601346FB80A3
:10392000FB889B001846FFF7D9FD78617B69002B67
:1039300013D05820FFF7D2FDF861FB69002B08D0A7
:1039400058220021F8690BF071FEFB697A691A634D
:1039500005E07869FFF75CFE01E00023FB61FB698D
:10396000002B13D0FA8800230393FB690293FB6AB0
:103970000193BB6A00933B68B968F86800F00EF8E1
:10398000F86900F07BF80123BB6102E04FF0FF33E0
:10399000BB61BB6918462037BD4680BD80B586B087
:1039A00000AFF860B9607A603B60BB6A186B7B68F7
:1039B0009B001A46A5210BF039FEBB6A1A6B7B6887
:1039C00003F18043013B9B0013443B613B6923F0BF
:1039D00007033B61BB68002B1ED000237B6112E014
:1039E000BA687B6913441978BA6A7B691344343323
:1039F0000A461A70BA687B6913441B78002B06D0FC
:103A00007B6901337B617B69092BE9D900E000BF49
:103A1000BB6A002283F83D203B6A042B01D90423B2
:103A20003B62BB6A3A6ADA62BB6A3A6A9A64BB6A08
:103A300004331846FFF7FCFEBB6A18331846FFF73D
:103A4000F7FEBB6ABA6A1A613B6AC3F10502BB6A38
:103A50009A61BB6ABA6A5A623A68F9683869FFF7CC
:103A6000E5FB0246BB6A1A607B6A002B02D07B6AC8
:103A7000BA6A1A6000BF1837BD4680BD80B584B0F1
:103A800000AF7860FFF778FC404B1B6801333F4A7A
:103A900013603F4B1B68002B09D13D4A7B681360C4
:103AA0003A4B1B68012B10D100F06CFB0DE0394B39
:103AB0001B68002B09D1364B1B68DA6A7B68DB6A0E
:103AC0009A4202D8324A7B681360334B1B68013339
:103AD000314A1360304B1A687B681A647B68DB6A72
:103AE00001229A402D4B1B6813432C4A13607B68BC
:103AF000DA6A2B4913469B0013449B000B440433A2
:103B00001B68FB607B68FA689A60FB689A687B6850
:103B1000DA60FB689B687A6804325A607B681A1D19
:103B2000FB689A607B68DA6A13469B0013449B002B
:103B30001B4A1A447B685A617B68DA6A1849134643
:103B40009B0013449B000B441B68591C14481346EC
:103B50009B0013449B0003441960FFF727FC0D4BA7
:103B60001B68002B0ED00A4B1B68DA6A7B68DB6A85
:103B70009A4207D20B4B4FF080521A60BFF34F8F1F
:103B8000BFF36F8F00BF1037BD4680BDF8570020D0
:103B9000205700200458002014580020005800200E
:103BA0002457002004ED00E080B584B000AF7860B9
:103BB0000023FB607B68002B08D000F055F8002143
:103BC000786800F079FB00F05DF8F860FB68002B86
:103BD00007D1064B4FF080521A60BFF34F8FBFF3EF
:103BE0006F8F00BF1037BD4680BD00BF04ED00E001
:103BF00080B584B002AF154B0193002300930023DE
:103C0000802213491348FFF783FE78607B68012BFD
:103C100015D14FF0500383F31188BFF36F8FBFF3BB
:103C20004F8F3B6000BF0C4B4FF0FF321A600B4BC5
:103C300001221A600A4B00221A60FFF773FB094B3E
:103C40001B6800BF0837BD4680BD00BF1C58002060
:103C5000204A01085141000818580020045800204B
:103C6000FC5700207C4E010880B400AF044B1B6859
:103C70000133034A136000BFBD465DF8047B704703
:103C80002058002080B586B000AF00237B61002360
:103C90003B61FFF771FB684B1B68013B664A136091
:103CA000654B1B68002B40F0C080644B1B68002BE9
:103CB00000F0BB808AE0624BDB68DB687B617B697C
:103CC0009B6ABB607B69DB697A69126A9A607B696F
:103CD0001B6A7A69D2695A60BB685A687B69183373
:103CE0009A4203D17B691A6ABB685A607B690022D9
:103CF0009A62BB681B685A1EBB681A607B695B6965
:103D00007B607B699B687A69D2689A607B69DB68B3
:103D10007A6992685A607B685A687B6904339A4270
:103D200003D17B69DA687B685A607B6900225A613B
:103D30007B681B685A1E7B681A607B69DB6A0122FC
:103D40009A40404B1B6813433E4A13607B69DA6A12
:103D50003D4913469B0013449B000B4404331B68EE
:103D60003B607B693A689A603B689A687B69DA6075
:103D70003B689B687A6904325A607B691A1D3B680C
:103D80009A607B69DA6A13469B0013449B002E4AB3
:103D90001A447B695A617B69DA6A2B4913469B0096
:103DA00013449B000B441B68591C274813469B0077
:103DB00013449B00034419607B69DA6A234B1B6838
:103DC000DB6A9A4202D3224B01221A601C4B1B6809
:103DD000002B7FF470AF7B69002B01D000F050FA0C
:103DE0001C4B1B68FB60FB68002B10D000F036F802
:103DF0000346002B02D0164B01221A60FB68013BE0
:103E0000FB60FB68002BF1D1124B00221A60104BB3
:103E10001B68002B09D001233B610F4B4FF08052F0
:103E20001A60BFF34F8FBFF36F8FFFF7BFFA3B6985
:103E300018461837BD4680BD20580020F85700208E
:103E4000B857002000580020245700202057002099
:103E50000C5800200858002004ED00E080B588B020
:103E600000AF0023FB61794B1B68002B40F0E28020
:103E7000774B1B680133BB61754ABB691360BB6933
:103E8000002B10D1734B1B687B61734B1B68714A0D
:103E90001360714A7B691360704B1B6801336F4A72
:103EA000136000F0EDF96E4B1B68BA699A42C0F0DE
:103EB000A680684B1B681B68002B04D1684B4FF031
:103EC000FF321A609BE0634B1B68DB68DB683B6179
:103ED0003B695B68FB60BA69FB689A4203D2604A3F
:103EE000FB6813608BE03B695B69BB603B699B6867
:103EF0003A69D2689A603B69DB683A6992685A60AD
:103F0000BB685A683B6904339A4203D13B69DA685B
:103F1000BB685A603B6900225A61BB681B685A1E25
:103F2000BB681A603B699B6A002B1ED03B699B6A89
:103F30007B603B69DB693A69126A9A603B691B6A7C
:103F40003A69D2695A607B685A683B6918339A4269
:103F500003D13B691A6A7B685A603B6900229A6206
:103F60007B681B685A1E7B681A603B69DB6A01220A
:103F70009A403C4B1B6813433A4A13603B69DA6A28
:103F8000394913469B0013449B000B4404331B68C0
:103F90003B603B693A689A603B689A683B69DA60C3
:103FA0003B689B683A6904325A603B691A1D3B685A
:103FB0009A603B69DA6A13469B0013449B002A4AC5
:103FC0001A443B695A613B69DA6A274913469B00E8
:103FD00013449B000B441B68591C234813469B0049
:103FE00013449B00034419603B69DA6A1F4B1B684A
:103FF000DB6A9A427FF65DAF0123FB6159E71B4BF9
:104000001B68DA6A184913469B0013449B000B4453
:104010001B68012B01D90123FB61154B1B68002B89
:1040200001D100F0E2F9134B1B68002B09D00123EA
:10403000FB6106E00E4B1B6801330D4A136000F074
:10404000D4F9FB6918462037BD4680BD20580020B2
:10405000FC570020B0570020B45700201058002013
:104060001858002000580020245700202057002016
:10407000085800200C58002080B586B000AF2F4BA8
:104080001B68002B03D02E4B01221A6051E02C4BF1
:1040900000221A602B4B1B681B6B7B614FF0A53312
:1040A0003B617B691B683A699A4211D17B69043391
:1040B0001B683A699A420BD17B6908331B683A69DD
:1040C0009A4205D17B690C331B683A699A4208D041
:1040D0001C4B1A681B4B1B6834331946104600F002
:1040E0008BF9194B1B687B607B68B3FA83F3FB7019
:1040F000FB78C3F11F03FB60FA6813469B0013446F
:104100009B00124A1344BB60BB685B685A68BB687B
:104110005A60BB685A68BB6808339A4204D1BB68CE
:104120005B685A68BB685A60BB685B68DB68054AB5
:10413000136000BF1837BD4680BD00BF2058002067
:104140000C58002020570020005800202457002041
:1041500080B582B000AF786000F054F8074B1B6860
:10416000012B07D9064B4FF080521A60BFF34F8FD7
:10417000BFF36F8F00F032F9EEE700BF2457002045
:1041800004ED00E080B582B000AF00237B600CE05E
:104190007A6813469B0013449B00124A1344184646
:1041A000FFF726FB7B6801337B607B68042BEFD92C
:1041B0000D48FFF71DFB0D48FFF71AFB0C48FFF7F2
:1041C00017FB0C48FFF714FB0B48FFF711FB0B4BD9
:1041D000054A1A600A4B054A1A6000BF0837BD46F7
:1041E00080BD00BF24570020885700209C57002026
:1041F000B8570020CC570020E4570020B0570020CB
:10420000B457002080B582B000AF19E0FFF7B4F8D2
:10421000104BDB68DB687B607B6804331846FFF774
:104220004DFB0D4B1B68013B0B4A13600B4B1B688E
:10423000013B0A4A1360FFF7B9F8786800F010F8FC
:10424000064B1B68002BE1D100BF00BF0837BD46FD
:1042500080BD00BFCC570020F8570020E057002059
:1042600080B582B000AF78607B681B6B1846FFF7A3
:10427000CFF97868FFF7CCF900BF0837BD4680BD9D
:1042800080B400AF0A4B1B681B68002B04D1094B9C
:104290004FF0FF321A6005E0054B1B68DB681B68B6
:1042A000044A136000BFBD465DF8047B704700BF41
:1042B000B05700201858002080B586B000AF786055
:1042C0003960364B1B687B61354B1B6804331846DD
:1042D000FFF7F4FA0346002B0BD1314B1B68DB6A66
:1042E000012202FA03F3DA432E4B1B6813402D4AD6
:1042F00013607B68B3F1FF3F24D13B68002B21D0D2
:10430000294B5B683B61264B1B683A699A60244BDA
:104310001B683A699268DA60214B1A683B699B68AE
:1043200004325A601E4B1B681A1D3B699A601C4B75
:104330001B681D4A5A611C4B1B6801331A4A1360E3
:1043400000BF26E07A697B681344FB60144B1B684E
:10435000FA685A60FA687B699A4209D2134B1A6864
:104360000F4B1B68043319461046FFF76EFA10E036
:104370000F4B1A680A4B1B68043319461046FFF7A7
:1043800064FA0C4B1B68FA689A4202D2094AFB682D
:10439000136000BF1837BD4680BD00BFFC5700202A
:1043A0002057002000580020E4570020B457002078
:1043B000B05700201858002080B400AF064BD3F847
:1043C0008830054A43F47003C2F8883000BFBD4608
:1043D0005DF8047B704700BF00ED00E080B400AFE3
:1043E00000BFBD465DF8047B704780B400AF00BFDE
:1043F000BD465DF8047B704780B483B000AF786041
:104400003960FEE780B582B000AF4FF080431B6992
:104410004FF0804223F00103136100237B600EE024
:104420000C4A7B6852F823301B681B6809497A687C
:1044300051F82220104698477B6801337B60064B79
:104440001B781A467B689342EADB00BF00BF08373F
:10445000BD4680BD0C0000202400002080B500AFC8
:104460000248FDF709FF00BF80BD00BFD4580020FF
:1044700080B582B002AF00F023FA54214FF08040A3
:1044800000F0F0FA00F014FA0023019301230093E6
:10449000002380220D490E48FFF73AFA00230193CA
:1044A00001230093002380220A490B48FFF730FACA
:1044B000002301930123009300234FF42072074946
:1044C0000748FFF725FAFFF793FBFEE7284A0108A4
:1044D00025500008304A010875500008384A010884
:1044E000CD50000880B582B000AF7860074A7B6885
:1044F0001A60074A7B681A617B6814331846FDF717
:1045000022FF7B6818460837BD4680BD384C01083D
:10451000484C010880B582B000AF7860074A7B68DC
:104520001A60074A7B681A617B6814331846FDF7E6
:104530000AFF7B6818460837BD4680BD3C4B010822
:104540004C4B010880B582B000AF7860074A7B68A9
:104550001A60074A7B681A617B6814331846FDF7B6
:10456000F2FE7B6818460837BD4680BDE84B01085F
:10457000F84B010880B5A4B00EAF764A3B4692E8EE
:10458000030083E803004FF47A733A4606CA724880
:10459000FEF74AFD714A07F1080392E8030083E839
:1045A000030007F1080393E806006D48FEF7D4FB0B
:1045B0006C4A07F1100392E8030083E803000A2322
:1045C00007F1100206CA6848FEF7D4FD4FF47A716D
:1045D000664800F091FF00229FED653ADFED652A05
:1045E0009FED632ADFED621AB2EE041AF7EE000ABD
:1045F0009FED610A14216148FEF784F8604A07F1D3
:10460000180392E8030083E803005E4A07F12003E1
:1046100092E8030083E803000A23079380230693AC
:1046200000230593002304934FF41653039354235C
:1046300002936A4607F1200393E8030082E803002F
:1046400007F118030CCB50495048FDF7E7FB504ADF
:1046500050494E4800F090FF4F4A07F1280392E876
:10466000030083E803004D4A07F1300392E803009A
:1046700083E803000A230693802305930023049311
:10468000002303932A2302936A4607F1300393E839
:10469000030082E8030007F128030CCB404941489E
:1046A000FCF7A6FE3A4A40493E4800F065FF3F4A03
:1046B00007F1380392E8030083E8030007F13803A9
:1046C00093E806003A48FEF747FB3A4A07F14003F1
:1046D00092E8030083E80300374A07F1480392E8B1
:1046E000030083E80300354A07F1500392E8030012
:1046F00083E803000A230C9380230B932C4B0A932B
:1047000000230993002308930023079300230693B3
:104710002A2305930223049302AA07F1500393E886
:10472000030082E803006A4607F1480393E80300A8
:1047300082E8030007F140030CCB21492148FDF733
:104740006DF9134A20491F4800F016FF00BF583783
:10475000BD4680BD444A0108245800204C4A010847
:1047600048580020544A0108585800207858002022
:10477000000000000000C842666682428C5800209B
:104780005C4A0108644A010800100140D458002026
:1047900000000020E54400086C4A0108744A010842
:1047A00000540040F8580020154500087C4A0108D4
:1047B00028590020844A01088C4A0108944A0108BB
:1047C00000380040385900204545000880B500AF4A
:1047D000FFF7D0FE80BD000080B485B000AF7860E8
:1047E0007B6803F00703FB600C4BDB68BB60BA68B7
:1047F0004FF6FF031340BB60FB681A02BB6813430C
:1048000043F0BF6343F40033BB60044ABB68D3602A
:1048100000BF1437BD465DF8047B704700ED00E033
:1048200080B483B000AF0346FB7197F90730002BCB
:104830000BDBFB7903F01F02074997F907305B098F
:10484000012000FA02F241F8232000BF0C37BD46D8
:104850005DF8047B704700BF00E100E080B483B0E6
:1048600000AF03463960FB7197F90730002B0ADB74
:104870003B68DAB20C4997F907301201D2B20B4407
:1048800083F800230AE03B68DAB20849FB7903F0B9
:104890000F03043B1201D2B20B441A7600BF0C374F
:1048A000BD465DF8047B704700E100E000ED00E0EC
:1048B00080B500AF0420FFF78FFF00BF80BD000070
:1048C00080B594B000AF5E4A07F110031146184658
:1048D00000F0C2F907F108035A49184600F0BCF984
:1048E0003B465949184600F0B7F907F1100310216B
:1048F000184600F0C3F900BF07F110031121184654
:1049000000F0CCF9034683F00103DBB2002BF3D1B6
:104910004FF44033BB610023FB6107F1080007F14E
:10492000180393E8060000F0D9F9484A07F120037C
:1049300092E8030083E8030007F1080007F1200371
:1049400093E8060000F0CAF9414A07F1280392E80B
:10495000030083E8030007F1080007F1280393E848
:10496000060000F0BBF907F108031621184600F015
:1049700085F907F110031821184600F07FF900BFF0
:1049800007F110031921184600F088F9034683F057
:104990000103DBB2002BF3D12E4B1B682D4A43F0F1
:1049A00005031360F0233B6300237B63384607F164
:1049B000300393E8060000F091F9274A07F1380325
:1049C00092E8030083E80300384607F1380393E8D0
:1049D000060000F083F9214A07F1400392E8030042
:1049E00083E80300384607F1400393E8060000F02F
:1049F00075F91B4A07F1480392E8030083E80300B6
:104A0000384607F1480393E8060000F067F900BF55
:104A10003B460C21184600F073F90346022B14BFE5
:104A200001230023DBB2002BF2D107F11003002198
:104A3000184600F082F900BF5037BD4680BD00BF68
:104A40000038024004380240083802409C4A0108FD
:104A5000A44A0108003C0240AC4A0108B44A0108DB
:104A6000BC4A010880B584B000AF78600B467B80FB
:104A70007B686B4A934208D16A4B5B6C694A43F08E
:104A8000010353641B23FB73A7E07B68B3F1804FE2
:104A900008D1644B1B6C634A43F0010313641C236D
:104AA000FB739AE07B68604A934208D15D4B1B6CB4
:104AB0005C4A43F0020313641D23FB738DE07B68A3
:104AC0005A4A934208D1574B1B6C564A43F0040391
:104AD00013641E23FB7380E07B68554A934208D120
:104AE000504B1B6C4F4A43F0080313643223FB7393
:104AF00073E07B684F4A934208D14A4B1B6C494A8A
:104B000043F0100313643623FB7366E07B684A4A64
:104B1000934208D1434B1B6C424A43F02003136479
:104B20003723FB7359E07B68444A934208D13D4BDD
:104B30005B6C3C4A43F0020353642E23FB734CE04E
:104B40007B683F4A934208D1364B5B6C354A43F44D
:104B5000803353641823FB733FE07B68394A9342E8
:104B600008D1304B5B6C2F4A43F400335364192354
:104B7000FB7332E07B68344A934208D1294B5B6C6B
:104B8000284A43F4802353641A23FB7325E07B688F
:104B90002E4A934208D1234B1B6C224A43F0400318
:104BA00013642B23FB7318E07B68294A934208D1D6
:104BB0001C4B1B6C1B4A43F0800313642C23FB73B8
:104BC0000BE07B68234A934226D1164B1B6C154A97
:104BD00043F4807313642D23FB737A887B689A6295
:104BE0007B684FF47A72DA627B68DB6843F001021B
:104BF0007B68DA607B681B6843F001027B681A609F
:104C000097F90F301846FFF70BFE97F90F30002188
:104C10001846FFF723FE00E000BF1037BD4680BDF9
:104C2000000001400038024000040040000800403D
:104C3000000C00400010004000140040000401403F
:104C4000004001400044014000480140001800407D
:104C5000001C00400020004080B483B000AF7860AA
:104C600039607B683A681A607B6820221A717B6819
:104C700018460C37BD465DF8047B704780B582B09E
:104C800000AF78600B46FB70FB781946786800F03F
:104C900064F87B6818460837BD4680BD80B483B091
:104CA00000AF78600B46FB707B681B79FA789A42FC
:104CB00001D900230CE07B681B681B68FA7801218E
:104CC00001FA02F21340002B14BF01230023DBB2D0
:104CD00018460C37BD465DF8047B704780B584B03C
:104CE00000AFF8603B1D83E806007B68BA68194690
:104CF000F86800F050F8FB6818461037BD4680BDD4
:104D000080B584B000AF786039603868FCF748FE41
:104D10000346FB7397F90F30002B01DA002308E0FC
:104D20007B681B681A683B681A4097F90F3022FAB3
:104D300003F318461037BD4680BD80B582B000AF82
:104D400078600B46FB70FB781946786800F04BF8EA
:104D50007B6818460837BD4680BD80B483B000AF7D
:104D600078600B46FB707B681B79FA789A420CD806
:104D70007B681B681A68FB78012101FA03F3194666
:104D80007B681B680A431A6000E000BF0C37BD4611
:104D90005DF8047B704780B586B000AFF860B960FD
:104DA0007A60B868FCF7FCFD0346FB7597F917308D
:104DB000002B14DBFB681B681968BB68DA43FB68CF
:104DC0001B680A401A60FB681B68196897F917305E
:104DD0007A689A40FB681B680A431A6000E000BFCB
:104DE0001837BD4680BD80B483B000AF78600B46F5
:104DF000FB707B681B79FA789A420DD87B681B6838
:104E00001A68FB78012101FA03F3DB4319467B683A
:104E10001B680A401A6000E000BF0C37BD465DF811
:104E2000047B704780B487B000AF786007F1080357
:104E30003B613B1DFB600023FB750FE097F91730CA
:104E4000FA681A4497F9173039690B4412781A70C6
:104E500097F91730DBB20133DBB2FB7597F91730E6
:104E6000032BEBDDBB6807EE903AB0EE670A1C3708
:104E7000BD465DF8047B704780B485B000AF87ED18
:104E8000010A38603B1DBB600023FB7312E097F9F9
:104E90000F30C3F103031A46BB681A4497F90F3069
:104EA00039680B4412781A7097F90F30DBB201336E
:104EB000DBB2FB7397F90F30032BE8DD00BF00BFB7
:104EC0001437BD465DF8047B704780B487B000AFEF
:104ED00087ED010A07F108033B613B1DFB600023DE
:104EE000FB750FE097F91730FA681A4497F91730F5
:104EF00039690B4412781A7097F91730DBB2013315
:104F0000DBB2FB7597F91730032BEBDDBB68184656
:104F10001C37BD465DF8047B704780B582B000AF9A
:104F200078600B467B807B6800229A807B68002239
:104F3000DA807B880121184600F02AF803461A46D9
:104F40007B68DA807B88B3F1805F01D2DB0001E00F
:104F500000F062FC184601F055F803461A467B68DB
:104F60001A607B6818460837BD4680BD80B582B0A0
:104F700000AF78607B681B68002B04D07B681B68DF
:104F8000184600F07FFB7B6818460837BD4680BD99
:104F900080B483B000AF03460A46FB801346BB8053
:104FA000FA88BB889A4201D9FB8800E0BB88184682
:104FB0000C37BD465DF8047B7047000080B582B0B9
:104FC00000AF87ED010A7868FBF75EFA4FF0000248
:104FD000124BFBF781FE02460B4610461946FBF7C3
:104FE000ABFA02460E4BA3FB02135B09642101FBE3
:104FF00003F3D31A322B07D9D7ED017AFCEEE77A07
:1050000017EE903A013305E0D7ED017AFCEEE77A2E
:1050100017EE903A18460837BD4680BD000059404B
:105020001F85EB5180B582B000AF786001210D483B
:1050300000F090FA0C48FEF7E8F8034619460B48D2
:10504000FEF752F8074800F03DFA0346002B05D062
:105050000748FEF777F8034800F041FA0120FEF711
:10506000A3FDE7E778580020585800202458002076
:105070004858002080B582B000AF78609FED0F0ADD
:105080000F48FDF7C9FB9FED0F0A0D48FDF7D4FB54
:10509000B7EE000A0A48FDF7DFFB01210848FDF7DB
:1050A000EBFB9FED090A0648FDF719FD0448FDF7E3
:1050B00095FB03461846FEF777FDF2E7CDCCCC3DD5
:1050C0008C580020000048430000484280B598B04A
:1050D00000AF7860354BFB6507F13003184697ED5C
:1050E000170AFFF7C9FE324BFB6507F12C03184680
:1050F00097ED170AFFF7C0FE97F8303087F8243095
:1051000097F8313087F8253097F8323087F8263015
:1051100097F8333087F8273097F82C3087F8283005
:1051200097F82D3087F8293097F82E3087F82A30F5
:1051300097F82F3087F82B3007F1100300221A6000
:105140005A609A60DA601A6107F108030A2118466A
:10515000FDF7D6F807F1240107F1080308221846E5
:10516000FDF7B5F997ED170AFFF7AFFE0346BB65EC
:10517000B86DFFF757FEF0EE407AC7ED157A07F1EC
:10518000080301211846FDF710FAF0EE407AC7ED4A
:10519000147A4FF47A70FEF707FDF0E707F1080381
:1051A0001846FDF7D0F800F06FFA00BF713D52418C
:1051B00085EB314180B500AF0A210548FFF7ADFE10
:1051C000044A0549024800F0D7F900BF80BD00BF7E
:1051D00060590020000000206D4F000880B500AF2E
:1051E000FFF7E8FF80BD000080B483B000AF7860B7
:1051F0003960064A7B681A607B683A685A607B6847
:1052000018460C37BD465DF8047B7047884E010890
:1052100080B582B000AF78607B681B681B687868D7
:1052200098470346002B0BD0786800F07AF80346C5
:10523000002B0CD17B689B685A1C7B689A6007E046
:105240007B6800225A737B6800229A6000E000BFEE
:105250000837BD4680BD80B483B000AF78607B68FE
:1052600001221A7300BF0C37BD465DF8047B7047FE
:1052700080B483B000AF78607B6800221A7300BFEF
:105280000C37BD465DF8047B704780B582B000AF37
:1052900078607868FFF7ECFF786800F004F800BFEA
:1052A0000837BD4680BD80B483B000AF78607B68AE
:1052B00000229A607B6800225A7300BF0C37BD46FB
:1052C0005DF8047B704780B582B000AF7860786885
:1052D000FFF7DBFF7868FFF7BEFF00BF0837BD466A
:1052E00080BD80B582B000AF78600B46FB70FB7864
:1052F000002B03D07868FFF7AEFF02E07868FFF775
:10530000C4FF00BF0837BD4680BD80B483B000AF86
:1053100078607B681B7B18460C37BD465DF8047BC4
:10532000704780B483B000AF78607B689A687B6810
:105330005B689A422CBF01230023DBB218460C376E
:10534000BD465DF8047B704780B483B000AF7860E1
:105350007B689A687B685B689A4234BF01230023AC
:10536000DBB218460C37BD465DF8047B704780B54C
:1053700082B000AF78607B681B681B6878689847CC
:105380000346002B07D07868FFF7DEFF0346002BAB
:1053900001D0012300E0002318460837BD4680BD38
:1053A00080B582B000AF786039607B683968184694
:1053B000FFF71AFF034A7B681A607B6818460837B4
:1053C000BD4680BDAC4E010880B582B000AF7860AC
:1053D0007B681846FFF7A5FF0346002B03D07B68C8
:1053E0001846FFF752FF7B681846FFF711FF00BF12
:1053F0000837BD4680BD80B582B000AF78600B46EF
:10540000FB70FB7883F00103DBB2002B08D07B68D4
:105410009B7B002B08D07B681846FFF754FF03E006
:105420007B681846FFF731FF7B68FA789A7300BFF4
:105430000837BD4680BD80B582B000AF78607B681C
:105440009B7B002B06D17B681846FFF790FF034635
:10545000002B01D0012300E0002318460837BD4689
:1054600080BD000080B582B000AF786039607B6895
:1054700039681846FFF7B8FE034A7B681A607B68F4
:1054800018460837BD4680BDD44E010880B582B0AD
:1054900000AF78607B681846FFF7BAFE00BF083798
:1054A000BD4680BD80B582B000AF78600B46FB7012
:1054B0007B68FA7811461846FFF713FF00BF0837DC
:1054C000BD4680BD80B582B000AF78607B6818466D
:1054D000FFF727FF034618460837BD4680BD80B555
:1054E00082B000AF78607B681846FFF7DCFE00BF33
:1054F0000837BD4680BD000080B582B000AF78603F
:1055000039607B6839681846FFF7ACFF7B68103359
:105510001846FBF75DFF054A7B681A60044A7B6802
:105520001A617B6818460837BD4680BDB84E010831
:10553000C84E010880B582B000AF78607B6818461D
:10554000FFF7A4FF00BF0837BD4680BDA0F11000E3
:10555000FFF7F0BF80B582B000AF78600B46FB70FC
:105560007B68FA7811461846FFF79CFF7B6818465F
:105570000837BD4680BD000003460846194609F0BD
:10558000FDBA00BF70B5036884B000249E6903941F
:10559000102315460293CDE900446B461268B047CC
:1055A0009DF8043003F00603062B03BF009B2B601D
:1055B0000120204604B070BD009890420CBF062028
:1055C0000120704710B5034B0360044600F0AAFDAC
:1055D000204610BD3C4F010810B5054B0360044642
:1055E00000F0A0FD2046082100F04AF8204610BD3A
:1055F0003C4F01082DE9F041069F0899099E8F4212
:10560000044690461D460CD02946204600F08EFDEB
:1056100020B10123376086F80480B3710020BDE813
:10562000F081079900F082FD0028EDD086F8058012
:105630000020BDE8F08100BF38B515461C4600F0DB
:1056400075FD00B938BD082206232560E26023718C
:1056500038BD00BF2DE9F041064617461D460C46F1
:1056600000F064FD48B9032D07D823683A46314657
:1056700020465B69BDE8F0411847BDE8F08100BFF6
:1056800007F0B2BB07F0B0BB1EB400F08DF81EBC33
:10569000FBF700F8F0B50278472A83B00C461D46A8
:1056A00019D0264E0020336801909B6830469847F9
:1056B00078B1019B1B68019302272368314620467D
:1056C0001E6901AA0123B04738BB0746384603B01C
:1056D000F0BD0127F1E743784E2BE2D18378552BBB
:1056E000DFD1C378432BDCD10379462B1AD0432B6F
:1056F000D7D143792B2BD4D183792B2BD1D1C3791B
:10570000012BCED850F8206C4FF0000301930ABF54
:105710003046583056F8786CC5E7019B2B60384608
:1057200003B0F0BD43794F2BBBD18379522BB8D155
:10573000C0790028B5D1024EB5E700BF885B0108EB
:105740005C5B010810B5044600F08AF8224612F8A6
:105750002039472B04D0836823BB8260012010BD11
:1057600063784E2BF7D1A378552BF4D1E378432BF4
:10577000F1D12379432BEED163792B2BEBD1A37994
:105780002B2BE8D1E379012BE5D854F8043C013305
:10579000012B44F8043CE1D1836844F8083C826062
:1057A000012010BD00F052FB08B500F059F88368E5
:1057B00083B393F82020472A04D00022826003F1AB
:1057C000200008BD93F821204E2AF6D193F822201C
:1057D000552AF2D193F82320432AEED193F82420BE
:1057E000432AEAD193F825202B2AE6D193F82620E4
:1057F0002B2AE2D193F82720012ADED8DA69013A70
:10580000DA61002ADBD19969816000229A6103F193
:10581000200008BD00F01AFB08B5042007F052FB79
:10582000024B034A0349036000F07CFBDC5C010887
:1058300055680008C85C0108704700BF704700BF8A
:1058400000487047604F010810B504210446FFF777
:1058500017FF204610BD00BF004870476859002060
:105860000048704768590020502870B51DD0844604
:1058700000F00F000C2855D8DFE800F00744260799
:105880001E545454542A22071E00104650F8046B2C
:105890004EB10CF07004102C08BF11460E441CF0E1
:1058A000800F18BF36681E6070BDD01C20F003004A
:1058B00050F8046B1E6070BD104650F8086BE7E7A7
:1058C000104630F9026BE3E7104630F8026BDFE771
:1058D00000261046344610F8015B05F07F0E0EFAE4
:1058E00004FE15F0800F46EA0E0604F10704F2D11B
:1058F0001F2CCDD86D06CBD54FF0FF3505FA04F43B
:105900002643C6E700261046344610F8015B05F032
:105910007F0E0EFA04FE2D0646EA0E0604F1070479
:10592000F3D4B5E708F0B0FBFF2808B5034612D062
:1059300003F07003302B084613D005D8202B09D173
:10594000BDE8084008F09DBB402B06D1BDE80840EB
:1059500008F084BB03D8002008BD502BFBD008F012
:1059600093FBBDE8084008F089BB00BFF8B50C46C2
:105970001546064608B108F071FB286014F8017B53
:10598000FF2F28D16860204610F8013BFF2B32D052
:10599000102300242B75224610F8011B01F07F0311
:1059A0009340090644EA030402F10702F4D40444D4
:1059B000EC6010F8013B6B750024224610F8011BC7
:1059C00001F07F0393401C430B0602F10702F5D45C
:1059D00004442C61F8BD31463846FFF7A5FF2B1D66
:1059E000014622463846FFF73FFF0446204610F89E
:1059F000013BFF2BCCD12B750024D9E72DE9F04FCB
:105A000000F0030395B00024012B0A940F461646BC
:105A100000F0A480022B0AD13146384608F008FB7A
:105A2000002840F09080082015B0BDE8F08F002BD2
:105A300040F0FD8110F00804EED10EAB4FF00108EC
:105A40000293029B009300230C22194630460E97C6
:105A500007F006FE304608F007FB03900028DBD075
:105A6000DDE9022144EA080330460493FFF77EFF94
:105A70009DF84C300693824631461846FFF754FF96
:105A80000DF134080023059010901946CDF80080E0
:105A90000F22304607F0BCFD0D9BDDF8489023F047
:105AA0000103CA4503F1FF3533D29DF84DB00E9C7A
:105AB00000215846FFF738FF524601460BAB5846C7
:105AC000FFF7D2FE002182465846FFF72DFF5246CF
:105AD00001460CAB5846FFF7C7FE002182465846E8
:105AE000FFF722FF5246014643465846FFF7BCFEE9
:105AF0008246002002461AF8011B01F07F03934002
:105B000018430B0602F10702F5D40B9B2344AB426A
