:020000040800F2
:1000000000000220C9140008151500081515000885
:10001000151500081515000815150008000000004A
:10002000000000000000000000000000B11A0008FD
:100030001515000800000000C11B0008291C00085D
:1000400015150008151500081515000815150008E8
:1000500015150008151500081515000815150008D8
:1000600015150008151500081515000815150008C8
:1000700015150008151500081515000815150008B8
:1000800015150008151500081515000815150008A8
:100090001515000815150008151500081515000898
:1000A0001515000815150008151500081515000888
:1000B0001938000815150008151500081515000851
:1000C0001515000815150008151500081515000868
:1000D0001515000815150008151500081515000858
:1000E0001515000815150008151500081515000848
:1000F0001515000815150008151500081515000838
:100100001515000815150008151500081515000827
:100110001515000815150008151500081515000817
:100120001515000815150008151500081515000807
:1001300015150008151500081515000815150008F7
:1001400015150008151500081515000815150008E7
:1001500015150008151500081515000815150008D7
:1001600015150008151500081515000815150008C7
:1001700015150008151500081515000800000000E9
:08018000151500081515000813
:1001C00081F0004102E000BF83F0004330B54FEA08
:1001D00041044FEA430594EA050F08BF90EA020F75
:1001E0001FBF54EA000C55EA020C7FEA645C7FEA08
:1001F000655C00F0E2804FEA5454D4EB5555B8BF2B
:100200006D420CDD2C4480EA020281EA030382EA9B
:10021000000083EA010180EA020281EA0303362D2D
:1002200088BF30BD11F0004F4FEA01314FF4801C00
:100230004CEA113102D0404261EB410113F0004F12
:100240004FEA03334CEA133302D0524263EB4303C9
:1002500094EA050F00F0A780A4F10104D5F1200E67
:100260000DDB02FA0EFC22FA05F2801841F10001C2
:1002700003FA0EF2801843FA05F359410EE0A5F196
:1002800020050EF1200E012A03FA0EFC28BF4CF0C7
:10029000020C43FA05F3C01851EBE37101F000457D
:1002A00007D54FF0000EDCF1000C7EEB00006EEB8A
:1002B0000101B1F5801F1BD3B1F5001F0CD3490814
:1002C0005FEA30004FEA3C0C04F101044FEA44526B
:1002D00012F5800F80F09A80BCF1004F08BF5FEAF2
:1002E000500C50F1000041EB045141EA050130BDD2
:1002F0005FEA4C0C404141EB0101013C28BFB1F5E4
:10030000801FE9D291F0000F04BF01460020B1FA2E
:1003100081F308BF2033A3F10B03B3F120020CDA01
:100320000C3208DD02F1140CC2F10C0201FA0CF0DF
:1003300021FA02F10CE002F11402D8BFC2F1200C44
:1003400001FA02F120FA0CFCDCBF41EA0C019040FA
:10035000E41AA2BF01EB0451294330BD6FEA040443
:100360001F3C1CDA0C340EDC04F11404C4F120022E
:1003700020FA04F001FA02F340EA030021FA04F340
:1003800045EA030130BDC4F10C04C4F1200220FA97
:1003900002F001FA04F340EA0300294630BD21FAD5
:1003A00004F0294630BD94F0000F83F4801306BF9B
:1003B00081F480110134013D4EE77FEA645C18BF8F
:1003C0007FEA655C29D094EA050F08BF90EA020F26
:1003D00005D054EA000C04BF1946104630BD91EA1E
:1003E000030F1EBF0021002030BD5FEA545C05D121
:1003F0004000494128BF41F0004130BD14F5800460
:100400003CBF01F5801130BD01F0004545F0FE41D3
:1004100041F470014FF0000030BD7FEA645C1ABF08
:10042000194610467FEA655C1CBF0B46024650EA3F
:10043000013406BF52EA033591EA030F41F400216B
:1004400030BD00BF90F0000F04BF0021704730B5F1
:100450004FF4806404F132044FF000054FF00001C6
:1004600050E700BF90F0000F04BF0021704730B587
:100470004FF4806404F1320410F0004548BF40425C
:100480004FF000013EE700BF42004FEAE2014FEAB1
:1004900031014FEA02701FBF12F07F4393F07F4F8C
:1004A00081F06051704732F07F4208BF704793F08F
:1004B0007F4F04BF41F40021704730B54FF46074A2
:1004C00001F0004521F000411CE700BF50EA0102A5
:1004D00008BF704730B54FF000050AE050EA01024E
:1004E00008BF704730B511F0004502D5404261EBBE
:1004F00041014FF4806404F132045FEA915C3FF4FF
:10050000D8AE4FF003025FEADC0C18BF03325FEA9B
:10051000DC0C18BF033202EBDC02C2F1200300FA4C
:1005200003FC20FA02F001FA03FE40EA0E0021FA71
:1005300002F11444BDE600BF00F1340191E8380037
:100540009C46A6464CF8045D90E8FF0FE54600BDCA
:1005500090EC210B704700BF80EC210B704700BF6F
:1005600090EC200B704700BF80EC200B704700BF61
:10057000D0EC200B704700BFC0EC200B704700BFD1
:10058000F0EC0201F0EC0211F0EC0221F0EC02318F
:10059000F0EC0241F0EC0251F0EC0261F0EC02717F
:1005A000F0EC0281F0EC0291F0EC02A1F0EC02B16F
:1005B000F0EC02C1F0EC02D1F0EC02E1F0EC02F15F
:1005C000704700BFE0EC0201E0EC0211E0EC022118
:1005D000E0EC0231E0EC0241E0EC0251E0EC0261BF
:1005E000E0EC0271E0EC0281E0EC0291E0EC02A1AF
:1005F000E0EC02B1E0EC02C1E0EC02D1E0EC02E19F
:10060000E0EC02F1704700BFB0FC0181B0FC019149
:10061000B0FC01A1B0FC01B1704700BFA0FC01819A
:10062000A0FC0191A0FC01A1A0FC01B1704700BF9A
:10063000EC4600B52DE900502DE9FF1F4FF00003F7
:100640002DE90C0001A90BF00DFDDDF840E012B022
:10065000704700BFEC4600B52DE900502DE9FF1FA3
:100660004FF000032DE90C0001A90BF037FDDDF878
:1006700040E012B0704700BFEC4600B52DE90050D5
:100680002DE9FF1F4FF000032DE90C0001A90BF02D
:1006900047FDDDF840E012B0704700BFEC4600B502
:1006A0002DE900502DE9FF1F4FF000032DE90C004C
:1006B00001AB0BF00BFDDDF840E012B0704700BF5E
:1006C000EC4600B52DE900502DE9FF1F4FF0000367
:1006D0002DE90C0001AA0BF083FDDDF840E012B01B
:1006E000704700BF00000000000000000000000094
:1006F00000000000000000000000000000000000FA
:1007000002780B78012A28BF9A4240F0D8806DE920
:10071000044540EA0104CDE902676FF0000C4FEA9E
:1007200044721AB380EA010414F0070F6BD100F091
:10073000070420F0070004F0030521F007014FEA49
:10074000C505F0E8042314F0040FF1E804670CFA7F
:1007500005F462EA040266EA04060BD063EA0403C5
:10076000624667EA0407664604E000BFF0E8042337
:10077000F1E8046782FA4CF582EA0604A4FA8CF4E4
:100780006CBB83FA4CF583EA0705A5FA8CF595B99D
:1007900050E9022351E9026782FA4CF582EA060425
:1007A000A4FA8CF483FA4CF583EA0705A5FA8CF5D4
:1007B0002543DBD09CB92DBAB5FA85F424F00704A3
:1007C00027FA04F1DDE9026723FA04F303F0FF00DE
:1007D00001F0FF01FDE80445A0EB0100704724BAD9
:1007E000B4FA84F424F0070426FA04F1DDE9026780
:1007F00022FA04F202F0FF0001F0FF01FDE80445D7
:10080000A0EB0100704714F0030F3CD110F003047B
:1008100028D150F8082B51F8083B82FA4CF582EAAF
:100820000305A5FA8CF55DB950F8042C51F8043C89
:1008300082FA4CF582EA0305A5FA8CF5002DE8D082
:100840002DBAB5FA85F424F0070423FA04F122FA4C
:1008500004F202F0FF0001F0FF01FDE80445A0EB07
:10086000010070474FEAC40420F0030050F8082B41
:1008700021F0030151F8083B0CFA04F462EA040287
:1008800063EA0403C9E710F003041DD0A1EB0401DF
:1008900020F00300E40750F8042B06D012D28B7826
:1008A0005FFAA2F4E41A06D12BB1CB785FFAB2F466
:1008B000E41A00D133B920465DF8104B7047A2EB23
:1008C0000300704701F1040150F8042BCC0721F01C
:1008D000030151F8043B48D824D222F07F4482FA25
:1008E0004CF594EA1325A5FA8CF50AD165B951F8AF
:1008F000043B84EA0204B4EB036F0ED150F8042BDE
:10090000EBE74FEA132355E035F07F454DD10878EA
:10091000FDE80445C0F1000070474FEA126203F0A1
:10092000FF0347E002EA1C4482FA4CF594EA1345BF
:10093000A5FA8CF50AD165B951F8043B84EA0204A2
:10094000B4EB034F0CD150F8042BEBE74FEA134301
:1009500030E015EA1C4528D10B884FEA124229E005
:100960004FEA124203EA1C4324E002F0FF0482FA39
:100970004CF594EA1365A5FA8CF50AD165B951F8DE
:10098000043B84EA0204B4EB032F09D150F8042B92
:10099000EBE74FEA13630DE015F0FF0F05D10B688D
:1009A0004FEA122223F07F4304E04FF00000FDE8FD
:1009B0000445704712BA1BBA82FA4CF482EA030467
:1009C000A4FA8CF5B5FA85F402FA04F203FA04F3FA
:1009D0004FEA1260FDE80445A0EB1360704700BFCA
:1009E00001F0FF01102A2BDB10F0070F08D010F8E0
:1009F000013B013A8B422DD010F0070F42B3F6D1E4
:100A0000F0B441EA012141EA014122F007047FF0FC
:100A100000070023F0E80256083C85EA010586EA53
:100A2000010685FA47F5A3FA87F586FA47F6A5FA8F
:100A300087F68EB9EED1F0BC01F0FF0102F007029B
:100A400032B110F8013B013A83EA010313B1F8D146
:100A50000020704701387047002D06BF3546033827
:100A6000073815F0010F07D1013015F4807F02BF60
:100A7000013015F4C03F0130F0BC0138704700BFB1
:100A8000844641EA000313F003036DD1403A41D399
:100A900051F8043B40F8043B51F8043B40F8043B58
:100AA00051F8043B40F8043B51F8043B40F8043B48
:100AB00051F8043B40F8043B51F8043B40F8043B38
:100AC00051F8043B40F8043B51F8043B40F8043B28
:100AD00051F8043B40F8043B51F8043B40F8043B18
:100AE00051F8043B40F8043B51F8043B40F8043B08
:100AF00051F8043B40F8043B51F8043B40F8043BF8
:100B000051F8043B40F8043B51F8043B40F8043BE7
:100B1000403ABDD2303211D351F8043B40F8043B87
:100B200051F8043B40F8043B51F8043B40F8043BC7
:100B300051F8043B40F8043B103AEDD20C3205D397
:100B400051F8043B40F8043B043AF9D2043208D08F
:100B5000D2071CBF11F8013B00F8013B01D30B8801
:100B600003806046704700BF082A13D38B078DD0DF
:100B700010F003038AD0C3F10403D21ADB071CBFB1
:100B800011F8013B00F8013B80D331F8023B20F81B
:100B9000023B7BE7043AD9D3013A11F8013B00F854
:100BA000013BF9D20B7803704B7843708B788370DC
:100BB00060467047000000000000000000000000D8
:100BC00030B490F800F020F007016FF0000C10F046
:100BD000070491F820F040F048804FF000046FF0D7
:100BE0000700D1E9002391F840F000F1080082FAF3
:100BF0004CF2A4FA8CF283FA4CF3A2FA8CF34BBBBE
:100C0000D1E9022382FA4CF200F10800A4FA8CF236
:100C100083FA4CF3A2FA8CF3E3B9D1E9042382FA04
:100C20004CF200F10800A4FA8CF283FA4CF3A2FA19
:100C30008CF37BB9D1E9062301F1200182FA4CF251
:100C400000F10800A4FA8CF283FA4CF3A2FA8CF3B8
:100C5000002BC6D0002A04BF04301A4612BAB2FADA
:100C600082F200EBD20030BC7047D1E9002304F0DF
:100C70000305C4F100004FEAC50514F0040F91F814
:100C800040F00CFA05F562EA05021CBF63EA0503B1
:100C900062464FF00004AAE770B54FF0FF0C4CF429
:100CA000E06C1CEA11541DBF1CEA135594EA0C0FAA
:100CB00095EA0C0F00F0DEF82C4481EA030621EAE5
:100CC0004C5123EA4C5350EA013518BF52EA033520
:100CD00041F4801143F4801338D0A0FB02CE4FF0D2
:100CE0000005E1FB02E506F00042E0FB03E54FF002
:100CF0000006E1FB03569CF0000F18BF4EF0010EFA
:100D0000A4F1FF04B6F5007F64F5407404D25FEAF5
:100D10004E0E6D4146EB060642EAC62141EA5551A8
:100D20004FEAC52040EA5E504FEACE2EB4F1FD0CEA
:100D300088BFBCF5E06F1ED8BEF1004F08BF5FEA68
:100D4000500E50F1000041EB045170BD06F000461A
:100D500046EA010140EA020081EA0301B4EB5C04C7
:100D6000C2BFD4EB0C0541EA045170BD41F48011BF
:100D70004FF0000E013C00F3AB8014F1360FDEBFE4
:100D8000002001F0004170BDC4F10004203C35DAC0
:100D90000C341BDC04F11404C4F1200500FA05F343
:100DA00020FA04F001FA05F240EA020001F00042E4
:100DB00021F0004110EBD37021FA04F642EB06015A
:100DC0005EEA430E08BF20EAD37070BDC4F10C0484
:100DD000C4F1200500FA04F320FA05F001FA04F248
:100DE00040EA020001F0004110EBD37041F1000134
:100DF0005EEA430E08BF20EAD37070BDC4F120053F
:100E000000FA05F24EEA020E20FA04F301FA05F2A6
:100E100043EA020321FA04F001F0004121FA04F24E
:100E200020EA020000EBD3705EEA430E08BF20EA1E
:100E3000D37070BD94F0000F0FD101F00046400058
:100E400041EB010111F4801F08BF013CF7D041EADA
:100E5000060195F0000F18BF704703F000465200DE
:100E600043EB030313F4801F08BF013DF7D043EAAF
:100E70000603704794EA0C0F0CEA135518BF95EA65
:100E80000C0F0CD050EA410618BF52EA4306D1D1EC
:100E900081EA030101F000414FF0000070BD50EA0B
:100EA000410606BF1046194652EA430619D094EA95
:100EB0000C0F02D150EA013613D195EA0C0F05D17F
:100EC00052EA03361CBF104619460AD181EA0301D3
:100ED00001F0004141F0FE4141F470014FF000008B
:100EE00070BD41F0FE4141F4780170BD70B54FF026
:100EF000FF0C4CF4E06C1CEA11541DBF1CEA1355A6
:100F000094EA0C0F95EA0C0F00F0A7F8A4EB050487
:100F100081EA030E52EA03354FEA013100F088807E
:100F20004FEA03334FF0805545EA131343EA126347
:100F30004FEA022245EA111545EA10654FEA0026FC
:100F40000EF000419D4208BF964244F1FD0404F5B5
:100F5000407402D25B084FEA3202B61A65EB030511
:100F60005B084FEA32024FF480104FF4002CB6EBCE
:100F7000020E75EB030E22BFB61A754640EA0C004E
:100F80005B084FEA3202B6EB020E75EB030E22BF8E
:100F9000B61A754640EA5C005B084FEA3202B6EBCF
:100FA000020E75EB030E22BFB61A754640EA9C008E
:100FB0005B084FEA3202B6EB020E75EB030E22BF5E
:100FC000B61A754640EADC0055EA060E18D04FEA1C
:100FD000051545EA16754FEA06164FEAC30343EABC
:100FE00052734FEAC2025FEA1C1CC0D111F4801F89
:100FF0000BD141EA00014FF000004FF0004CB6E782
:1010000011F4801F04BF01430020B4F1FD0C88BF20
:10101000BCF5E06F3FF6AFAEB5EB030C04BFB6EB2B
:10102000020C5FEA500C50F1000041EB045170BD1E
:101030000EF0004E4EEA113114EB5C04C2BFD4EB4B
:101040000C0541EA045170BD41F480114FF0000ECF
:10105000013C90E645EA060E8DE60CEA135594EA4B
:101060000C0F08BF95EA0C0F3FF43BAF94EA0C0F4E
:101070000AD150EA01347FF434AF95EA0C0F7FF4C3
:1010800025AF104619462CE795EA0C0F06D152EA17
:1010900003353FF4FDAE1046194622E750EA4106FB
:1010A00018BF52EA43067FF4C5AE50EA41047FF40C
:1010B0000DAF52EA43057FF4EBAE12E74FF0FF3C71
:1010C00006E000BF4FF0010C02E000BF4FF0010C42
:1010D0004DF804CD4FEA410C7FEA6C5C4FEA430CBB
:1010E00018BF7FEA6C5C1BD001B050EA410C0CBF0A
:1010F00052EA430C91EA030F02BF90EA020F00206C
:10110000704710F1000F91EA030F58BF994208BFD2
:1011100090422CBFD8176FEAE37040F0010070478F
:101120004FEA410C7FEA6C5C02D150EA013C07D1E6
:101130004FEA430C7FEA6C5CD6D152EA033CD3D031
:101140005DF8040B704700BF8446104662468C462B
:101150001946634600E000BF01B5FFF7B7FF00285E
:1011600048BF10F1000F01BD4DF808EDFFF7F4FF87
:101170000CBF012000205DF808FB00BF4DF808ED12
:10118000FFF7EAFF34BF012000205DF808FB00BF35
:101190004DF808EDFFF7E0FF94BF012000205DF857
:1011A00008FB00BF4DF808EDFFF7CEFF94BF01200C
:1011B00000205DF808FB00BF4DF808EDFFF7C4FF05
:1011C00034BF012000205DF808FB00BF4FEA410C4E
:1011D0007FEA6C5C02D150EA013C0AD14FEA430C31
:1011E0007FEA6C5C02D152EA033C02D14FF000006E
:1011F00070474FF0010070474FEA410212F50012AC
:1012000015D211D56FF47873B3EB625212D94FEA4D
:10121000C12343F0004343EA505311F0004F23FA37
:1012200002F018BF404270474FF00000704750EA8C
:10123000013005D111F0004008BF6FF00040704749
:101240004FF00000704700BF0348044B834202D0B8
:10125000034B03B118477047D8060020D80600207A
:10126000000000000548064B1B1AD90F01EBA30133
:10127000491002D0034B03B118477047D80600202D
:10128000D80600200000000010B5064C237843B9B2
:10129000FFF7DAFF044B13B10448AFF300800123DA
:1012A000237010BDD8060020000000002035010882
:1012B00008B5054B1BB105490548AFF30080BDE8F3
:1012C0000840FFF7CFBF00BF00000000DC06002091
:1012D0002035010880B483B000AF7860044A7B6891
:1012E0001A607B6818460C37BD465DF8047B704772
:1012F0008435010880B586B000AFF860B9607A60C7
:10130000B86802F0B2FC0346FB7597F91730002B62
:1013100011DBFB681A68BB68DB431A40FB681A6084
:10132000FB681A6897F91730796801FA03F31A43D2
:10133000FB681A6000E000BF1837BD4680BD80B46E
:1013400000AF01231846BD465DF8047B704780B5A9
:1013500082B000AF786039600DF0ACF80346162219
:101360001A604FF0FF3318460837BD4680BD80B580
:1013700082B000AF78604FF0FF317868FFF7E7FF89
:10138000FEE780B586B000AFF860B9607A600023F0
:101390007B610AE0AFF300800146BB685A1CBA606B
:1013A000CAB21A707B6901337B617A697B689A42A1
:1013B000F0DB7B6818461837BD4680BD80B586B027
:1013C00000AFF860B9607A6000237B6109E0BB6818
:1013D0005A1CBA601B781846AFF300807B69013352
:1013E0007B617A697B689A42F1DB7B681846183723
:1013F000BD4680BD80B483B000AF78604FF0FF334E
:1014000018460C37BD465DF8047B704780B483B046
:1014100000AF786039603B684FF400525A60002397
:1014200018460C37BD465DF8047B704780B483B026
:1014300000AF7860012318460C37BD465DF8047B89
:10144000704780B485B000AFF860B9607A6000235F
:1014500018461437BD465DF8047B704780B586B0EA
:1014600000AF7860144A154BD31A7B617B693B61EE
:10147000134B1B68002B02D1114B124A1A60104B00
:101480001A687B6813443A699A4207D20DF012F841
:1014900003460C221A604FF0FF3309E0084B1B682B
:1014A000FB60074B1A687B681344054A1360FB68AE
:1014B00018461837BD4680BD00000220008000009D
:1014C000F8060020085C0020DFF830D00C480D49F9
:1014D0000D4A002302E0D458C4500433C4188C428F
:1014E000F9D30A4A0A4C002301E013600432A242F5
:1014F000FBD30CF0E5FF02F0BBF9704700000220BF
:1015000000000020D80600200C560108D806002054
:10151000045C0020FEE7000080B483B000AF786078
:10152000044A7B681A607B6818460C37BD465DF834
:10153000047B7047E035010880B582B000AF786069
:101540007B681846FFF7E8FF034A7B681A607B68F0
:1015500018460837BD4680BD1037010880B584B0F5
:1015600000AFF8603B1D83E80600FB6803F108004C
:101570003B1D93E8060000F061F8FB681846FFF792
:10158000DBFF0A4AFB681A60FB68DB681846FB68E9
:101590001B7A5B00032202FA03F301221946FFF7CC
:1015A000A9FEFB6818461037BD4680BDD03501083E
:1015B00080B483B000AF78607B68DB685B697A6871
:1015C000127A114601228A401340002B14BF0123D6
:1015D0000023DBB218460C37BD465DF8047B70472C
:1015E00080B582B000AF78600B46FB707B68FA78FC
:1015F0001146184600F085F9FB78002B0DD07B686A
:10160000DB689A697B681B7A194601238B4019466F
:101610007B68DB680A439A610DE07B68DB689A6946
:101620007B681B7A1033012101FA03F319467B68AA
:10163000DB680A439A610837BD4680BD80B485B037
:1016400000AFF8603B1D83E806007A68FB685A60CB
:101650003A7AFB681A70FB681B780F2B02D9FB687B
:1016600000221A70FB685B68374A934206D1374BF9
:101670001B6B364A43F0010313635EE0FB685B6853
:10168000334A934206D1314B1B6B304A43F002037D
:10169000136352E0FB685B682E4A934206D12B4BE2
:1016A0001B6B2A4A43F00403136346E0FB685B6844
:1016B000294A934206D1254B1B6B244A43F0080369
:1016C00013633AE0FB685B68244A934206D11F4BE0
:1016D0001B6B1E4A43F0100313632EE0FB685B682C
:1016E0001F4A934206D1194B1B6B184A43F0200343
:1016F000136322E0FB685B68194A934206D1134BDF
:101700001B6B124A43F04003136316E0FB685B68EF
:10171000134A934206D10D4B1B6B0C4A43F08003D6
:1017200013630AE0FB685B680D4A934205D1074BDF
:101730001B6B064A43F480731363FB681846143727
:10174000BD465DF8047B704700000240003802404F
:101750000004024000080240000C02400010024059
:101760000014024080B584B000AFF8603B1D83E8F0
:101770000600FB68181D3B1D93E80600FFF75EFF9F
:10178000FB681846FFF7C8FE114AFB681A60FB6841
:101790009B681846FB681B795B00032202FA03F37F
:1017A00000221946FFF7A6FDFB689B6803F10C00B9
:1017B000FB681B795B00032202FA03F3012219463E
:1017C000FFF798FDFB6818461037BD4680BD00BF87
:1017D0004036010880B483B000AF78607B689B68B6
:1017E0001B697A681279114601228A401340002B46
:1017F0000CBF01230023DBB218460C37BD465DF851
:10180000047B704780B584B000AFF860381D80E875
:1018100006007B80FB687A881146184602F05AFB66
:10182000FB6803F110003B1D93E80600FFF796FEEE
:10183000FB6820331846FFF74DFD074AFB681A6026
:10184000064AFB681A61064AFB681A62FB6818467A
:101850001037BD4680BD00BF7C36010890360108B8
:10186000A036010890B583B000AF78607B68184659
:1018700002F044FB7B6803F110047B68184602F019
:1018800074FB034619462046FFF7AAFE00BF0C373B
:10189000BD4690BDA0F12000FFF7E4BF80B582B047
:1018A00000AF78600B46FB707B68FA7811461846EB
:1018B00002F03BFB00BF0837BD4680BDA0F1100021
:1018C000FFF7ECBF80B582B000AF78600B46FB70CD
:1018D0007B681B6808331B68FA781146786898475C
:1018E0007B6818460837BD4680BD80B483B000AF22
:1018F00078607B681B7918460C37BD465DF8047B21
:10190000704780B483B000AF78600B46FB707B6893
:10191000FA781A7100BF0C37BD465DF8047B70473A
:1019200090B583B000AF78607B681B6804331C6897
:101930007B681B681B6878689847034683F001033F
:10194000DBB219467868A04700BF0C37BD4690BD92
:1019500080B584B000AFF860381D80E806007B8059
:10196000FB687A881146184602F0D8F9FB6803F143
:1019700010003B1D93E80600FFF7F4FEFB681C33E4
:101980001846FFF7A7FC074AFB681A60064AFB687F
:101990001A61064AFB68DA61FB6818461037BD46D3
:1019A00080BD00BF3C370108503701085C37010893
:1019B00090B583B000AF78607C687B6810331846C0
:1019C000FFF708FF03461946204602F024FA7B6819
:1019D000184602F0B7F900BF0C37BD4690BDA0F124
:1019E0001C00FFF7E5BF80B582B000AF78607B6870
:1019F000184602F030FA034618460837BD4680BD47
:101A0000A0F11000FFF7EFBF80B485B000AFF86021
:101A1000B9607A60FB68043BFB60FB684FF0807242
:101A20001A60FB68043BFB60BB6823F00102FB68A3
:101A30001A60FB68043BFB600C4AFB681A60FB6899
:101A4000143BFB607A68FB681A60FB68043BFB6030
:101A5000FB686FF002021A60FB68203BFB60FB68CA
:101A600018461437BD465DF8047B7047711A0008AC
:101A700080B483B000AF00233B604FF05F0383F37B
:101A80001188BFF36F8FBFF34F8F7B6000BF00BF24
:101A90003B68002BFCD000BF00BF0C37BD465DF893
:101AA000047B704700000000000000000000000000
:101AB000074B19680868B0E8F04F80F30988BFF356
:101AC0006F8F4FF0000080F311887047AFF30080F4
:101AD0001857002000BF00BF08480068006880F366
:101AE00008884FF0000080F3148862B661B6BFF337
:101AF0004F8FBFF36F8F00DF00BF000008ED00E0E5
:101B000000BF00BF80B500AF104B1B680F4A43F405
:101B10007F0313600D4B1B680C4A43F07F43136037
:101B200000F0A4F80A4B00221A6000F0BBF8094B41
:101B30001B68084A43F040431360FFF7CDFF01F0F4
:101B4000DBF8FFF795FF0023184680BD20ED00E08D
:101B50000800002034EF00E080B483B000AF4FF005
:101B60005F0383F31188BFF36F8FBFF34F8F7B60E9
:101B700000BF054B1B680133034A136000BF0C37DD
:101B8000BD465DF8047B70470800002080B483B038
:101B900000AF0A4B1B68013B084A1360074B1B68E8
:101BA000002B05D100237B607B6883F3118800BF85
:101BB00000BF0C37BD465DF8047B7047080000206D
:101BC000EFF30980BFF36F8F154B1A681EF0100FEB
:101BD00008BF20ED108A20E9F04F10602DE90900C0
:101BE0004FF05F0080F31188BFF34F8FBFF36F8F0B
:101BF00001F082F84FF0000080F3118809BC1968E9
:101C00000868B0E8F04F1EF0100F08BFB0EC108A63
:101C100080F30988BFF36F8F704700BFAFF3008078
:101C20001857002000BF00BF80B582B000AF4FF052
:101C30005F0383F31188BFF36F8FBFF34F8F7B6018
:101C400000BF00F04BFF0346002B03D0064B4FF0C4
:101C500080521A6000233B603B6883F3118800BF09
:101C600000BF0837BD4680BD04ED00E080B400AF82
:101C7000084B00221A60084B00221A60074B084AE2
:101C80001A60044B07221A6000BFBD465DF8047B52
:101C9000704700BF10E000E018E000E014E000E052
:101CA0001F480100DFF80C00016841F47001016079
:101CB0007047000088ED00E000BF00BF80B588B02D
:101CC00000AF786000237B6100F0FEFD434B1B6892
:101CD000002B01D100F0C6F87B68002B12D008223F
:101CE0007B6803F00703D31A08333B613B69DB438E
:101CF0007A689A4204D87A683B6913447B6001E0B1
:101D000000237B607B68002B60DB7B68002B5DD051
:101D1000334B1B687A689A4258D8324BBB61314BBF
:101D20001B68FB6104E0FB69BB61FB691B68FB612D
:101D3000FB695B687A689A4203D9FB691B68002BD0
:101D4000F1D1264B1B68FA699A423FD0BB691B68E8
:101D5000082213447B61FB691A68BB691A60FB693E
:101D60005A687B68D21A08235B009A420FD9FA6935
:101D70007B681344FB60FB695A687B68D21AFB6876
:101D80005A60FB697A685A60F86800F0C7F8144B2B
:101D90001A68FB695B68D31A114A1360104B1A6802
:101DA000114B1B689A4203D20D4B1B680E4A1360FD
:101DB000FB695B6843F00042FB695A60FB690022E3
:101DC0001A600A4B1B680133084A136000F08AFD51
:101DD0007B6918462037BD4680BD00BF04570020F0
:101DE00008570020FC5600200C57002010570020F8
:101DF00080B584B000AF78607B68FB607B68002BA7
:101E000027D008235B42FA681344FB60FB68BB6081
:101E1000BB685B68002B1CDABB681B68002B18D101
:101E2000BB685B6823F00042BB685A6000F04CFD61
:101E3000BB685A68094B1B681344084A1360B868AA
:101E400000F06CF8064B1B680133054A136000F084
:101E500049FD00BF1037BD4680BD00BF08570020B8
:101E60001457002080B485B000AF4FF4A043BB608E
:101E7000254BFB60FB6803F00703002B0CD0FB68CD
:101E80000733FB60FB6823F00703FB60BA68FB685D
:101E9000D31A1D4A1344BB60FB687B601B4A7B68F6
:101EA00013601A4B00225A607B68BA681344FB60C7
:101EB0000822FB689B1AFB60FB6823F00703FB60AA
:101EC000FB68134A1360124B1B6800225A60104BC8
:101ED0001B6800221A607B683B603B68FA68D21A74
:101EE0003B685A600A4B1A683B681A603B685B683B
:101EF000084A13603B685B68074A136000BF1437E9
:101F0000BD465DF8047B7047FC060020FC560020AF
:101F1000045700200C5700200857002080B485B0DB
:101F200000AF7860284BFB6002E0FB681B68FB6039
:101F3000FB681B687A689A42F7D8FB68BB60FB684D
:101F40005B68BA6813447A689A4208D1FB685A6899
:101F50007B685B681A44FB685A60FB687B607B683F
:101F6000BB607B685B68BA681A44FB681B689A426E
:101F700018D1FB681A68154B1B689A420DD07B6814
:101F80005A68FB681B685B681A447B685A60FB6888
:101F90001B681A687B681A6008E00C4B1A687B683B
:101FA0001A6003E0FB681A687B681A60FA687B684D
:101FB0009A4202D0FB687A681A6000BF1437BD46A7
:101FC0005DF8047B704700BFFC56002004570020DA
:101FD00080B483B000AF78607B6803F108027B684F
:101FE0005A607B684FF0FF329A607B6803F1080209
:101FF0007B68DA607B6803F108027B681A617B68A2
:1020000000221A6000BF0C37BD465DF8047B7047A4
:1020100080B483B000AF78607B6800221A6100BF93
:102020000C37BD465DF8047B704780B485B000AFC7
:10203000786039603B681B68BB60BB68B3F1FF3FE9
:1020400003D17B681B69FB600CE07B680833FB6095
:1020500002E0FB685B68FB60FB685B681B68BA6852
:102060009A42F6D2FB685A683B685A603B685B68E4
:102070003A689A603B68FA689A60FB683A685A6006
:102080003B687A681A617B681B685A1C7B681A6017
:1020900000BF1437BD465DF8047B704780B485B03F
:1020A00000AF78607B681B69FB607B685B687A685F
:1020B00092689A607B689B687A6852685A60FB688D
:1020C0005B687A689A4203D17B689A68FB685A60B9
:1020D0007B6800221A61FB681B685A1EFB681A6045
:1020E000FB681B6818461437BD465DF8047B7047D3
:1020F00080B584B000AF786039600123FB607B68F5
:10210000BB60BB68002B5DD0BB68DB6B002B59D07C
:10211000BB681A6CBB68DB6B0021A3FB0223002B9E
:1021200000D001210B46002B4CD1FFF715FDBB68F9
:102130001A68BB68DB6BB968096C01FB03F31A44CE
:10214000BB689A60BB6800229A63BB681A68BB6868
:102150005A60BB681A68BB68DB6B013BB968096CE5
:1021600001FB03F31A44BB68DA60BB68FF2283F803
:102170004420BB68FF2283F845203B68002B14D124
:10218000BB681B69002B1AD0BB681033184600F0DF
:102190006DFE0346002B12D00E4B4FF080521A609A
:1021A000BFF34F8FBFF36F8F09E0BB681033184642
:1021B000FFF70EFFBB6824331846FFF709FFFFF750
:1021C000E5FC01E00023FB60FB6818461037BD46C4
:1021D00080BD00BF04ED00E080B58AB002AFF860BA
:1021E000B9601346FB710023FB61FB68002B2DD007
:1021F0000021BA68FB68A3FB0223002B00D0012159
:102200000B46002B22D1FB68BA6802FB03F313F1E3
:10221000510F1BD8FB68BA6802FB03F3BB61BB69B3
:1022200050331846FFF74AFDF861FB69002B0DD0CB
:10223000FB697B617B6950337B61FA79FB690093B1
:1022400013467A69B968F86800F005F8FB69184622
:102250002037BD4680BD80B584B000AFF860B9605E
:102260007A60FB70BB68002B03D1BB69BA691A6046
:1022700002E0BB697A681A60BB69FA68DA63BB6915
:10228000BA681A640121B869FFF732FFBB69FA78AE
:1022900083F84C2000BF1037BD4680BD80B58AB0A2
:1022A00000AFF860B9607A6000237B62FB683B6234
:1022B000FFF752FC3B6A9B6BFB61FB69002B1FD055
:1022C000B968386A00F08CF8FB695A1E3B6A9A6359
:1022D0003B6A1B69002B0FD03B6A1033184600F095
:1022E000C5FD0346002B07D03C4B4FF080521A60CF
:1022F000BFF34F8FBFF36F8FFFF748FC012369E0F7
:102300007B68002B03D1FFF741FC002362E07B6A6E
:10231000002B06D107F11403184600F06FFE0123CD
:102320007B62FFF733FC00F0CFFAFFF715FC3B6A46
:1023300093F844305BB2B3F1FF3F03D13B6A002214
:1023400083F844203B6A93F845305BB2B3F1FF3F1A
:1023500003D13B6A002283F84520FFF717FC3A1DA2
:1023600007F114031146184600F05EFE0346002BE9
:1023700023D1386A00F0ACF80346002B17D03B6A33
:1023800024337A681146184600F022FD386A00F0BE
:102390004DF800F0A7FA0346002B89D10F4B4FF000
:1023A00080521A60BFF34F8FBFF36F8F80E7386A98
:1023B00000F03CF800F096FA7AE7386A00F036F858
:1023C00000F090FA386A00F083F80346002B3FF4DF
:1023D0006FAF002318462837BD4680BD04ED00E0EE
:1023E00080B582B000AF786039607B681B6C002BD1
:1023F00018D07B68DA687B681B6C1A447B68DA60EB
:102400007B68DA687B689B689A4203D37B681A68AA
:102410007B68DA607B68D9687B681B6C1A46386811
:10242000FEF72EFB00BF0837BD4680BD80B584B0E7
:1024300000AF7860FFF790FB7B6893F84530FB7343
:1024400011E07B685B6A002B12D07B68243318464E
:1024500000F00CFD0346002B01D000F02FFEFB7BAB
:10246000013BDBB2FB7397F90F30002BE9DC00E096
:1024700000BF7B68FF2283F84520FFF787FBFFF74B
:102480006BFB7B6893F84430BB7311E07B681B697E
:10249000002B12D07B681033184600F0E7FC03468F
:1024A000002B01D000F00AFEBB7B013BDBB2BB730B
:1024B00097F90E30002BE9DC00E000BF7B68FF22BB
:1024C00083F84420FFF762FB00BF1037BD4680BD94
:1024D00080B584B000AF7860FFF73EFB7B689B6BF4
:1024E000002B02D10123FB6001E00023FB60FFF71A
:1024F0004DFBFB6818461037BD4680BD80B586B0E1
:1025000000AFF860B9607A60FB687B61FFF724FB7D
:102510007B6993F844305BB2B3F1FF3F03D17B6931
:10252000002283F844207B6993F845305BB2B3F115
:10253000FF3F03D17B69002283F84520FFF726FB8C
:102540007B699B6B002B06D17B6924337A68B96861
:10255000184600F053FC7869FFF768FF00BF183792
:10256000BD4680BD80B58CB004AFF860B9603B60FB
:102570001346FB80FB889B001846FFF79FFB7861A2
:102580007B69002B13D05820FFF798FBF861FB699B
:10259000002B08D058220021F8690BF0E1FDFB69FF
:1025A0007A691A6305E07869FFF722FC01E00023ED
:1025B000FB61FB69002B13D0FA8800230393FB69AE
:1025C0000293FB6A0193BB6A00933B68B968F868A1
:1025D00000F00EF8F86900F07BF80123BB6102E01F
:1025E0004FF0FF33BB61BB6918462037BD4680BD45
:1025F00080B586B000AFF860B9607A603B60BB6AB6
:10260000186B7B689B001A46A5210BF0A9FDBB6ADD
:102610001A6B7B6803F18043013B9B0013443B61D1
:102620003B6923F007033B61BB68002B1ED00023EE
:102630007B6112E0BA687B6913441978BA6A7B69D6
:10264000134434330A461A70BA687B6913441B7802
:10265000002B06D07B6901337B617B69092BE9D9AB
:1026600000E000BFBB6A002283F83D203B6A042BD8
:1026700001D904233B62BB6A3A6ADA62BB6A3A6AEE
:102680009A64BB6A04331846FFF7C2FCBB6A18336E
:102690001846FFF7BDFCBB6ABA6A1A613B6AC3F110
:1026A0000502BB6A9A61BB6ABA6A5A623A68F968FB
:1026B0003869FFF7A9F90246BB6A1A607B6A002BEA
:1026C00002D07B6ABA6A1A6000BF1837BD4680BD67
:1026D00080B584B000AF7860FFF73EFA404B1B68CE
:1026E00001333F4A13603F4B1B68002B09D13D4A21
:1026F0007B6813603A4B1B68012B10D100F004FD7E
:102700000DE0394B1B68002B09D1364B1B68DA6A88
:102710007B68DB6A9A4202D8324A7B681360334B8B
:102720001B680133314A1360304B1A687B681A64A6
:102730007B68DB6A01229A402D4B1B6813432C4AAD
:1027400013607B68DA6A2B4913469B0013449B0095
:102750000B4404331B68FB607B68FA689A60FB6873
:102760009A687B68DA60FB689B687A6804325A6012
:102770007B681A1DFB689A607B68DA6A13469B00C7
:1027800013449B001B4A1A447B685A617B68DA6ACF
:10279000184913469B0013449B000B441B68591CAB
:1027A000144813469B0013449B0003441960FFF731
:1027B000EDF90D4B1B68002B0ED00A4B1B68DA6A33
:1027C0007B68DB6A9A4207D20B4B4FF080521A604B
:1027D000BFF34F8FBFF36F8F00BF1037BD4680BD73
:1027E000F057002018570020FC5700200C580020FC
:1027F000F85700201C57002004ED00E080B584B09D
:1028000000AF78600023FB607B68002B08D000F0ED
:102810005BF80021786800F011FD00F063F8F860C3
:10282000FB68002B07D1064B4FF080521A60BFF3B4
:102830004F8FBFF36F8F00BF1037BD4680BD00BF05
:1028400004ED00E080B584B002AF184B0193002383
:1028500000930023802216491648FFF783FE786014
:102860007B68012B02D100F069FD78607B68012B49
:1028700015D14FF05F0383F31188BFF36F8FBFF360
:102880004F8F3B6000BF0C4B4FF0FF321A600B4B79
:1028900001221A600A4B00221A60FFF733F9094B34
:1028A0001B6800BF0837BD4680BD00BF145800201C
:1028B00038350108D530000810580020FC5700209A
:1028C000F4570020A037010880B400AF044B1B6808
:1028D0000133034A136000BFBD465DF8047B7047B7
:1028E0001858002080B586B000AF00237B6100231C
:1028F0003B61FFF731F9684B1B68013B664A136087
:10290000654B1B68002B40F0C080644B1B68002B9C
:1029100000F0BB808AE0624BDB68DB687B617B692F
:102920009B6ABB607B69DB697A69126A9A607B6922
:102930001B6A7A69D2695A60BB685A687B69183326
:102940009A4203D17B691A6ABB685A607B6900228C
:102950009A62BB681B685A1EBB681A607B695B6918
:102960007B607B699B687A69D2689A607B69DB6867
:102970007A6992685A607B685A687B6904339A4224
:1029800003D17B69DA687B685A607B6900225A61EF
:102990007B681B685A1E7B681A607B69DB6A0122B0
:1029A0009A40404B1B6813433E4A13607B69DA6AC6
:1029B0003D4913469B0013449B000B4404331B68A2
:1029C0003B607B693A689A603B689A687B69DA6029
:1029D0003B689B687A6904325A607B691A1D3B68C0
:1029E0009A607B69DA6A13469B0013449B002E4A67
:1029F0001A447B695A617B69DA6A2B4913469B004A
:102A000013449B000B441B68591C274813469B002A
:102A100013449B00034419607B69DA6A234B1B68EB
:102A2000DB6A9A4202D3224B01221A601C4B1B68BC
:102A3000002B7FF470AF7B69002B01D000F0E2FB2C
:102A40001C4B1B68FB60FB68002B10D000F046F8A5
:102A50000346002B02D0164B01221A60FB68013B93
:102A6000FB60FB68002BF1D1124B00221A60104B67
:102A70001B68002B09D001233B610F4B4FF08052A4
:102A80001A60BFF34F8FBFF36F8FFFF77FF83B697B
:102A900018461837BD4680BD18580020F057002052
:102AA000B0570020F85700201C570020185700206E
:102AB000045800200058002004ED00E080B483B0EA
:102AC00000AF054B1B687B607B6818460C37BD4622
:102AD0005DF8047B704700BFF457002080B588B0D4
:102AE00000AF0023FB61794B1B68002B40F0E280B4
:102AF000774B1B680133BB61754ABB691360BB69C7
:102B0000002B10D1734B1B687B61734B1B68714AA0
:102B10001360714A7B691360704B1B6801336F4A05
:102B2000136000F06FFB6E4B1B68BA699A42C0F0ED
:102B3000A680684B1B681B68002B04D1684B4FF0C4
:102B4000FF321A609BE0634B1B68DB68DB683B610C
:102B50003B695B68FB60BA69FB689A4203D2604AD2
:102B6000FB6813608BE03B695B69BB603B699B68FA
:102B70003A69D2689A603B69DB683A6992685A6040
:102B8000BB685A683B6904339A4203D13B69DA68EF
:102B9000BB685A603B6900225A61BB681B685A1EB9
:102BA000BB681A603B699B6A002B1ED03B699B6A1D
:102BB0007B603B69DB693A69126A9A603B691B6A10
:102BC0003A69D2695A607B685A683B6918339A42FD
:102BD00003D13B691A6A7B685A603B6900229A629A
:102BE0007B681B685A1E7B681A603B69DB6A01229E
:102BF0009A403C4B1B6813433A4A13603B69DA6ABC
:102C0000394913469B0013449B000B4404331B6853
:102C10003B603B693A689A603B689A683B69DA6056
:102C20003B689B683A6904325A603B691A1D3B68ED
:102C30009A603B69DA6A13469B0013449B002A4A58
:102C40001A443B695A613B69DA6A274913469B007B
:102C500013449B000B441B68591C234813469B00DC
:102C600013449B00034419603B69DA6A1F4B1B68DD
:102C7000DB6A9A427FF65DAF0123FB6159E71B4B8C
:102C80001B68DA6A184913469B0013449B000B44E7
:102C90001B68012B01D90123FB61154B1B68002B1D
:102CA00001D100F0ACFD134B1B68002B09D00123B0
:102CB000FB6106E00E4B1B6801330D4A136000F008
:102CC0009EFDFB6918462037BD4680BD1858002080
:102CD000F4570020A8570020AC57002008580020C7
:102CE00010580020F85700201C57002018570020CB
:102CF000005800200458002080B586B000AF2F4B4C
:102D00001B68002B03D02E4B01221A6051E02C4B84
:102D100000221A602B4B1B681B6B7B614FF0A533A5
:102D20003B617B691B683A699A4211D17B69043324
:102D30001B683A699A420BD17B6908331B683A6970
:102D40009A4205D17B690C331B683A699A4208D0D4
:102D50001C4B1A681B4B1B6834331946104600F095
:102D600055FD194B1B687B607B68B3FA83F3FB70DE
:102D7000FB78C3F11F03FB60FA6813469B00134402
:102D80009B00124A1344BB60BB685B685A68BB680F
:102D90005A60BB685A68BB6808339A4204D1BB6862
:102DA0005B685A68BB685A60BB685B68DB68054A49
:102DB000136000BF1837BD4680BD00BF1858002003
:102DC0000458002018570020F85700201C570020F6
:102DD00080B582B000AF78603960074B1B6818334C
:102DE00019467868FFF721F90121386800F026FAC2
:102DF00000BF0837BD4680BD1857002080B586B09B
:102E000000AFF860B9607A60FB685B687B61164B65
:102E10001B687A69DA61144B1B687A6992681A62D6
:102E2000114B1A687B699B6818325A600E4B1B68FD
:102E300003F118027B699A600B4B1B68FA689A626F
:102E4000FB681B685A1CFB681A607B68002B02D069
:102E50004FF0FF33BB607968B86800F0EFF900BF4E
:102E60001837BD4680BD00BF1857002080B489B018
:102E700000AF78607B68DB68DB68BB61BB699B6A1D
:102E80007B61BB69DB69BA69126A9A60BB691B6ABC
:102E9000BA69D2695A607B695A68BB6918339A4229
:102EA00003D1BB691A6A7B695A60BB6900229A62C6
:102EB0007B691B685A1E7B691A604A4B1B68002B92
:102EC0005ED1BB695B69FB60BB699B68BA69D2680C
:102ED0009A60BB69DB68BA6992685A60FB685A6895
:102EE000BB6904339A4203D1BB69DA68FB685A6054
:102EF000BB6900225A61FB681B685A1EFB681A6096
:102F0000BB69DB6A01229A40374B1B681343364A80
:102F10001360BB69DA6A354913469B0013449B0072
:102F20000B4404331B68BB60BB69BA689A60BB681A
:102F30009A68BB69DA60BB689B68BA6904325A60F8
:102F4000BB691A1DBB689A60BB69DA6A13469B00AD
:102F500013449B00254A1A44BB695A61BB69DA6A6B
:102F6000224913469B0013449B000B441B68591CC9
:102F70001E4813469B0013449B00034419601BE04A
:102F80001B4B5B683B61BB693A69DA613B699A68D4
:102F9000BB691A623B699B68BA6918325A60BB699F
:102FA00003F118023B699A60BB69114A9A62104B9F
:102FB0001B6801330E4A1360BB69DA6A0D4B1B684C
:102FC000DB6A9A4205D90123FB610B4B01221A608F
:102FD00001E00023FB61FB6918462437BD465DF81C
:102FE000047B704718580020F85700201C57002019
:102FF000B0570020185700200458002080B483B038
:1030000000AF7860064B1A687B681A60054B1A6837
:103010007B685A6000BF0C37BD465DF8047B704783
:1030200008580020F457002080B586B000AF7860C3
:103030003960FEF791FD1F4B1B683B617B685B6845
:103040003A69D31AFB603B681B68B3F1FF3F02D1BA
:1030500000237B6126E07B681A68174B1B689A4245
:103060000AD07B685B683A699A4205D301237B6189
:103070003B6800221A6015E03B681B68FA689A42B8
:103080000BD23B681A68FB68D21A3B681A607868F2
:10309000FFF7B4FF00237B6104E03B6800221A6065
:1030A00001237B61FEF772FD7B6918461837BD4628
:1030B00080BD00BFF45700200858002080B400AF46
:1030C000034B01221A6000BFBD465DF8047B7047C8
:1030D0000458002080B582B000AF786000F054F84A
:1030E000074B1B68012B07D9064B4FF080521A6023
:1030F000BFF34F8FBFF36F8F00F07AFBEEE700BF97
:103100001C57002004ED00E080B582B000AF002322
:103110007B600CE07A6813469B0013449B00124AC4
:1031200013441846FEF754FF7B6801337B607B68CD
:10313000042BEFD90D48FEF74BFF0D48FEF748FF73
:103140000C48FEF745FF0C48FEF742FF0B48FEF720
:103150003FFF0B4B054A1A600A4B054A1A6000BF35
:103160000837BD4680BD00BF1C5700208057002097
:1031700094570020B0570020C4570020DC5700208F
:10318000A8570020AC57002080B582B000AF19E0EE
:10319000FEF7E2FC104BDB68DB687B607B68043386
:1031A0001846FEF77BFF0D4B1B68013B0B4A136073
:1031B0000B4B1B68013B0A4A1360FEF7E7FC78687B
:1031C00000F010F8064B1B68002BE1D100BF00BFD8
:1031D0000837BD4680BD00BFC4570020F05700200F
:1031E000D857002080B582B000AF78607B681B6B39
:1031F0001846FEF7FDFD7868FEF7FAFD00BF0837B8
:10320000BD4680BD80B400AF0A4B1B681B68002B15
:1032100004D1094B4FF0FF321A6005E0054B1B68E3
:10322000DB681B68044A136000BFBD465DF8047B81
:10323000704700BFA85700201058002080B586B006
:1032400000AF78603960364B1B687B61354B1B687B
:1032500004331846FEF722FF0346002B0BD1314BF7
:103260001B68DB6A012202FA03F3DA432E4B1B6868
:1032700013402D4A13607B68B3F1FF3F24D13B68B4
:10328000002B21D0294B5B683B61264B1B683A69B8
:103290009A60244B1B683A699268DA60214B1A687D
:1032A0003B699B6804325A601E4B1B681A1D3B69C0
:1032B0009A601C4B1B681D4A5A611C4B1B680133EA
:1032C0001A4A136000BF26E07A697B681344FB60EA
:1032D000144B1B68FA685A60FA687B699A4209D2F3
:1032E000134B1A680F4B1B68043319461046FEF740
:1032F0009CFE10E00F4B1A680A4B1B6804331946FA
:103300001046FEF792FE0C4B1B68FA689A4202D2F6
:10331000094AFB68136000BF1837BD4680BD00BF77
:10332000F457002018570020F8570020DC570020E1
:10333000AC570020A85700201058002080B584B05A
:1033400002AF00237B6000F029FA0A4B1B68002BB8
:103350000BD0094B01930423009300234FF4807298
:1033600006490748FFF7FEF878607B68184608377B
:10337000BD4680BD4C580020505800204035010803
:103380002934000880B584B000AFF860B9607A6075
:1033900008E0FB689B69BA681344BB60FB681B6A62
:1033A000F8689847FB689A69BB68D118BB687A6867
:1033B000F86800F0DDF80346002BEAD100BF00BF3B
:1033C0001037BD4680BD000080B584B000AF786086
:1033D0003960144B1B68DB68DB68FB60FB680433F7
:1033E0001846FEF75BFEFB6893F8283003F00403F1
:1033F000002B05D03A687968F868FFF7C3FF08E04A
:10340000FB6893F8283023F00103DAB2FB6883F8F5
:103410002820FB681B6AF868984700BF1037BD4634
:1034200080BD00BF4458002080B584B000AF7860F4
:1034300007F10803184600F057F8F860BB68194612
:10344000F86800F003F800F0D5F8F1E780B584B033
:1034500000AF78603960FFF737FA07F108031846C4
:1034600000F066F8F860BB68002B30D13B68002B99
:103470000AD17A68FB689A4206D8FFF733FAF968EE
:103480007868FFF7A1FF24E03B68002B08D0134BBE
:103490001B681B68002B01D1012300E000233B6067
:1034A0000F4B18687A68FB68D31A3A681946FFF719
:1034B00025F8FFF717FA0346002B0AD1094B4FF006
:1034C00080521A60BFF34F8FBFF36F8F01E0FFF799
:1034D00009FA00BF1037BD4680BD00BF4858002024
:1034E0004C58002004ED00E080B485B000AF786057
:1034F0000E4B1B681B68002B01D1012200E000224B
:103500007B681A607B681B68002B05D1074B1B6822
:10351000DB681B68FB6001E00023FB60FB6818466A
:103520001437BD465DF8047B704700BF4458002047
:1035300080B584B000AF7860FFF7C0FAF8600B4B3D
:103540001B68FA689A4205D200F002F97B680122F2
:103550001A6002E07B6800221A60044AFB6813606C
:10356000FB6818461037BD4680BD00BF5458002088
:1035700080B586B000AFF860B9607A603B60002328
:103580007B61FB68BA685A60FB68FA681A61BA68BE
:103590007B689A4212D87A683B68D21AFB689B69AA
:1035A0009A4202D301237B611BE0104B1A68FB682F
:1035B000043319461046FEF738FD12E07A683B687E
:1035C0009A4206D2BA683B689A4202D301237B61D1
:1035D00007E0074B1A68FB68043319461046FEF7EC
:1035E00024FD7B6918461837BD4680BD4858002029
:1035F0004458002080B586B000AF97E07B68002B70
:10360000C0F29480FB687B617B695B69002B04D00E
:103610007B6904331846FEF741FD3B461846FFF729
:1036200087FF38617B68013B082B7ED801A252F8E6
:1036300023F000BF5936000859360008C13600088B
:10364000D5360008013700085936000859360008F9
:10365000C1360008D53600087B6993F8283043F05E
:103660000103DAB27B6983F82820BA687B699B6919
:10367000D118BB683A697869FFF77AFF0346002BD7
:1036800054D07B6993F8283003F00403002B09D051
:10369000BA687B699B6913443A6919467869FFF7F0
:1036A00071FE08E07B6993F8283023F00103DAB259
:1036B0007B6983F828207B691B6A7869984735E025
:1036C0007B6993F8283023F00103DAB27B6983F831
:1036D00028202BE07B6993F8283043F00103DAB20D
:1036E0007B6983F82820BA687B699A617B699A694B
:1036F0003B69D1183B693A697869FFF739FF15E0F2
:103700007B6993F8283003F00203002B03D178691A
:10371000FEF76EFB0AE07B6993F8283023F0010383
:10372000DAB27B6983F8282000E000BF074B1B68F2
:10373000391D00221846FEF7B1FD0346002B7FF429
:103740005DAF00BF00BF1837BD4680BD4C5800209C
:1037500080B582B000AF09E00E4B1B68DB681B68C8
:103760003B604FF0FF313868FFF72EFE094B1B68B6
:103770001B68002BF0D1074B1B687B60064B1B6856
:10378000044A1360044A7B68136000BF0837BD46D3
:1037900080BD00BF445800204858002080B500AFCD
:1037A000FEF7DAF90D4B1B68002B13D10C48FEF71E
:1037B0000FFC0C48FEF70CFC0B4B094A1A600B4B34
:1037C000084A1A6000220C210A20FEF705FD034674
:1037D000024A1360FEF7DAF900BF80BD4C580020A2
:1037E0001C58002030580020445800204858002021
:1037F00080B400AF00BFBD465DF8047B704780B465
:1038000000AF00BFBD465DF8047B704780B483B055
:1038100000AF78603960FEE780B582B000AF4FF04E
:1038200080431B694FF0804223F0010313610023A2
:103830007B600EE00C4A7B6852F823301B681B68E3
:1038400009497A6851F82220104698477B6801336D
:103850007B60064B1B781A467B689342EADB00BF0D
:1038600000BF0837BD4680BD0C00002018000020B6
:1038700080B582B002AF00F04FF900F0B1F900F06E
:1038800043F90023019301230093002380220D4973
:103890000D48FEF767FE00230193012300930023E8
:1038A00080220A490A48FEF75DFE002301930123A6
:1038B00000930023802207490748FEF753FEFEF7D6
:1038C000C1FFFEE748350108AD3C0008503501084E
:1038D000FD3C0008583501080D3D000880B582B058
:1038E00000AF78600B46FB707B6800221A707B6823
:1038F00000225A70FB781946012000F019F803469F
:103900001A467B681A70FB786FF06042934201D2CE
:103910009B0001E000F01AFD184601F00DF9034686
:103920001A467B685A607B6818460837BD4680BDDA
:1039300080B483B000AF03460A46FB711346BB71E7
:10394000FA79BB799A4201D9FB7900E0BB79184634
:103950000C37BD465DF8047B7047000080B586B02B
:1039600000AF1D4A3B4692E8030083E803004FF492
:103970007A733A4606CA1948FDF744FF184A07F118
:10398000080392E8030083E8030007F1080393E8C3
:1039900006001448FDF7E2FD134A07F1100392E810
:1039A000030083E803000A2307F1100206CA0F4848
:1039B000FDF7CEFF4FF47A710D4800F037FB0A2176
:1039C0000C48FFF78BFF0C4A0C490A4800F06EFBCD
:1039D00000BF1837BD4680BD643501085858002027
:1039E0006C3501087C580020743501088C58002083
:1039F000AC580020C058002000000020013A000808
:103A000080B582B000AF78607B685B68002B04D023
:103A10007B685B68184600F0CFFB7B681846083768
:103A2000BD4680BD80B500AFFFF798FF80BD0000A8
:103A300080B485B000AF78607B6803F00703FB605B
:103A40000C4BDB68BB60BA684FF6FF031340BB60EA
:103A5000FB681A02BB68134343F0BF6343F40033AF
:103A6000BB60044ABB68D36000BF1437BD465DF835
:103A7000047B704700ED00E080B483B000AF0346E4
:103A8000FB7197F90730002B0BDBFB7903F01F026A
:103A9000074997F907305B09012000FA02F241F863
:103AA000232000BF0C37BD465DF8047B704700BF84
:103AB00000E100E080B483B000AF03463960FB71E1
:103AC00097F90730002B0ADB3B68DAB20C4997F90B
:103AD00007301201D2B20B4483F800230AE03B689E
:103AE000DAB20849FB7903F00F03043B1201D2B2AA
:103AF0000B441A7600BF0C37BD465DF8047B704757
:103B000000E100E000ED00E080B500AF0420FFF729
:103B10008FFF00BF80BD000080B500AF2B4B1B683E
:103B20002A4A43F48033136000BF284B1B6803F418
:103B30000033002B0CBF01230023DBB2002BF4D198
:103B400045F219422249234800F076F81F4B5B6882
:103B50001E4A43F4800353601C4B1B681B4A43F00E
:103B60008073136000BF194B1B6803F00073002BB8
:103B70000CBF01230023DBB2002BF4D1164B1B68D2
:103B8000154A43F0050313604FF414424FF6F04119
:103B9000124800F051F80D4B9B680C4A43F00203A9
:103BA000936000BF094B9B6803F00803002B0CBF18
:103BB00001230023DBB2002BF4D1044B9B68034AA2
:103BC00023F00103936000BF80BD00BF00380240B6
:103BD000FF7F030004380240003C024008380240E6
:103BE00080B500AF134B1B6C124A43F00103136402
:103BF0004FF0804354229A624FF080434FF47A7220
:103C0000DA624FF08043DB684FF0804243F00103FB
:103C1000D3604FF080431B684FF0804243F00103B4
:103C200013601C20FFF728FF06211C20FFF742FF2E
:103C300000BF80BD0038024080B485B000AFF8609E
:103C4000B9607A60FB681A68BB68DB431A40FB689E
:103C50001A60FB681A687B681A43FB681A6000BF29
:103C60001437BD465DF8047B704780B485B000AF63
:103C700078600023FB600EE00122FB6802FA03F388
:103C80001A467B681340002B02D0FB685BB207E04A
:103C9000FB680133FB60FB681F2BEDDD4FF0FF334A
:103CA00018461437BD465DF8047B704780B582B076
:103CB00000AF786001210D4800F0E6F90C48FDF7EF
:103CC00092FE034619460B48FDF7FCFD074800F03D
:103CD00093F90346002B05D00748FDF721FE034862
:103CE00000F097F90120FEF789FDE7E7AC580020C6
:103CF0008C580020585800207C58002080B582B095
:103D000000AF78600120FEF779FDFBE780B582B057
:103D100000AF78600120FEF771FDFBE780B483B04F
:103D200000AF78603960064A7B681A607B683A6841
:103D30005A607B6818460C37BD465DF8047B7047B7
:103D4000AC37010880B582B000AF78607B681B6833
:103D50001B68786898470346002B0BD0786800F002
:103D60007AF80346002B0CD17B689B685A1C7B6851
:103D70009A6007E07B6800225A737B6800229A6091
:103D800000E000BF0837BD4680BD80B483B000AFFF
:103D900078607B6801221A7300BF0C37BD465DF85E
:103DA000047B704780B483B000AF78607B680022EA
:103DB0001A7300BF0C37BD465DF8047B704780B5B1
:103DC00082B000AF78607868FFF7ECFF786800F0A9
:103DD00004F800BF0837BD4680BD80B483B000AF93
:103DE00078607B6800229A607B6800225A7300BF6B
:103DF0000C37BD465DF8047B704780B582B000AFDC
:103E000078607868FFF7DBFF7868FFF7BEFF00BFD8
:103E10000837BD4680BD80B582B000AF78600B46E4
:103E2000FB70FB78002B03D07868FFF7AEFF02E051
:103E30007868FFF7C4FF00BF0837BD4680BD80B477
:103E400083B000AF78607B681B7B18460C37BD469B
:103E50005DF8047B704780B483B000AF78607B6806
:103E60009A687B685B689A422CBF01230023DBB20F
:103E700018460C37BD465DF8047B704780B483B0AC
:103E800000AF78607B689A687B685B689A4234BF51
:103E900001230023DBB218460C37BD465DF8047BD6
:103EA000704780B582B000AF78607B681B681B6884
:103EB000786898470346002B07D07868FFF7DEFF45
:103EC0000346002B01D0012300E0002318460837E9
:103ED000BD4680BD80B582B000AF786039607B6838
:103EE00039681846FFF71AFF034A7B681A607B6837
:103EF00018460837BD4680BDD037010880B582B06E
:103F000000AF78607B681846FFF7A5FF0346002BDB
:103F100003D07B681846FFF752FF7B681846FFF70F
:103F200011FF00BF0837BD4680BD80B582B000AF2D
:103F300078600B46FB70FB7883F00103DBB2002B4B
:103F400008D07B689B7B002B08D07B681846FFF766
:103F500054FF03E07B681846FFF731FF7B68FA786F
:103F60009A7300BF0837BD4680BD80B582B000AFF0
:103F700078607B689B7B002B06D17B681846FFF737
:103F800090FF0346002B01D0012300E000231846D8
:103F90000837BD4680BD000080B582B000AF7860B4
:103FA00039607B6839681846FFF7B8FE034A7B68BA
:103FB0001A607B6818460837BD4680BDF83701088F
:103FC00080B582B000AF78607B681846FFF7BAFE14
:103FD00000BF0837BD4680BD80B582B000AF7860B5
:103FE0000B46FB707B68FA7811461846FFF713FF03
:103FF00000BF0837BD4680BD80B582B000AF786095
:104000007B681846FFF727FF034618460837BD466A
:1040100080BD80B582B000AF78607B681846FFF73E
:10402000DCFE00BF0837BD4680BD000080B582B011
:1040300000AF786039607B6839681846FFF7ACFFDD
:104040007B6810331846FDF745F9054A7B681A600E
:10405000044A7B681A617B6818460837BD4680BDF4
:10406000DC370108EC37010880B582B000AF78601A
:104070007B681846FFF7A4FF00BF0837BD4680BD28
:10408000A0F11000FFF7F0BF80B582B000AF7860FC
:104090000B46FB707B68FA7811461846FFF79CFFC9
:1040A0007B6818460837BD4680BD000003460846B9
:1040B000194609F0FDBA00BF70B5036884B000244A
:1040C0009E690394102315460293CDE900446B4684
:1040D0001268B0479DF8043003F00603062B03BFB7
:1040E000009B2B600120204604B070BD00989042D8
:1040F0000CBF06200120704710B5034B0360044637
:1041000000F0AAFD204610BD6038010810B5054B2F
:104110000360044600F0A0FD2046082100F04AF8A4
:10412000204610BD603801082DE9F041069F08992E
:10413000099E8F42044690461D460CD029462046D3
:1041400000F08EFD20B10123376086F80480B37142
:104150000020BDE8F081079900F082FD0028EDD035
:1041600086F805800020BDE8F08100BF38B515460F
:104170001C4600F075FD00B938BD082206232560F5
:10418000E260237138BD00BF2DE9F04106461746B5
:104190001D460C4600F064FD48B9032D07D823687E
:1041A0003A46314620465B69BDE8F0411847BDE814
:1041B000F08100BF07F0B2BB07F0B0BB1EB400F047
:1041C0008DF81EBCFCF746FAF0B50278472A83B09A
:1041D0000C461D4619D0264E0020336801909B687E
:1041E0003046984778B1019B1B68019302272368EA
:1041F000314620461E6901AA0123B04738BB074655
:10420000384603B0F0BD0127F1E743784E2BE2D1E9
:104210008378552BDFD1C378432BDCD10379462B30
:104220001AD0432BD7D143792B2BD4D183792B2B85
:10423000D1D1C379012BCED850F8206C4FF00003B8
:1042400001930ABF3046583056F8786CC5E7019B99
:104250002B60384603B0F0BD43794F2BBBD1837937
:10426000522BB8D1C0790028B5D1024EB5E700BFB6
:10427000AC4401088044010810B5044600F08AF8F7
:10428000224612F82039472B04D0836823BB826072
:10429000012010BD63784E2BF7D1A378552BF4D1B4
:1042A000E378432BF1D12379432BEED163792B2B88
:1042B000EBD1A3792B2BE8D1E379012BE5D854F886
:1042C000043C0133012B44F8043CE1D1836844F8F9
:1042D000083C8260012010BD00F052FB08B500F0E0
:1042E00059F8836883B393F82020472A04D000222A
:1042F000826003F1200008BD93F821204E2AF6D1F8
:1043000093F82220552AF2D193F82320432AEED1A4
:1043100093F82420432AEAD193F825202B2AE6D1CA
:1043200093F826202B2AE2D193F82720012ADED801
:10433000DA69013ADA61002ADBD1996981600022E9
:104340009A6103F1200008BD00F01AFB08B50420B3
:1043500007F052FB024B034A0349036000F07CFB69
:104360000046010889530008EC450108704700BF6A
:10437000704700BF004870478438010810B5042119
:104380000446FFF717FF204610BD00BF00487047E6
:10439000C858002000487047C8580020502870B501
:1043A0001DD0844600F00F000C2855D8DFE800F03F
:1043B000074426071E545454542A22071E00104650
:1043C00050F8046B4EB10CF07004102C08BF11466D
:1043D0000E441CF0800F18BF36681E6070BDD01CE4
:1043E00020F0030050F8046B1E6070BD104650F8BA
:1043F000086BE7E7104630F9026BE3E7104630F848
:10440000026BDFE700261046344610F8015B05F02A
:104410007F0E0EFA04FE15F0800F46EA0E0604F138
:104420000704F2D11F2CCDD86D06CBD54FF0FF3548
:1044300005FA04F42643C6E700261046344610F871
:10444000015B05F07F0E0EFA04FE2D0646EA0E060D
:1044500004F10704F3D4B5E708F0B0FBFF2808B572
:10446000034612D003F07003302B084613D005D852
:10447000202B09D1BDE8084008F09DBB402B06D198
:10448000BDE8084008F084BB03D8002008BD502BCD
:10449000FBD008F093FBBDE8084008F089BB00BFE3
:1044A000F8B50C461546064608B108F071FB2860C1
:1044B00014F8017BFF2F28D16860204610F8013BDB
:1044C000FF2B32D0102300242B75224610F8011B3D
:1044D00001F07F039340090644EA030402F1070256
:1044E000F4D40444EC6010F8013B6B7500242246C0
:1044F00010F8011B01F07F0393401C430B0602F1EF
:104500000702F5D404442C61F8BD31463846FFF764
:10451000A5FF2B1D014622463846FFF73FFF044604
:10452000204610F8013BFF2BCCD12B750024D9E796
:104530002DE9F04F00F0030395B00024012B0A94FD
:104540000F46164600F0A480022B0AD131463846A9
:1045500008F008FB002840F09080082015B0BDE866
:10456000F08F002B40F0FD8110F00804EED10EAB6F
:104570004FF001080293029B009300230C2219467E
:1045800030460E9707F006FE304608F007FB039012
:104590000028DBD0DDE9022144EA08033046049319
:1045A000FFF77EFF9DF84C30069382463146184651
:1045B000FFF754FF0DF134080023059010901946C1
:1045C000CDF800800F22304607F0BCFD0D9BDDF8D2
:1045D000489023F00103CA4503F1FF3533D29DF81B
:1045E0004DB00E9C00215846FFF738FF5246014659
:1045F0000BAB5846FFF7D2FE002182465846FFF724
:104600002DFF524601460CAB5846FFF7C7FE00216E
:1046100082465846FFF722FF524601464346584617
:10462000FFF7BCFE8246002002461AF8011B01F08B
:104630007F03934018430B0602F10702F5D40B9B4E
:104640002344AB421DD94FF0000AD3460123049AFC
:10465000D10777D50A9B1C4600231946CDF8008068
:1046600030460D2207F06EFD039BC7E90B3B0D9B07
:104670003B62C7E9094A062070E7092015B0BDE88A
:10468000F08F0C9A1344AB4264D8CA45AAD3DAE738
:104690000EAB10F00804029302D04FF002086AE754
:1046A00000930D6A23460D222146304607F04AFD4D
:1046B0000E9B9D42F1D1029B0093214623460C2282
:1046C00030460E9707F066FDD7F830B0D7E90A43B9
:1046D000BBF1000F3BD00393A2460DF13408BAF1B1
:1046E000000FC0F2FF80032500231A461946CDF8BB
:1046F000008030460D9707F04DFD0023194601223A
:10470000CDF8008030460D9407F044FD0023194693
:104710000F22CDF80080304607F014FD0D9ACDF839
:10472000008002F00102002342EA0B020D923046A3
:104730000F22194607F02EFD022D60D0072015B07C
:10474000BDE8F08F049A12075DD4012B6BD1384677
:1047500007F018FA0D9B002B3FF4F8AE0F9A03EB0D
:10476000020B002800F0E180013809EB0004BBF1E6
:10477000000F3FF4EBAE049B13F00803089300F026
:10478000D880794B3B60794B7B60069B079603F0A2
:104790000702CDF818B04FF0000909929B4600219E
:1047A0000A4614F8010B00F07F039340050641EA26
:1047B000030102F10702F4D41F2A05D8400603D5ED
:1047C000012393405B42194300258A4626462A4628
:1047D00016F8010B00F07F0393401D43030602F11E
:1047E0000702F5D41F2A20D846061ED50123934080
:1047F0005B421D4359BB4FF001092C44CFE73846BB
:10480000FFF73AFD9AE7012B00F0A980BAF1000FFB
:10481000C0F2A1805446032566E7049BDB07DDE96F
:1048200006B63FF517AF544659E781B94FF0010975
:10483000002DE2D14B46DDE906B6002B3FF486AEF3
:10484000049BD8073FF582AE002402254CE70029DF
:1048500021DC6FF04043119E5B1A56F8231006EBE3
:1048600083060FB1089B2BB10029E1D1DDE906B623
:104870000323ECE60A9B0D9321B963E056F8041F6D
:104880000029CAD03144434600223846FFF79CFC39
:104890000028F3D0CCE7BBF1FF0F44D0099A042ADB
:1048A0005FD8DFE802F0035E1C0319008B005B4257
:1048B000119A05991A4458464346FFF76FFD0D9922
:1048C0000029D3D0002FB3D00AAB00223846FFF71F
:1048D0007BFC0028ACD0C9E7CB005B42E8E74B008B
:1048E0005B42E5E7DDE902213046FFF7D9FD9DF89F
:1048F0004C003146FFF7B2FD6FF04042121B0546F7
:10490000119850F8223000EB820033B102460023A8
:1049100052F8041F01330029FAD1C7E90A350423EC
:1049200078633B63DFE60023C2E7BBF1000F87D16A
:104930000CE6FB79012B0CBF57F8203C07F158031C
:104940000A9322E71C46049BDD07DDE906B63FF526
:1049500083AE5446C3E600F021F807F08DF900F06D
:104960000FF808F02BF900BF474E5543464F520051
:1049700008B5804708F022F907F07EF908F01EF923
:1049800008B5034B1868BFF35B8FFFF7F1FF00BF5B
:104990002000002008B58047FFF7F2FF08B5034B61
:1049A0001868BFF35B8FFFF7F5FF00BF1C00002006
:1049B000024B1868BFF35B8F704700BF20000020D8
:1049C000024B1868BFF35B8F704700BF1C000020CC
:1049D000012810B51AD8BFF35B8FA1F1280353E863
:1049E000002F013A43E800200028F8D1BFF35B8F85
:1049F0005AB951F81C3C01F158040BB120469847B4
:104A00002046BDE8104007F00FB810BD51F8140C57
:104A1000FFF7AEFF002310B540E91E1240F8803CBE
:104A20000446FFF7CDFF44F8700CFFF7C1FF0749BC
:104A3000074A084B44F8581C44F8542C44F86C0CB2
:104A400044F8503CA4F1800010BD00BF474E5543D0
:104A5000432B2B00D149000870B504460D4616467D
:104A6000FFF798FC436801333246294643602046ED
:104A7000FFF7D0FF0446012344F8283B2046FBF70C
:104A8000D7FD204607F0F8F8FFF77AFF10B5FFF7DB
:104A900081FCD0E900420132426064B194F82020E8
:104AA000472A0AD00022026020342046FBF7E4FDAA
:104AB000204607F0E1F8FFF763FF94F821204E2A23
:104AC000F0D194F82220552AECD194F82320432ADF
:104AD000E8D194F82420432AE4D194F825202B2A05
:104AE000E0D194F826202B2ADCD194F82720012A43
:104AF000D8D8626952426261D6E700BF012838BF48
:104B0000012010B50446204608F0AEF800B110BDF3
:104B100007F044F908B18047F5E7042006F06CFF80
:104B2000024B034A03490360FFF796FFC44501089F
:104B300051530008B0450108FFF7E0BF10B5034B23
:104B400003600446FFF7D8FA204610BD044501086B
:104B500010B5054B03600446FFF7CEFA20460C2142
:104B6000FFF728FB204610BD0445010870B582B050
:104B70000446069E96420D4609D0A0680468069633
:104B8000246A2946A44602B0BDE870406047194631
:104B90000192009300F064F8DDE900320028ECD0C7
:104BA000062002B070BD00BF2DE9F04F0D4681B068
:104BB0001946DDE90A8BDDE90CA91C4607461646B5
:104BC00000F04EF880B9D04527D0B8682346046875
:104BD000CDE90CA9CDE90A8BE46932462946A44601
:104BE00001B0BDE8F04F6047002DC9F8008089F89A
:104BF00004600CDBA844C24514BF4FF001084FF01D
:104C0000060889F80680002001B0BDE8F08F023563
:104C1000F9D1012389F80630F5E75946384600F006
:104C20001FF80028D1D089F80560ECE72DE9F041A4
:104C300006460F4614461D46FFF798FA48B9B06875
:104C4000016822468C692B463946A446BDE8F041EE
:104C50006047BDE8F08100BF704700BF002070478B
:104C6000814211D008B5406803782A2B0AD04968E0
:104C70000B782A2B08BF0131FBF742FDB0FA80F018
:104C8000400908BD002008BD0120704710B5034B46
:104C900003600446FFF730FA204610BD7C4501084A
:104CA00010B5054B03600446FFF726FA204618218D
:104CB000FFF780FA204610BD7C4501082DE9F04F32
:104CC00083B00546DDF830A0524591460F46984620
:104CD0002DD0EB685E1E05EBC305FBB1EC6814F04C
:104CE000020F434639464FEA242212D014F0010441
:104CF00004D0F81C0DD0D9F800008258A868D0F86C
:104D000000C0CDF800A0DCF820B04A44D847032802
:104D100008D8013E731CA5F10805DFD1012003B0BE
:104D2000BDE8F08F2043C0B203B0BDE8F08F194654
:104D3000FFF796FF0028CCD00620F0E72DE9F04FD2
:104D400093B08A461F9C0793A368DDF870B00B9060
:104D5000DE06099201D58368A3601E9B9B4500F087
:104D6000688107990B98FFF77BFF002840F04E8180
:104D7000BAF1000FA8BF1E9B4FF001020892099ADA
:104D8000A4BFA3EB0A0319464FF0000EB8BF0146BB
:104D9000022342F00102CDE905AECDF830E00A92DF
:104DA0000D938A460B9BDF6807F1FF38002F00F058
:104DB000828003EBC7074FF00009F968A0681190E3
:104DC000CA07CDE90F994CBFDBF80020099A4FEADA
:104DD000212344BFD3580A9A5B44BAF1000F07D08D
:104DE0009A45089E2CBF00250125B54200F095800C
:104DF0008E0705D40599023100F08C8002F0FD0287
:104E0000B868016800931E9B02930FAD1D9B019330
:104E10000395CD69079B0599A84763799DF84120C3
:104E20009DF842600F991343062E6371864600F089
:104E30000A81022E8C4600F00681069D2268002D14
:104E40005CD1002A00F081808A4269D0002900F0FC
:104E5000A580032BA57938D9D80702D5A06880078B
:104E600033D4012D38BF0125012E38BF0126EDB204
:104E7000F6B286EA0503DBB2032B40F28380032EF1
:104E800040F29580DDF83CC09DF840202271002260
:104E900006F00203C4F800C00692A67153BBF207E5
:104EA00028D56379042B2FD008F1FF38B8F1FF3FE4
:104EB000A7F1080781D10C9B33B30D9B012B23D0A5
:104EC00001230D93002308936CE7002D2ED0002EB4
:104ED000CFD1032D40F2EE80E8077CD50B9B9B6879
:104EE00099073ED485F00103DBB2032B4FD9AB0702
:104EF000A571D6D5002013B0BDE8F08F002AA3D14C
:104F00000029A6D1042BCFD1DDF818E0704613B0EC
:104F1000BDE8F08F8107C7D070E701230C93C3E78A
:104F200022799DF840100A432271BBE7032E5AD91B
:104F3000F00742D486F00102D2B2032AA4D801229B
:104F4000C4F80090A2710692ACE79DF84020216061
:104F5000227121B17BB30B9A9268D607CBD506900C
:104F6000A0E7059BDDF83CC0002BC0F290801E9AA4
:104F700063449A4216D185F00603DBB2032B00F29C
:104F8000A28006262E40F6B2032E00F2A88001224F
:104F90006379C4F80090A271069283E7BEF1000F16
:104FA00080D056E785F00103DBB2032BEFD905F083
:104FB00002032E4671E7069076E70B998968890708
:104FC000B8D5059B002B70DB1A441E9B93420CBF87
:104FD000062501254DE785F00103DBB2032BD6D969
:104FE000A571002087E70598002834DB1E9D024448
:104FF000954270D0002E5BD10A1895429FD19DF842
:105000004020216006232271A37173E7099BC4F835
:1050100000B0BAF1000F237132DB1E9BD3445B4515
:1050200014BF4FF0010B4FF0060B84F806B00020C0
:1050300061E71D990B98FFF713FE00283FF491AE2E
:10504000099B637156E79DF8403021602371A6717A
:1050500013B0BDE8F08F0599023146D01E9B07982A
:105060000093036805991D6A1D9BA8470546002EFD
:105070007FF4FFAE03283FF62FAFDDF83CC009E018
:105080001AF1020F7FF436AF0123A37132E7059BBB
:10509000023387D01E9B07980093036805991E6A08
:1050A0001D9B6246B0470646E3E6059B0233D5D119
:1050B0000125DEE6059B002B1BDB059B19441E9B8F
:1050C0008B427FF464AF9DF84020C4F800C00623F3
:1050D0002271A3710EE77EB90623A3710AE70022AD
:1050E00002232260A371012005E7002E3FF427AFC1
:1050F000DEE70233CED14AE70625BAE62DE9F04FC6
:1051000089B0CDE90210044691469846FFF72EF883
:10511000002873D1D8F80830DA06039A48BF23462E
:10512000D46848BF9B68661E002C49D0039A01933F
:1051300002EBC40403F0010200920025019BE26827
:105140000495CDE90635009B8DF8145002F0020756
:105150003B4302F0010A2ED0B9F1000F38D01212F1
:10516000BAF1000F02D0D9F800309A584A44A0682A
:10517000016804ABD1F818B00299D847D8B1079BA1
:10518000082B27D09DF81430032B04D91FB923F026
:1051900002038DF81430D8F80C1009B3D8F8003099
:1051A000049A934242D16BB398F804309DF81420CE
:1051B000134388F80430013E771CA4F10804BDD1E4
:1051C00098F80400003818BF012009B0BDE8F08F3E
:1051D0004A46CCE7BAF1000FD4D0A3680793D1E7D1
:1051E00004AB0FCB88E80F0098F80430032B05D9E7
:1051F000980714D5039B9B68D907DCD4012009B01C
:10520000BDE8F08F0798082805D0082903D0FFF7DC
:1052100027FD0028C8D1022388F80430EEE7DA071A
:10522000ECD5039B9B689B07C5D4E7E700220223CC
:10523000C8F8002088F804300120E0E770B53B4B47
:105240001A7882B0002A41D101241C7006F098FD22
:10525000002831D04468364D23782A2B08BF01340A
:1052600000224FF0FF30114601AB0190204606F0BE
:10527000F7FA2B683022DB68064601212D4808F03A
:1052800055FD019B93B12B682046D96808F050FB6F
:105290002B682948DB680222012108F047FD019BA9
:1052A00013B9304607F0E8FCFFF7F0FB2B683046F7
:1052B000D96808F03DFBEBE71D4B20481B682D2209
:1052C000DB68214608F032FD07F078FC184B1C48DB
:1052D0001B681D22DB68012108F028FD07F06EFC29
:1052E00001290C4619D106F0C7FC03689B68984752
:1052F0002B682146DB6804460B22124808F016FD95
:105300002B682046D96808F013FB2B680A20D9685F
:1053100008F0A2FA06F0EEFCD6E706F0ADFC06F0C7
:10532000E9FCD1E706F0E6FCFEF748FFD458002080
:1053300044040020B8380108EC380108F0380108AE
:105340009838010820390108004870472C390108B5
:1053500010B5034B03600446FFF708F8204610BD64
:10536000C445010810B5054B03600446FEF7FEFF77
:1053700020460421FEF71EFF204610BDC44501084B
:10538000004870473C39010810B5034B03600446E0
:10539000FFF7DEFF204610BD0046010810B5054BA3
:1053A00003600446FFF7D4FF20460421FEF702FF06
:1053B000204610BD00460108312970B584463CD80E
:1053C00028290AD9A1F12900082834D8DFE800F0FB
:1053D0001A191833181A1A4119000A290ED9A1F1FD
:1053E0000B052F48EDB20124AC40204088BB14F4DB
:1053F0007F1F07D12B48204010B970BD042916D853
:10540000CAB1C3B1DCE90540844214DADCF81050BB
:1054100004EB840E05EB8E0001340026C0E9016622
:10542000CCF8144005F82E10C0E9032370BDA1F19B
:10543000090001280DD9002070BD4F290CD833294F
:10544000F9D9A1F134051848EDB20124AC4020404F
:10545000F0B1002AD6D1EEE7A1F152000928D1D847
:1054600001A454F820F000BF53540008035400086E
:105470000354000801540008535400085354000812
:1054800005540008535400085354000853540008AE
:10549000064820400028B3D14E29B3D070BD00BFCC
:1054A000FE1F802F010040000711C701F82E000ADF
:1054B000F0B5C26811786E29864625D03039CBB256
:1054C000092B2BD80026164D00206FF0004402E077
:1054D000B0EBD30F15DC0132CEF80C201378303B43
:1054E0005FFA83FC00EB800001EB4000BCF1090F88
:1054F0001946A4EB0303A5FB0373E9D906B14042A7
:10550000F0BD4FF0FF30F0BD531CC360517830390F
:10551000CAB2092A02D81A460126D4E70020F0BDF3
:10552000CDCCCCCC10B5044629B9C3681A786AB181
:105530005A1CC260197868290CD0762906D12046F9
:10554000FFF7B6FFE3681A785F2A01D0002010BD8C
:105550000133E3602046FFF7ABFFE3681A785F2A68
:10556000F4D10133E360012010BD00BFC3681A7895
:105570005F2A01D00120704710B55A1CC2605A78CA
:105580005F2A044604D0FFF793FFC043C00F10BD4D
:105590000233C360FFF78CFF002807DB092801DC1A
:1055A000012010BDE3681A785F2A01D0002010BDE9
:1055B0000133E360F4E700BF002900F0918038B5C3
:1055C00005460C46A268012A35DCD5F81C01B0F569
:1055D000806F30DC23780132412BA2602CD8222B43
:1055E00018D8013BDAB2212A25D8212B23D8DFE8AD
:1055F00003F05151517022221F1F515151515151ED
:1056000051515151515151515122515151515151B9
:1056100051515151A3F1230C32495FFA8CFC012204
:1056200002FA0CF21140A9BB920748D1332B02D1E8
:105630002469002CC6D138BD443BDAB2112AFAD80D
:10564000112BF8D801A252F823F000BF955600089C
:10565000B7560008B7560008B7560008B7560008F6
:1056600037560008955600089556000895560008CC
:10567000955600089556000895560008955600085E
:105680009556000837560008375600083756000868
:10569000B7560008E1680130C5F81C012846FFF73D
:1056A0008BFF21692846FFF787FFD5F81C31013BA6
:1056B000C5F81C3138BDE468002C83D1BBE7E16834
:1056C0000B78052BE7D1D5F838310133C5F83831DF
:1056D000E1E7D5F84431E1680133C5F84431DAE750
:1056E000704700BFEC7DFE7F20B909E039B1006949
:1056F000013930B103782F2BF8D000207047C068F3
:10570000704770472DE9F04114465268A568D4F8F7
:105710000C804B1C1344AB4282B00E46074614D893
:10572000B8F1000F0ED1636820683246184439463C
:10573000FBF7A6F9D4E90032334403F8028063682A
:105740003344636002B0BDE8F081B8F1000FF9D1D5
:105750007DB16D00AB42FCD82068294607F052FDB0
:1057600060B1D4F80C802060A560B8F1000FDAD0E9
:10577000E8E7022B4FF00205EBD8EDE70190206837
:1057800007F07AFA019B0122C4E90033C4E902322E
:10579000D8E700BF03784B2B17D00ED8442B16D177
:1057A0004078A0F17703012B0FD900F0DF00A0F1C2
:1057B0004F00B0FA80F040097047562B05D0A3F196
:1057C0007200B0FA80F04009704701207047002055
:1057D000704700BFD0F80031FF2B70B504460D466E
:1057E00006D05A1CC4F80021E55484F8045170BD59
:1057F0000026194680F8FF60D0E942329847D4F875
:105800002811012233461144C4F82811C4F800219C
:10581000E55484F8045170BDD0F810318BB15A684A
:10582000CB681069002B0BDB20B906E03BB10069A7
:10583000013B10B102782F2AF8D000207047C068D1
:1058400070470123C0F81831F7E700BF002941D0A5
:1058500038B505460C462378332B1DD8332B24D876
:10586000DFE803F02B232323232D2B2828232323B6
:105870002323232323232323232323232B232323F0
:1058800023232323232323232323232B23232323E0
:105890002323232323232B28423BDBB21A2B04D8B8
:1058A0000D4A22FA03F3DB0707D4E1682846FFF725
:1058B000CDFF18B92469002CCDD1002038BD214678
:1058C0002846FFF7A9FF0028F7D003782F2BF5D043
:1058D0000020F3E700207047E30C00042DE9F041BD
:1058E000044608460D46FBF76BF940B3013DD4F87A
:1058F00000112F184FF0000809E00B46BD4201F1DE
:105900000101C4F80011E65484F8046117D0FF299E
:1059100015F8016FF1D1D4E9423284F8FF802046B6
:105920009847D4F82821012100230A44BD42C4F835
:105930002821C4F80011E65484F80461E7D1BDE8D9
:10594000F08100BF38B5C2681378542B24D1531CA2
:10595000C36052785F2A044620D06E2A1CD0FFF71D
:10596000A7FD411C18D4E3681A785F2A14D1D4E942
:10597000052001338242E3600EDA236902EB820CD8
:1059800003EB8C0001320025C0E90155626105225C
:1059900003F82C20C16038BD002038BD0021E6E7A7
:1059A0002DE9F04188B00A4604461A4901A808F0DA
:1059B00009FA01A8FBF704F940B301ADD4F80011CE
:1059C0002F184FF0000809E00B46BD4201F101011C
:1059D000C4F80011E65484F8046117D0FF2915F8C3
:1059E000016BF1D1D4E9423284F8FF802046984718
:1059F000D4F82821012100230A44BD42C4F82821FB
:105A0000C4F80011E65484F80461E7D108B0BDE899
:105A1000F08100BF583901082DE9F0410446FFF735
:105A200047FD051E44DDE66863689B1B9D423BDC29
:105A3000A26873195207E36004D5725D242A04BF7B
:105A40000133E360092DD4E905781FDD27490822D9
:105A5000304608F0D7FA30B9337A2E2B2BD05F2B93
:105A600029D0242B27D047451EDA206907EB87036E
:105A700000EB830001370023C0E901336761002395
:105A8000C0E90133C0E9036503700EE047450BDA56
:105A9000206907EB870300EB830001370023C0E98F
:105AA00001336761002EEAD10020A062BDE8F081D9
:105AB0000020BDE8F081737A4E2BD4D1E36A16330F
:105AC0005B1B4745E362EFDA2169094A07EB870070
:105AD0008500002301EB800001376761C0E90133D5
:105AE0004B551523C0E90323DFE700BF5C390108EC
:105AF000683901082DE9F041C3681A78532A26D184
:105B00005A1CC2600446587848B39A1CE260587820
