:020000040800F2
:100000000000022035220008852200088522000811
:1000100085220008852200088522000800000000D3
:10002000000000000000000000000000212800087F
:1000300085220008000000003129000899290008E5
:1000400085220008852200088522000885220008F4
:1000500085220008852200088522000885220008E4
:1000600085220008852200088522000885220008D4
:1000700085220008852200088522000885220008C4
:1000800085220008852200088522000885220008B4
:1000900085220008852200088522000885220008A4
:1000A0008522000885220008852200088522000894
:1000B000553900088522000885220008852200089D
:1000C0008522000885220008852200088522000874
:1000D00085220008AD390008852200088522000825
:1000E0008522000885220008852200088522000854
:1000F0008522000885220008852200088522000844
:100100008522000885220008852200088522000833
:100110008522000885220008852200088522000823
:100120008522000885220008852200088522000813
:100130008522000885220008852200088522000803
:1001400085220008852200088522000885220008F3
:1001500085220008852200088522000885220008E3
:1001600085220008852200088522000885220008D3
:100170008522000885220008852200080000000072
:08018000852200088522000819
:1001C00081F0004102E000BF83F0004330B54FEA08
:1001D00041044FEA430594EA050F08BF90EA020F75
:1001E0001FBF54EA000C55EA020C7FEA645C7FEA08
:1001F000655C00F0E2804FEA5454D4EB5555B8BF2B
:100200006D420CDD2C4480EA020281EA030382EA9B
:10021000000083EA010180EA020281EA0303362D2D
:1002200088BF30BD11F0004F4FEA01314FF4801C00
:100230004CEA113102D0404261EB410113F0004F12
:100240004FEA03334CEA133302D0524263EB4303C9
:1002500094EA050F00F0A780A4F10104D5F1200E67
:100260000DDB02FA0EFC22FA05F2801841F10001C2
:1002700003FA0EF2801843FA05F359410EE0A5F196
:1002800020050EF1200E012A03FA0EFC28BF4CF0C7
:10029000020C43FA05F3C01851EBE37101F000457D
:1002A00007D54FF0000EDCF1000C7EEB00006EEB8A
:1002B0000101B1F5801F1BD3B1F5001F0CD3490814
:1002C0005FEA30004FEA3C0C04F101044FEA44526B
:1002D00012F5800F80F09A80BCF1004F08BF5FEAF2
:1002E000500C50F1000041EB045141EA050130BDD2
:1002F0005FEA4C0C404141EB0101013C28BFB1F5E4
:10030000801FE9D291F0000F04BF01460020B1FA2E
:1003100081F308BF2033A3F10B03B3F120020CDA01
:100320000C3208DD02F1140CC2F10C0201FA0CF0DF
:1003300021FA02F10CE002F11402D8BFC2F1200C44
:1003400001FA02F120FA0CFCDCBF41EA0C019040FA
:10035000E41AA2BF01EB0451294330BD6FEA040443
:100360001F3C1CDA0C340EDC04F11404C4F120022E
:1003700020FA04F001FA02F340EA030021FA04F340
:1003800045EA030130BDC4F10C04C4F1200220FA97
:1003900002F001FA04F340EA0300294630BD21FAD5
:1003A00004F0294630BD94F0000F83F4801306BF9B
:1003B00081F480110134013D4EE77FEA645C18BF8F
:1003C0007FEA655C29D094EA050F08BF90EA020F26
:1003D00005D054EA000C04BF1946104630BD91EA1E
:1003E000030F1EBF0021002030BD5FEA545C05D121
:1003F0004000494128BF41F0004130BD14F5800460
:100400003CBF01F5801130BD01F0004545F0FE41D3
:1004100041F470014FF0000030BD7FEA645C1ABF08
:10042000194610467FEA655C1CBF0B46024650EA3F
:10043000013406BF52EA033591EA030F41F400216B
:1004400030BD00BF90F0000F04BF0021704730B5F1
:100450004FF4806404F132044FF000054FF00001C6
:1004600050E700BF90F0000F04BF0021704730B587
:100470004FF4806404F1320410F0004548BF40425C
:100480004FF000013EE700BF42004FEAE2014FEAB1
:1004900031014FEA02701FBF12F07F4393F07F4F8C
:1004A00081F06051704732F07F4208BF704793F08F
:1004B0007F4F04BF41F40021704730B54FF46074A2
:1004C00001F0004521F000411CE700BF50EA0102A5
:1004D00008BF704730B54FF000050AE050EA01024E
:1004E00008BF704730B511F0004502D5404261EBBE
:1004F00041014FF4806404F132045FEA915C3FF4FF
:10050000D8AE4FF003025FEADC0C18BF03325FEA9B
:10051000DC0C18BF033202EBDC02C2F1200300FA4C
:1005200003FC20FA02F001FA03FE40EA0E0021FA71
:1005300002F11444BDE600BF4A0011D212F50012C8
:1005400011D20DD56FF47873B3EB62520ED44FEA2B
:10055000C12343F0004343EA505323FA02F07047AB
:100560004FF00000704750EA013002D14FF0FF30E9
:1005700070474FF00000704700F1340191E83800F7
:100580009C46A6464CF8045D90E8FF0FE54600BD8A
:1005900090EC210B704700BF80EC210B704700BF2F
:1005A00090EC200B704700BF80EC200B704700BF21
:1005B000D0EC200B704700BFC0EC200B704700BF91
:1005C000F0EC0201F0EC0211F0EC0221F0EC02314F
:1005D000F0EC0241F0EC0251F0EC0261F0EC02713F
:1005E000F0EC0281F0EC0291F0EC02A1F0EC02B12F
:1005F000F0EC02C1F0EC02D1F0EC02E1F0EC02F11F
:10060000704700BFE0EC0201E0EC0211E0EC0221D7
:10061000E0EC0231E0EC0241E0EC0251E0EC02617E
:10062000E0EC0271E0EC0281E0EC0291E0EC02A16E
:10063000E0EC02B1E0EC02C1E0EC02D1E0EC02E15E
:10064000E0EC02F1704700BFB0FC0181B0FC019109
:10065000B0FC01A1B0FC01B1704700BFA0FC01815A
:10066000A0FC0191A0FC01A1A0FC01B1704700BF5A
:10067000EC4600B52DE900502DE9FF1F4FF00003B7
:100680002DE90C0001A90CF075F9DDF840E012B07D
:10069000704700BFEC4600B52DE900502DE9FF1F63
:1006A0004FF000032DE90C0001A90CF09FF9DDF8D3
:1006B00040E012B0704700BFEC4600B52DE9005095
:1006C0002DE9FF1F4FF000032DE90C0001A90CF0EC
:1006D000AFF9DDF840E012B0704700BFEC4600B55E
:1006E0002DE900502DE9FF1F4FF000032DE90C000C
:1006F00001AB0CF073F9DDF840E012B0704700BFB9
:10070000EC4600B52DE900502DE9FF1F4FF0000326
:100710002DE90C0001AA0CF0EBF9DDF840E012B075
:10072000704700BF00000000000000000000000053
:1007300000000000000000000000000000000000B9
:1007400002780B78012A28BF9A4240F0D8806DE9E0
:10075000044540EA0104CDE902676FF0000C4FEA5E
:1007600044721AB380EA010414F0070F6BD100F051
:10077000070420F0070004F0030521F007014FEA09
:10078000C505F0E8042314F0040FF1E804670CFA3F
:1007900005F462EA040266EA04060BD063EA040385
:1007A000624667EA0407664604E000BFF0E80423F7
:1007B000F1E8046782FA4CF582EA0604A4FA8CF4A4
:1007C0006CBB83FA4CF583EA0705A5FA8CF595B95D
:1007D00050E9022351E9026782FA4CF582EA0604E5
:1007E000A4FA8CF483FA4CF583EA0705A5FA8CF594
:1007F0002543DBD09CB92DBAB5FA85F424F0070463
:1008000027FA04F1DDE9026723FA04F303F0FF009D
:1008100001F0FF01FDE80445A0EB0100704724BA98
:10082000B4FA84F424F0070426FA04F1DDE902673F
:1008300022FA04F202F0FF0001F0FF01FDE8044596
:10084000A0EB0100704714F0030F3CD110F003043B
:1008500028D150F8082B51F8083B82FA4CF582EA6F
:100860000305A5FA8CF55DB950F8042C51F8043C49
:1008700082FA4CF582EA0305A5FA8CF5002DE8D042
:100880002DBAB5FA85F424F0070423FA04F122FA0C
:1008900004F202F0FF0001F0FF01FDE80445A0EBC7
:1008A000010070474FEAC40420F0030050F8082B01
:1008B00021F0030151F8083B0CFA04F462EA040247
:1008C00063EA0403C9E710F003041DD0A1EB04019F
:1008D00020F00300E40750F8042B06D012D28B78E6
:1008E0005FFAA2F4E41A06D12BB1CB785FFAB2F426
:1008F000E41A00D133B920465DF8104B7047A2EBE3
:100900000300704701F1040150F8042BCC0721F0DB
:10091000030151F8043B48D824D222F07F4482FAE4
:100920004CF594EA1325A5FA8CF50AD165B951F86E
:10093000043B84EA0204B4EB036F0ED150F8042B9D
:10094000EBE74FEA132355E035F07F454DD10878AA
:10095000FDE80445C0F1000070474FEA126203F061
:10096000FF0347E002EA1C4482FA4CF594EA13457F
:10097000A5FA8CF50AD165B951F8043B84EA020462
:10098000B4EB034F0CD150F8042BEBE74FEA1343C1
:1009900030E015EA1C4528D10B884FEA124229E0C5
:1009A0004FEA124203EA1C4324E002F0FF0482FAF9
:1009B0004CF594EA1365A5FA8CF50AD165B951F89E
:1009C000043B84EA0204B4EB032F09D150F8042B52
:1009D000EBE74FEA13630DE015F0FF0F05D10B684D
:1009E0004FEA122223F07F4304E04FF00000FDE8BD
:1009F0000445704712BA1BBA82FA4CF482EA030427
:100A0000A4FA8CF5B5FA85F402FA04F203FA04F3B9
:100A10004FEA1260FDE80445A0EB1360704700BF89
:100A200001F0FF01102A2BDB10F0070F08D010F89F
:100A3000013B013A8B422DD010F0070F42B3F6D1A3
:100A4000F0B441EA012141EA014122F007047FF0BC
:100A500000070023F0E80256083C85EA010586EA13
:100A6000010685FA47F5A3FA87F586FA47F6A5FA4F
:100A700087F68EB9EED1F0BC01F0FF0102F007025B
:100A800032B110F8013B013A83EA010313B1F8D106
:100A90000020704701387047002D06BF35460338E7
:100AA000073815F0010F07D1013015F4807F02BF20
:100AB000013015F4C03F0130F0BC0138704700BF71
:100AC000844641EA000313F003036DD1403A41D359
:100AD00051F8043B40F8043B51F8043B40F8043B18
:100AE00051F8043B40F8043B51F8043B40F8043B08
:100AF00051F8043B40F8043B51F8043B40F8043BF8
:100B000051F8043B40F8043B51F8043B40F8043BE7
:100B100051F8043B40F8043B51F8043B40F8043BD7
:100B200051F8043B40F8043B51F8043B40F8043BC7
:100B300051F8043B40F8043B51F8043B40F8043BB7
:100B400051F8043B40F8043B51F8043B40F8043BA7
:100B5000403ABDD2303211D351F8043B40F8043B47
:100B600051F8043B40F8043B51F8043B40F8043B87
:100B700051F8043B40F8043B103AEDD20C3205D357
:100B800051F8043B40F8043B043AF9D2043208D04F
:100B9000D2071CBF11F8013B00F8013B01D30B88C1
:100BA00003806046704700BF082A13D38B078DD09F
:100BB00010F003038AD0C3F10403D21ADB071CBF71
:100BC00011F8013B00F8013B80D331F8023B20F8DB
:100BD000023B7BE7043AD9D3013A11F8013B00F814
:100BE000013BF9D20B7803704B7843708B7883709C
:100BF0006046704700000000000000000000000098
:100C000030B490F800F020F007016FF0000C10F005
:100C1000070491F820F040F048804FF000046FF096
:100C20000700D1E9002391F840F000F1080082FAB2
:100C30004CF2A4FA8CF283FA4CF3A2FA8CF34BBB7D
:100C4000D1E9022382FA4CF200F10800A4FA8CF2F6
:100C500083FA4CF3A2FA8CF3E3B9D1E9042382FAC4
:100C60004CF200F10800A4FA8CF283FA4CF3A2FAD9
:100C70008CF37BB9D1E9062301F1200182FA4CF211
:100C800000F10800A4FA8CF283FA4CF3A2FA8CF378
:100C9000002BC6D0002A04BF04301A4612BAB2FA9A
:100CA00082F200EBD20030BC7047D1E9002304F09F
:100CB0000305C4F100004FEAC50514F0040F91F8D4
:100CC00040F00CFA05F562EA05021CBF63EA050371
:100CD00062464FF00004AAE770B54FF0FF0C4CF4E9
:100CE000E06C1CEA11541DBF1CEA135594EA0C0F6A
:100CF00095EA0C0F00F0DEF82C4481EA030621EAA5
:100D00004C5123EA4C5350EA013518BF52EA0335DF
:100D100041F4801143F4801338D0A0FB02CE4FF091
:100D20000005E1FB02E506F00042E0FB03E54FF0C1
:100D30000006E1FB03569CF0000F18BF4EF0010EB9
:100D4000A4F1FF04B6F5007F64F5407404D25FEAB5
:100D50004E0E6D4146EB060642EAC62141EA555168
:100D60004FEAC52040EA5E504FEACE2EB4F1FD0CAA
:100D700088BFBCF5E06F1ED8BEF1004F08BF5FEA28
:100D8000500E50F1000041EB045170BD06F00046DA
:100D900046EA010140EA020081EA0301B4EB5C0487
:100DA000C2BFD4EB0C0541EA045170BD41F480117F
:100DB0004FF0000E013C00F3AB8014F1360FDEBFA4
:100DC000002001F0004170BDC4F10004203C35DA80
:100DD0000C341BDC04F11404C4F1200500FA05F303
:100DE00020FA04F001FA05F240EA020001F00042A4
:100DF00021F0004110EBD37021FA04F642EB06011A
:100E00005EEA430E08BF20EAD37070BDC4F10C0443
:100E1000C4F1200500FA04F320FA05F001FA04F207
:100E200040EA020001F0004110EBD37041F10001F3
:100E30005EEA430E08BF20EAD37070BDC4F12005FE
:100E400000FA05F24EEA020E20FA04F301FA05F266
:100E500043EA020321FA04F001F0004121FA04F20E
:100E600020EA020000EBD3705EEA430E08BF20EADE
:100E7000D37070BD94F0000F0FD101F00046400018
:100E800041EB010111F4801F08BF013CF7D041EA9A
:100E9000060195F0000F18BF704703F0004652009E
:100EA00043EB030313F4801F08BF013DF7D043EA6F
:100EB0000603704794EA0C0F0CEA135518BF95EA25
:100EC0000C0F0CD050EA410618BF52EA4306D1D1AC
:100ED00081EA030101F000414FF0000070BD50EACB
:100EE000410606BF1046194652EA430619D094EA55
:100EF0000C0F02D150EA013613D195EA0C0F05D13F
:100F000052EA03361CBF104619460AD181EA030192
:100F100001F0004141F0FE4141F470014FF000004A
:100F200070BD41F0FE4141F4780170BD70B54FF0E5
:100F3000FF0C4CF4E06C1CEA11541DBF1CEA135565
:100F400094EA0C0F95EA0C0F00F0A7F8A4EB050447
:100F500081EA030E52EA03354FEA013100F088803E
:100F60004FEA03334FF0805545EA131343EA126307
:100F70004FEA022245EA111545EA10654FEA0026BC
:100F80000EF000419D4208BF964244F1FD0404F575
:100F9000407402D25B084FEA3202B61A65EB0305D1
:100FA0005B084FEA32024FF480104FF4002CB6EB8E
:100FB000020E75EB030E22BFB61A754640EA0C000E
:100FC0005B084FEA3202B6EB020E75EB030E22BF4E
:100FD000B61A754640EA5C005B084FEA3202B6EB8F
:100FE000020E75EB030E22BFB61A754640EA9C004E
:100FF0005B084FEA3202B6EB020E75EB030E22BF1E
:10100000B61A754640EADC0055EA060E18D04FEADB
:10101000051545EA16754FEA06164FEAC30343EA7B
:1010200052734FEAC2025FEA1C1CC0D111F4801F48
:101030000BD141EA00014FF000004FF0004CB6E741
:1010400011F4801F04BF01430020B4F1FD0C88BFE0
:10105000BCF5E06F3FF6AFAEB5EB030C04BFB6EBEB
:10106000020C5FEA500C50F1000041EB045170BDDE
:101070000EF0004E4EEA113114EB5C04C2BFD4EB0B
:101080000C0541EA045170BD41F480114FF0000E8F
:10109000013C90E645EA060E8DE60CEA135594EA0B
:1010A0000C0F08BF95EA0C0F3FF43BAF94EA0C0F0E
:1010B0000AD150EA01347FF434AF95EA0C0F7FF483
:1010C00025AF104619462CE795EA0C0F06D152EAD7
:1010D00003353FF4FDAE1046194622E750EA4106BB
:1010E00018BF52EA43067FF4C5AE50EA41047FF4CC
:1010F0000DAF52EA43057FF4EBAE12E74FF0FF3C31
:1011000006E000BF4FF0010C02E000BF4FF0010C01
:101110004DF804CD4FEA410C7FEA6C5C4FEA430C7A
:1011200018BF7FEA6C5C1BD001B050EA410C0CBFC9
:1011300052EA430C91EA030F02BF90EA020F00202B
:10114000704710F1000F91EA030F58BF994208BF92
:1011500090422CBFD8176FEAE37040F0010070474F
:101160004FEA410C7FEA6C5C02D150EA013C07D1A6
:101170004FEA430C7FEA6C5CD6D152EA033CD3D0F1
:101180005DF8040B704700BF8446104662468C46EB
:101190001946634600E000BF01B5FFF7B7FF00281E
:1011A00048BF10F1000F01BD4DF808EDFFF7F4FF47
:1011B0000CBF012000205DF808FB00BF4DF808EDD2
:1011C000FFF7EAFF34BF012000205DF808FB00BFF5
:1011D0004DF808EDFFF7E0FF94BF012000205DF817
:1011E00008FB00BF4DF808EDFFF7CEFF94BF0120CC
:1011F00000205DF808FB00BF4DF808EDFFF7C4FFC5
:1012000034BF012000205DF808FB00BF4FEA410C0D
:101210007FEA6C5C02D150EA013C0AD14FEA430CF0
:101220007FEA6C5C02D152EA033C02D14FF000002D
:1012300070474FF0010070474FEA410212F500126B
:1012400015D211D56FF47873B3EB625212D94FEA0D
:10125000C12343F0004343EA505311F0004F23FAF7
:1012600002F018BF404270474FF00000704750EA4C
:10127000013005D111F0004008BF6FF00040704709
:101280004FF00000704700BF0348044B834202D078
:10129000034B03B118477047D8060020D80600203A
:1012A000000000000548064B1B1AD90F01EBA301F3
:1012B000491002D0034B03B118477047D8060020ED
:1012C000D80600200000000010B5064C237843B972
:1012D000FFF7DAFF044B13B10448AFF3008001239A
:1012E000237010BDD806002000000000303E010829
:1012F00008B5054B1BB105490548AFF30080BDE8B3
:101300000840FFF7CFBF00BF00000000DC06002050
:10131000303E010880B483B000AF7860044A7B6837
:101320001A607B6818460C37BD465DF8047B704731
:10133000243F010880B584B000AF87ED030AC7EDF4
:10134000020A87ED011A97ED027AD7ED017AB4EE21
:10135000E77AF1EE10FA06DD3A1D07F108031146AF
:10136000184600F01FF8D7ED027A97ED037AB4EE35
:10137000E77AF1EE10FA02D5BB68FB600AE0D7ED20
:10138000017A97ED037AB4EEE77AF1EE10FA01DD17
:101390007B68FB60FB6807EE903AB0EE670A103797
:1013A000BD4680BD80B485B000AF786039607B6891
:1013B0001B68FB603B681A687B681A603B68FA68C8
:1013C0001A6000BF1437BD465DF8047B704700000B
:1013D00080B483B000AF0346FB7197F90730002B50
:1013E0000BDBFB7903F01F02074997F907305B0914
:1013F000012000FA02F241F8232000BF0C37BD465D
:101400005DF8047B704700BF00E100E080B483B06A
:1014100000AF03463960FB7197F90730002B0ADBF8
:101420003B68DAB20C4997F907301201D2B20B448B
:1014300083F800230AE03B68DAB20849FB7903F03D
:101440000F03043B1201D2B20B441A7600BF0C37D3
:10145000BD465DF8047B704700E100E000ED00E070
:1014600080B483B000AF7860044A7B681A607B6800
:1014700018460C37BD465DF8047B7047683F01088D
:1014800080B588B000AFF860B960394681E80C00DB
:10149000FB68796C184603F033FAFB681033184682
:1014A000FFF7DEFFFB681433B7F8402011461846FB
:1014B00000F0B9FA924AFB681A60924AFB681A6116
:1014C000FB68BA68DA61FB6800221A84BB680022F4
:1014D000DA60BB6800221A61BB6800225A61BB68EF
:1014E00000229A60BB6800229A61BB68864A9342D8
:1014F00008D1864B5B6C854A43F400335364262342
:10150000FB773BE0BB68824A934208D17F4B5B6C20
:101510007E4A43F4802353642723FB772EE0BB6885
:101520007C4A934208D1794B5B6C784A43F40023A0
:1015300053643423FB7721E0BB68774A934208D198
:10154000724B5B6C714A43F4801353643523FB7711
:1015500014E0BB68714A934208D16C4B5B6C6B4AD8
:1015600043F0200353644723FB7707E0674B5B6C32
:10157000664A43F0100353642523FB7797F91F3025
:101580001846FFF725FF97F91F300A211846FFF785
:101590003DFFBB68624A934207D0BB685A4A9342F8
:1015A00003D0BB685A4A934202D10723BB7701E0BC
:1015B0000823BB77BA7F3B461146184600F0B4F8C3
:1015C000BB7F194607F1280000F0AEF83B6B07EE31
:1015D000903AF8EE676A7B6B07EE903AF8EEE77A9E
:1015E000B3EE007A27EE877AC6EE877AC7ED067AE1
:1015F000D7ED067AFCEEE77A17EE903AFB82FB8A8B
:1016000007EE903AF8EE677A97ED067A77EE677A0A
:1016100017EE900AFEF738FF4FF00002414BFFF73C
:101620005BFB02460B4610461946FEF785FF034654
:101630007B75BB680833FA8A4FF6F071184600F0E4
:10164000B8F9BB6808337A7D0F21184600F0B1F96C
:1016500097F83830002B15D0BB68DB6843F4806204
:10166000BB68DA60BB68DB6843F48052BB68DA6051
:1016700097F83830022B05D1BB68DB6843F4007261
:10168000BB68DA6097F83C30012B02D0022B09D0FE
:1016900011E0BB68103303224FF44051184600F0AC
:1016A00088F908E0BB68103302224FF44051184615
:1016B00000F07FF900BFBB68DB6843F40052BB68F1
:1016C000DA60BB68DB6843F02002BB68DA60BB68A5
:1016D000DB6843F00802BB68DA60BB68DB6843F094
:1016E0000402BB68DA60FB6806E0FB681433184646
:1016F00000F0BCF903F016FA18462037BD4680BD4D
:101700004C3F01085C3F01080044004000380240A3
:1017100000480040004C00400050004000140140D0
:10172000001001400000304080B582B000AF78600A
:101730000B46FB707B681B685A4A934206D15A4B92
:101740001B6B594A43F0010313635EE07B681B681F
:10175000564A934206D1544B1B6B534A43F0020343
:10176000136352E07B681B68514A934206D14E4B8B
:101770001B6B4D4A43F00403136346E07B681B6810
:101780004C4A934206D1484B1B6B474A43F008032F
:1017900013633AE07B681B68474A934206D1424B89
:1017A0001B6B414A43F0100313632EE07B681B68F8
:1017B000424A934206D13C4B1B6B3B4A43F0200309
:1017C000136322E07B681B683D4A934206D1364B87
:1017D0001B6B354A43F04003136316E07B681B68BC
:1017E000384A934206D1304B1B6B2F4A43F080039B
:1017F00013630AE07B681B68334A934205D12A4B86
:101800001B6B294A43F4807313637B681B79194669
:101810000F2000F0F3F803461A467B681A717B68C4
:101820001B6818467B681B795B00032202FA03F3EE
:101830000222194600F0BDF87B681B6803F108001E
:101840007B681B795B00032202FA03F3032219462B
:1018500000F0AFF87B681B79072B0FD87B681B68FB
:1018600003F120007B681B799B000F2202FA03F32F
:101870001946FB781A4600F09CF80FE07B681B685D
:1018800003F124007B681B79083B9B000F2202FABE
:1018900003F31946FB781A4600F08BF800BF0837AF
:1018A000BD4680BD000002400038024000040240F6
:1018B00000080240000C02400010024000140240E8
:1018C00000180240001C02400020024080B582B097
:1018D00000AF78600B46FB707B680121184603F06F
:1018E0002FF87B68184603F048F806E07B68184636
:1018F00003F036F80346002B10D17B68DB691B68C8
:1019000003F08003002B0CBF01230023DBB2002B6C
:10191000ECD17B68DB69FA785A6000E000BF0837D9
:10192000BD4680BD80B582B000AF7860396008E008
:101930003B681B7819467868FFF7C8FF3B6801339E
:101940003B603B681B78002BF2D100BF00BF08371B
:10195000BD4680BD80B582B000AF78607B68DB6932
:101960001B6803F02003002B14BF01230023DBB20C
:10197000002B0AD07B6803F114027B68DB695B688B
:10198000DBB21946104600F0EAF800BF0837BD4642
:1019900080BD80B582B000AF78607B68184602F0E9
:1019A000C3FF00BF0837BD4680BDA0F11000FFF7A0
:1019B000F0BF80B586B000AFF860B9607A60B868F3
:1019C00002F0C5FD0346FB7597F91730002B11DBBC
:1019D000FB681A68BB68DB431A40FB681A60FB6847
:1019E0001A6897F91730796801FA03F31A43FB680C
:1019F0001A6000E000BF1837BD4680BD80B483B0D8
:101A000000AF03460A46FB711346BB71FA79BB79F6
:101A10009A4201D2FB7900E0BB7918460C37BD46EB
:101A20005DF8047B704780B582B000AF78600B46EC
:101A30007B807B6800221A607B687A889A807B684A
:101A40000022DA807B88184603F01AFD03461A4606
:101A50007B681A607B681B6879880022184600F052
:101A60009DF87B6818460837BD4680BD80B582B0BA
:101A700000AF78607B681B68002B04D07B681B6814
:101A8000184603F04DF87B6818460837BD4680BD00
:101A900080B582B000AF78600B467B807B689B8806
:101AA000013B9AB27B881146184600F094F8034631
:101AB0007B807B681A687B8813441B78184608373C
:101AC000BD4680BD90B585B002AF78600B467B8087
:101AD00013463B807B689B88013B9AB27B8811460A
:101AE000184600F078F803467B807B689A887B88EC
:101AF000D31A9AB23B881146184600F06CF8034698
:101B00003B807B6818687B6899883B887A880024CA
:101B1000009400F075F87B68DB883A881146184617
:101B200000F059F803463B807B68DA883B88D31A7B
:101B30009AB27B68DA8000BF0C37BD4690BD80B595
:101B400082B000AF78600B467B807B88012219460B
:101B50007868FFF7B7FF00BF0837BD4680BD80B487
:101B600083B000AF78600B46FB707B68DA887B68D7
:101B70009B889A420CD27B681B687A68D28813448F
:101B8000FA781A707B68DB8801339AB27B68DA8056
:101B900000BF0C37BD465DF8047B704780B487B04A
:101BA00000AFF860B9601346FB7100237B6107E06A
:101BB0007B69FA681344FA791A707B6901337B6197
:101BC0007B69BA689A42F3D800BF00BF1C37BD4694
:101BD0005DF8047B704780B483B000AF03460A46CB
:101BE000FB801346BB80FA88BB889A4201D2FB88EF
:101BF00000E0BB8818460C37BD465DF8047B704793
:101C000080B487B000AFF860084611461A46034614
:101C10007B810B463B811346FB803A89FB881A4443
:101C20007B899A4222DA3B897B611AE0FA887B69D8
:101C30001A447B899A420BDAFA887B6913441A4664
:101C4000FB681A447B69F9680B4412781A7005E046
:101C50007B69FA68134497F820201A707B69013376
:101C60007B617B897A699A42E0DB00E000BF1C3728
:101C7000BD465DF8047B704780B58AB000AF7862DE
:101C80000B4687ED070AC7ED060A87ED051AC7ED73
:101C9000041A87ED032AC7ED022A87ED013A7B84F7
:101CA000134687F821307B6A1846FFF733FB274A33
:101CB0007B6A1A607B6A4FF000025A607B6A7A8CFA
:101CC0001A817B6AFA69DA607B6ABA691A617B6A8F
:101CD0007A695A617B6A3A699A617B6AFA68DA6161
:101CE0007B6ABA681A627B6A7A685A627B6A0022E7
:101CF00083F828207B6A97F8212083F829207B6AC3
:101D00004FF00002DA627B6A4FF000021A637B6ACE
:101D10004FF000025A637B6A4FF000029A637B6ABD
:101D20004FF00002DA637B6A4FF000021A647B6AAC
:101D30004FF000025A64786A00F005F9786A00F002
:101D4000E8F87B6A18462837BD4680BDFC3F01088D
:101D500080B483B000AF78607B681B8918460C376D
:101D6000BD465DF8047B704780B582B000AF7860F7
:101D700087ED000A7B683A685A607B681B681B68BD
:101D80007868984700BF0837BD4680BD80B582B0EF
:101D900000AF786087ED000A7B683A681A6178685E
:101DA00000F0D1F800BF0837BD4680BD80B582B0D5
:101DB00000AF786087ED000A7B683A685A617868FE
:101DC00000F0C1F800BF0837BD4680BD80B582B0C5
:101DD00000AF786087ED000A7B683A689A6178689E
:101DE00000F0B1F800BF0837BD4680BD80B483B0B5
:101DF00000AF78600B46FB707B68FA7883F8282088
:101E000000BF0C37BD465DF8047B704780B584B0D9
:101E100000AF78607B6893F8283083F00103DBB271
:101E2000002B70D17B6893F82930002B08D07B6899
:101E300093ED017A7B68D3ED037A77EE677A07E05A
:101E40007B6893ED037A7B68D3ED017A77EE677A4E
:101E5000C7ED037A97ED030A00F00BF9B0EE407A74
:101E60007B68D3ED077AB4EEE77AF1EE10FA4CBF57
:101E700001230023DBB2002B47D17B685A6B7B68C0
:101E80009A637B681A6B7B685A637B68FA681A638B
:101E90007B6893ED0B7A7B68D3ED0F6A7B68D3ED9B
:101EA0000C7A66EEA76A7B6893ED106A7B68D3EDC7
:101EB0000D7A66EE277A76EEA76A7B6893ED116A53
:101EC0007B68D3ED0E7A66EE277A76EEA77A77EE08
:101ED000277A7B68C3ED0B7A7B68D3ED0B7A7B683E
:101EE00093ED097A7B68D3ED086AB0EE661AF0EEDE
:101EF000470AB0EE670AFFF71DFAF0EE407A7B68FA
:101F0000C3ED0B7A02E000BF00E000BF1037BD4612
:101F100080BD80B483B000AF78607B684FF0000272
:101F2000DA627B684FF000021A637B684FF00002B0
:101F30005A637B684FF000029A6300BF0C37BD46BE
:101F40005DF8047B704780B483B000AF78607B6835
:101F50001B8907EE903AF8EEE77AF5EE407AF1EE5B
:101F600010FA70D07B68D3ED057AF5EE407AF1EE89
:101F700010FA17D17B6893ED047A7B6893ED066ABB
:101F80007B681B8907EE903AF8EEE76AC6EE267A80
:101F9000F7EE006A77EEA67A67EE277A7B68C3EDE4
:101FA0000F7A23E07B6893ED047A7B681B8907EE48
:101FB000903AB8EEE76A7B68D3ED056AC6EE267AFA
:101FC000F7EE006A77EEA66A7B68D3ED065A7B6867
:101FD0001B8907EE903AB8EEE76AC5EE867A76EE90
:101FE000A77A67EE277A7B68C3ED0F7A7B6893ED5B
:101FF000047A7B68D3ED067A37EEA76A7B681B8983
:1020000007EE903AF8EEE76AC6EE267AFFEE006A2F
:1020100076EEE77A67EE277A7B68C3ED107A7B6805
:1020200093ED047A7B68D3ED067A67EE276A7B68C6
:102030001B8907EE903AB8EEE77AC6EE877A7B689E
:10204000C3ED117A00E000BF0C37BD465DF8047B9C
:10205000704780B582B000AF786087ED000A97EDD9
:10206000000A7868FFF780FE7B6818460837BD468F
:1020700080BD80B483B000AF87ED010AD7ED017A4F
:10208000F5EEC07AF1EE10FA05D5D7ED017AF1EE52
:10209000677AC7ED017A7B6807EE903AB0EE670A7F
:1020A0000C37BD465DF8047B704780B400AF012358
:1020B0001846BD465DF8047B704780B582B000AF1E
:1020C000786039600CF07EFE034616221A604FF0ED
:1020D000FF3318460837BD4680BD80B582B000AFDB
:1020E00078604FF0FF317868FFF7E7FFFEE780B5D3
:1020F00086B000AFF860B9607A6000237B610AE0C7
:10210000AFF300800146BB685A1CBA60CAB21A70AD
:102110007B6901337B617A697B689A42F0DB7B687B
:1021200018461837BD4680BD80B586B000AFF86050
:10213000B9607A6000237B6109E0BB685A1CBA6011
:102140001B781846AFF300807B6901337B617A69A5
:102150007B689A42F1DB7B6818461837BD4680BD24
:1021600080B483B000AF78604FF0FF3318460C376F
:10217000BD465DF8047B704780B483B000AF7860E3
:1021800039603B684FF400525A60002318460C3700
:10219000BD465DF8047B704780B483B000AF7860C3
:1021A000012318460C37BD465DF8047B704780B4A8
:1021B00085B000AFF860B9607A6000231846143724
:1021C000BD465DF8047B704780B586B000AF78608F
:1021D000144A154BD31A7B617B693B61134B1B6817
:1021E000002B02D1114B124A1A60104B1A687B68FF
:1021F00013443A699A4207D20CF0E4FD03460C22DC
:102200001A604FF0FF3309E0084B1B68FB60074B77
:102210001A687B681344054A1360FB681846183730
:10222000BD4680BD0000022000800000F8060020AE
:10223000305C0020DFF834D001F066FB0C480D491B
:102240000D4A002302E0D458C4500433C4188C4211
:10225000F9D30A4A0A4C002301E013600432A24277
:10226000FBD30CF0B5FD01F0ABFB70470000022082
:1022700000000020D806002024610108D8060020B4
:102280002C5C0020FEE7000080B483B000AF7860D3
:10229000044A7B681A607B6818460C37BD465DF8B7
:1022A000047B70472C40010880B582B000AF786095
:1022B0007B681846FFF7E8FF034A7B681A607B6873
:1022C00018460837BD4680BD5C41010880B584B022
:1022D00000AFF8603B1D83E80600FB6803F10800CF
:1022E0003B1D93E8060000F061F8FB681846FFF715
:1022F000DBFF0A4AFB681A60FB68DB681846FB686C
:102300001B7A5B00032202FA03F301221946FFF74E
:1023100050FBFB6818461037BD4680BD1C400108C5
:1023200080B483B000AF78607B68DB685B697A68F3
:10233000127A114601228A401340002B14BF012358
:102340000023DBB218460C37BD465DF8047B7047AE
:1023500080B582B000AF78600B46FB707B68FA787E
:102360001146184600F085F9FB78002B0DD07B68EC
:10237000DB689A697B681B7A194601238B401946F2
:102380007B68DB680A439A610DE07B68DB689A69C9
:102390007B681B7A1033012101FA03F319467B682D
:1023A000DB680A439A610837BD4680BD80B485B0BA
:1023B00000AFF8603B1D83E806007A68FB685A604E
:1023C0003A7AFB681A70FB681B780F2B02D9FB68FE
:1023D00000221A70FB685B68374A934206D1374B7C
:1023E0001B6B364A43F0010313635EE0FB685B68D6
:1023F000334A934206D1314B1B6B304A43F0020300
:10240000136352E0FB685B682E4A934206D12B4B64
:102410001B6B2A4A43F00403136346E0FB685B68C6
:10242000294A934206D1254B1B6B244A43F00803EB
:1024300013633AE0FB685B68244A934206D11F4B62
:102440001B6B1E4A43F0100313632EE0FB685B68AE
:102450001F4A934206D1194B1B6B184A43F02003C5
:10246000136322E0FB685B68194A934206D1134B61
:102470001B6B124A43F04003136316E0FB685B6872
:10248000134A934206D10D4B1B6B0C4A43F0800359
:1024900013630AE0FB685B680D4A934205D1074B62
:1024A0001B6B064A43F480731363FB6818461437AA
:1024B000BD465DF8047B70470000024000380240D2
:1024C0000004024000080240000C024000100240DC
:1024D0000014024080B584B000AFF8603B1D83E873
:1024E0000600FB68181D3B1D93E80600FFF75EFF22
:1024F000FB681846FFF7C8FE114AFB681A60FB68C4
:102500009B681846FB681B795B00032202FA03F301
:1025100000221946FFF74DFAFB689B6803F10C0097
:10252000FB681B795B00032202FA03F301221946C0
:10253000FFF73FFAFB6818461037BD4680BD00BF65
:102540008C40010880B483B000AF78607B689B68E2
:102550001B697A681279114601228A401340002BC8
:102560000CBF01230023DBB218460C37BD465DF8D3
:10257000047B704780B584B000AFF860381D80E8F8
:1025800006007B80FB687A881146184602F056F9EF
:10259000FB6803F110003B1D93E80600FFF796FE71
:1025A000FB6820331846FEF75BFF074AFB681A609A
:1025B000064AFB681A61064AFB681A62FB681846FD
:1025C0001037BD4680BD00BFC8400108DC4001088F
:1025D000EC40010890B583B000AF78607B68184686
:1025E00002F040F97B6803F110047B68184602F0A2
:1025F00070F9034619462046FFF7AAFE00BF0C37C4
:10260000BD4690BDA0F12000FFF7E4BF80B582B0C9
:1026100000AF78600B46FB707B68FA78114618466D
:1026200002F037F900BF0837BD4680BDA0F11000A9
:10263000FFF7ECBF80B582B000AF78600B46FB704F
:102640007B681B6808331B68FA78114678689847DE
:102650007B6818460837BD4680BD80B483B000AFA4
:1026600078607B681B7918460C37BD465DF8047BA3
:10267000704780B483B000AF78600B46FB707B6816
:10268000FA781A7100BF0C37BD465DF8047B7047BD
:1026900090B583B000AF78607B681B6804331C681A
:1026A0007B681B681B6878689847034683F00103C2
:1026B000DBB219467868A04700BF0C37BD4690BD15
:1026C00080B584B000AFF860381D80E806007B80DC
:1026D000FB687A881146184601F0D4FFFB6803F1C5
:1026E00010003B1D93E80600FFF7F4FEFB681C3367
:1026F0001846FEF7B5FE074AFB681A60064AFB68F3
:102700001A61064AFB68DA61FB6818461037BD4655
:1027100080BD00BF884101089C410108A841010813
:1027200090B583B000AF78607C687B681033184642
:10273000FFF708FF03461946204602F020F87B68A1
:10274000184601F0B3FF00BF0C37BD4690BDA0F1A5
:102750001C00FFF7E5BF80B582B000AF78607B68F2
:10276000184602F02CF8034618460837BD4680BDCF
:10277000A0F11000FFF7EFBF80B485B000AFF860A4
:10278000B9607A60FB68043BFB60FB684FF08072C5
:102790001A60FB68043BFB60BB6823F00102FB6826
:1027A0001A60FB68043BFB600C4AFB681A60FB681C
:1027B000143BFB607A68FB681A60FB68043BFB60B3
:1027C000FB686FF002021A60FB68203BFB60FB684D
:1027D00018461437BD465DF8047B7047E1270008B2
:1027E00080B483B000AF00233B604FF05F0383F3FE
:1027F0001188BFF36F8FBFF34F8F7B6000BF00BFA7
:102800003B68002BFCD000BF00BF0C37BD465DF815
:10281000047B704700000000000000000000000082
:10282000074B19680868B0E8F04F80F30988BFF3D8
:102830006F8F4FF0000080F311887047AFF3008076
:102840001857002000BF00BF08480068006880F3E8
:1028500008884FF0000080F3148862B661B6BFF3B9
:102860004F8FBFF36F8F00DF00BF000008ED00E067
:1028700000BF00BF80B500AF104B1B680F4A43F488
:102880007F0313600D4B1B680C4A43F07F431360BA
:1028900000F0A4F80A4B00221A6000F0BBF8094BC4
:1028A0001B68084A43F040431360FFF7CDFF00F078
:1028B0008BFEFFF795FF0023184680BD20ED00E05A
:1028C0000800002034EF00E080B483B000AF4FF088
:1028D0005F0383F31188BFF36F8FBFF34F8F7B606C
:1028E00000BF054B1B680133034A136000BF0C3760
:1028F000BD465DF8047B70470800002080B483B0BB
:1029000000AF0A4B1B68013B084A1360074B1B686A
:10291000002B05D100237B607B6883F3118800BF07
:1029200000BF0C37BD465DF8047B704708000020EF
:10293000EFF30980BFF36F8F154B1A681EF0100F6D
:1029400008BF20ED108A20E9F04F10602DE9090042
:102950004FF05F0080F31188BFF34F8FBFF36F8F8D
:1029600000F032FE4FF0000080F3118809BC1968B6
:102970000868B0E8F04F1EF0100F08BFB0EC108AE6
:1029800080F30988BFF36F8F704700BFAFF30080FB
:102990001857002000BF00BF80B582B000AF4FF0D5
:1029A0005F0383F31188BFF36F8FBFF34F8F7B609B
:1029B00000BF00F0FBFC0346002B03D0064B4FF09A
:1029C00080521A6000233B603B6883F3118800BF8C
:1029D00000BF0837BD4680BD04ED00E080B400AF05
:1029E000084B00221A60084B00221A60074B084A65
:1029F0001A60044B07221A6000BFBD465DF8047BD5
:102A0000704700BF10E000E018E000E014E000E0D4
:102A10003F900200DFF80C00016841F47001016092
:102A20007047000088ED00E000BF00BF80B588B0AF
:102A300000AF786000237B6100F0BEFB434B1B6856
:102A4000002B01D100F0C6F87B68002B12D00822C1
:102A50007B6803F00703D31A08333B613B69DB4310
:102A60007A689A4204D87A683B6913447B6001E033
:102A700000237B607B68002B60DB7B68002B5DD0D4
:102A8000334B1B687A689A4258D8324BBB61314B42
:102A90001B68FB6104E0FB69BB61FB691B68FB61B0
:102AA000FB695B687A689A4203D9FB691B68002B53
:102AB000F1D1264B1B68FA699A423FD0BB691B686B
:102AC000082213447B61FB691A68BB691A60FB69C1
:102AD0005A687B68D21A08235B009A420FD9FA69B8
:102AE0007B681344FB60FB695A687B68D21AFB68F9
:102AF0005A60FB697A685A60F86800F0C7F8144BAE
:102B00001A68FB695B68D31A114A1360104B1A6884
:102B1000114B1B689A4203D20D4B1B680E4A13607F
:102B2000FB695B6843F00042FB695A60FB69002265
:102B30001A600A4B1B680133084A136000F04AFB15
:102B40007B6918462037BD4680BD00BF0457002072
:102B500008570020FC5600200C570020105700207A
:102B600080B584B000AF78607B68FB607B68002B29
:102B700027D008235B42FA681344FB60FB68BB6004
:102B8000BB685B68002B1CDABB681B68002B18D184
:102B9000BB685B6823F00042BB685A6000F00CFB26
:102BA000BB685A68094B1B681344084A1360B8682D
:102BB00000F06CF8064B1B680133054A136000F007
:102BC00009FB00BF1037BD4680BD00BF085700207D
:102BD0001457002080B485B000AF4FF4A043BB6011
:102BE000254BFB60FB6803F00703002B0CD0FB6850
:102BF0000733FB60FB6823F00703FB60BA68FB68E0
:102C0000D31A1D4A1344BB60FB687B601B4A7B6878
:102C100013601A4B00225A607B68BA681344FB6049
:102C20000822FB689B1AFB60FB6823F00703FB602C
:102C3000FB68134A1360124B1B6800225A60104B4A
:102C40001B6800221A607B683B603B68FA68D21AF6
:102C50003B685A600A4B1A683B681A603B685B68BD
:102C6000084A13603B685B68074A136000BF14376B
:102C7000BD465DF8047B7047FC060020FC56002032
:102C8000045700200C5700200857002080B485B05E
:102C900000AF7860284BFB6002E0FB681B68FB60BC
:102CA000FB681B687A689A42F7D8FB68BB60FB68D0
:102CB0005B68BA6813447A689A4208D1FB685A681C
:102CC0007B685B681A44FB685A60FB687B607B68C2
:102CD000BB607B685B68BA681A44FB681B689A42F1
:102CE00018D1FB681A68154B1B689A420DD07B6897
:102CF0005A68FB681B685B681A447B685A60FB680B
:102D00001B681A687B681A6008E00C4B1A687B68BD
:102D10001A6003E0FB681A687B681A60FA687B68CF
:102D20009A4202D0FB687A681A6000BF1437BD4629
:102D30005DF8047B704700BFFC560020045700205C
:102D400080B483B000AF78607B6803F108027B68D1
:102D50005A607B684FF0FF329A607B6803F108028B
:102D60007B68DA607B6803F108027B681A617B6824
:102D700000221A6000BF0C37BD465DF8047B704727
:102D800080B483B000AF78607B6800221A6100BF16
:102D90000C37BD465DF8047B704780B485B000AF4A
:102DA000786039603B681B68BB60BB68B3F1FF3F6C
:102DB00003D17B681B69FB600CE07B680833FB6018
:102DC00002E0FB685B68FB60FB685B681B68BA68D5
:102DD0009A42F6D2FB685A683B685A603B685B6867
:102DE0003A689A603B68FA689A60FB683A685A6089
:102DF0003B687A681A617B681B685A1C7B681A609A
:102E000000BF1437BD465DF8047B704780B485B0C1
:102E100000AF78607B681B69FB607B685B687A68E1
:102E200092689A607B689B687A6852685A60FB680F
:102E30005B687A689A4203D17B689A68FB685A603B
:102E40007B6800221A61FB681B685A1EFB681A60C7
:102E5000FB681B6818461437BD465DF8047B704755
:102E600080B58CB004AFF860B9603B601346FB805E
:102E7000FB889B001846FFF7D9FD78617B69002B22
:102E800013D05820FFF7D2FDF861FB69002B08D062
:102E900058220021F8690BF0EBFDFB697A691A638F
:102EA00005E07869FFF75CFE01E00023FB61FB6948
:102EB000002B13D0FA8800230393FB690293FB6A6B
:102EC0000193BB6A00933B68B968F86800F00EF89C
:102ED000F86900F07BF80123BB6102E04FF0FF339B
:102EE000BB61BB6918462037BD4680BD80B586B042
:102EF00000AFF860B9607A603B60BB6A186B7B68B2
:102F00009B001A46A5210BF0B3FDBB6A1A6B7B68C8
:102F100003F18043013B9B0013443B613B6923F079
:102F200007033B61BB68002B1ED000237B6112E0CE
:102F3000BA687B6913441978BA6A7B6913443433DD
:102F40000A461A70BA687B6913441B78002B06D0B6
:102F50007B6901337B617B69092BE9D900E000BF04
:102F6000BB6A002283F83D203B6A042B01D904236D
:102F70003B62BB6A3A6ADA62BB6A3A6A9A64BB6AC3
:102F800004331846FFF7FCFEBB6A18331846FFF7F8
:102F9000F7FEBB6ABA6A1A613B6AC3F10502BB6AF3
:102FA0009A61BB6ABA6A5A623A68F9683869FFF787
:102FB000E3FB0246BB6A1A607B6A002B02D07B6A85
:102FC000BA6A1A6000BF1837BD4680BD80B584B0AC
:102FD00000AF7860FFF778FC404B1B6801333F4A35
:102FE00013603F4B1B68002B09D13D4A7B6813607F
:102FF0003A4B1B68012B10D100F06CFB0DE0394BF4
:103000001B68002B09D1364B1B68DA6A7B68DB6AC8
:103010009A4202D8324A7B681360334B1B680133F3
:10302000314A1360304B1A687B681A647B68DB6A2C
:1030300001229A402D4B1B6813432C4A13607B6876
:10304000DA6A2B4913469B0013449B000B4404335C
:103050001B68FB607B68FA689A60FB689A687B680B
:10306000DA60FB689B687A6804325A607B681A1DD4
:10307000FB689A607B68DA6A13469B0013449B00E6
:103080001B4A1A447B685A617B68DA6A18491346FE
:103090009B0013449B000B441B68591C14481346A7
:1030A0009B0013449B0003441960FFF727FC0D4B62
:1030B0001B68002B0ED00A4B1B68DA6A7B68DB6A40
:1030C0009A4207D20B4B4FF080521A60BFF34F8FDA
:1030D000BFF36F8F00BF1037BD4680BDF057002093
:1030E00018570020FC5700200C580020F8570020EB
:1030F0001C57002004ED00E080B584B000AF78607C
:103100000023FB607B68002B08D000F055F80021FD
:10311000786800F079FB00F05DF8F860FB68002B40
:1031200007D1064B4FF080521A60BFF34F8FBFF3A9
:103130006F8F00BF1037BD4680BD00BF04ED00E0BB
:1031400080B584B002AF154B019300230093002398
:10315000802213491348FFF783FE78607B68012BB8
:1031600015D14FF05F0383F31188BFF36F8FBFF367
:103170004F8F3B6000BF0C4B4FF0FF321A600B4B80
:1031800001221A600A4B00221A60FFF773FB094BF9
:103190001B6800BF0837BD4680BD00BF1458002023
:1031A000483E0108A136000810580020FC570020B6
:1031B000F4570020EC41010880B400AF044B1B68B9
:1031C0000133034A136000BFBD465DF8047B7047BE
:1031D0001858002080B586B000AF00237B61002323
:1031E0003B61FFF771FB684B1B68013B664A13604C
:1031F000654B1B68002B40F0C080644B1B68002BA4
:1032000000F0BB808AE0624BDB68DB687B617B6936
:103210009B6ABB607B69DB697A69126A9A607B6929
:103220001B6A7A69D2695A60BB685A687B6918332D
:103230009A4203D17B691A6ABB685A607B69002293
:103240009A62BB681B685A1EBB681A607B695B691F
:103250007B607B699B687A69D2689A607B69DB686E
:103260007A6992685A607B685A687B6904339A422B
:1032700003D17B69DA687B685A607B6900225A61F6
:103280007B681B685A1E7B681A607B69DB6A0122B7
:103290009A40404B1B6813433E4A13607B69DA6ACD
:1032A0003D4913469B0013449B000B4404331B68A9
:1032B0003B607B693A689A603B689A687B69DA6030
:1032C0003B689B687A6904325A607B691A1D3B68C7
:1032D0009A607B69DA6A13469B0013449B002E4A6E
:1032E0001A447B695A617B69DA6A2B4913469B0051
:1032F00013449B000B441B68591C274813469B0032
:1033000013449B00034419607B69DA6A234B1B68F2
:10331000DB6A9A4202D3224B01221A601C4B1B68C3
:10332000002B7FF470AF7B69002B01D000F050FAC6
:103330001C4B1B68FB60FB68002B10D000F036F8BC
:103340000346002B02D0164B01221A60FB68013B9A
:10335000FB60FB68002BF1D1124B00221A60104B6E
:103360001B68002B09D001233B610F4B4FF08052AB
:103370001A60BFF34F8FBFF36F8FFFF7BFFA3B6940
:1033800018461837BD4680BD18580020F057002059
:10339000B0570020F85700201C5700201857002075
:1033A000045800200058002004ED00E080B588B0EB
:1033B00000AF0023FB61794B1B68002B40F0E280DB
:1033C000774B1B680133BB61754ABB691360BB69EE
:1033D000002B10D1734B1B687B61734B1B68714AC8
:1033E0001360714A7B691360704B1B6801336F4A2D
:1033F000136000F0EDF96E4B1B68BA699A42C0F099
:10340000A680684B1B681B68002B04D1684B4FF0EB
:10341000FF321A609BE0634B1B68DB68DB683B6133
:103420003B695B68FB60BA69FB689A4203D2604AF9
:10343000FB6813608BE03B695B69BB603B699B6821
:103440003A69D2689A603B69DB683A6992685A6067
:10345000BB685A683B6904339A4203D13B69DA6816
:10346000BB685A603B6900225A61BB681B685A1EE0
:10347000BB681A603B699B6A002B1ED03B699B6A44
:103480007B603B69DB693A69126A9A603B691B6A37
:103490003A69D2695A607B685A683B6918339A4224
:1034A00003D13B691A6A7B685A603B6900229A62C1
:1034B0007B681B685A1E7B681A603B69DB6A0122C5
:1034C0009A403C4B1B6813433A4A13603B69DA6AE3
:1034D000394913469B0013449B000B4404331B687B
:1034E0003B603B693A689A603B689A683B69DA607E
:1034F0003B689B683A6904325A603B691A1D3B6815
:103500009A603B69DA6A13469B0013449B002A4A7F
:103510001A443B695A613B69DA6A274913469B00A2
:1035200013449B000B441B68591C234813469B0003
:1035300013449B00034419603B69DA6A1F4B1B6804
:10354000DB6A9A427FF65DAF0123FB6159E71B4BB3
:103550001B68DA6A184913469B0013449B000B440E
:103560001B68012B01D90123FB61154B1B68002B44
:1035700001D100F0E2F9134B1B68002B09D00123A5
:10358000FB6106E00E4B1B6801330D4A136000F02F
:10359000D4F9FB6918462037BD4680BD1858002075
:1035A000F4570020A8570020AC57002008580020EE
:1035B00010580020F85700201C57002018570020F2
:1035C000005800200458002080B586B000AF2F4B73
:1035D0001B68002B03D02E4B01221A6051E02C4BAC
:1035E00000221A602B4B1B681B6B7B614FF0A533CD
:1035F0003B617B691B683A699A4211D17B6904334C
:103600001B683A699A420BD17B6908331B683A6997
:103610009A4205D17B690C331B683A699A4208D0FB
:103620001C4B1A681B4B1B6834331946104600F0BC
:103630008BF9194B1B687B607B68B3FA83F3FB70D3
:10364000FB78C3F11F03FB60FA6813469B00134429
:103650009B00124A1344BB60BB685B685A68BB6836
:103660005A60BB685A68BB6808339A4204D1BB6889
:103670005B685A68BB685A60BB685B68DB68054A70
:10368000136000BF1837BD4680BD00BF185800202A
:103690000458002018570020F85700201C5700201D
:1036A00080B582B000AF786000F054F8074B1B681B
:1036B000012B07D9064B4FF080521A60BFF34F8F92
:1036C000BFF36F8F00F032F9EEE700BF1C57002008
:1036D00004ED00E080B582B000AF00237B600CE019
:1036E0007A6813469B0013449B00124A1344184601
:1036F000FFF726FB7B6801337B607B68042BEFD9E7
:103700000D48FFF71DFB0D48FFF71AFB0C48FFF7AC
:1037100017FB0C48FFF714FB0B48FFF711FB0B4B93
:10372000054A1A600A4B054A1A6000BF0837BD46B1
:1037300080BD00BF1C5700208057002094570020F8
:10374000B0570020C4570020DC570020A8570020A5
:10375000AC57002080B582B000AF19E0FFF7B4F895
:10376000104BDB68DB687B607B6804331846FFF72F
:103770004DFB0D4B1B68013B0B4A13600B4B1B6849
:10378000013B0A4A1360FFF7B9F8786800F010F8B7
:10379000064B1B68002BE1D100BF00BF0837BD46B8
:1037A00080BD00BFC4570020F0570020D85700202C
:1037B00080B582B000AF78607B681B6B1846FFF75E
:1037C000CFF97868FFF7CCF900BF0837BD4680BD58
:1037D00080B400AF0A4B1B681B68002B04D1094B57
:1037E0004FF0FF321A6005E0054B1B68DB681B6871
:1037F000044A136000BFBD465DF8047B704700BFFC
:10380000A85700201058002080B586B000AF78601F
:103810003960364B1B687B61354B1B680433184697
:10382000FFF7F4FA0346002B0BD1314B1B68DB6A20
:10383000012202FA03F3DA432E4B1B6813402D4A90
:1038400013607B68B3F1FF3F24D13B68002B21D08C
:10385000294B5B683B61264B1B683A699A60244B95
:103860001B683A699268DA60214B1A683B699B6869
:1038700004325A601E4B1B681A1D3B699A601C4B30
:103880001B681D4A5A611C4B1B6801331A4A13609E
:1038900000BF26E07A697B681344FB60144B1B6809
:1038A000FA685A60FA687B699A4209D2134B1A681F
:1038B0000F4B1B68043319461046FFF76EFA10E0F1
:1038C0000F4B1A680A4B1B68043319461046FFF762
:1038D00064FA0C4B1B68FA689A4202D2094AFB68E8
:1038E000136000BF1837BD4680BD00BFF4570020ED
:1038F00018570020F8570020DC570020AC57002054
:10390000A85700201058002080B400AF064BD3F811
:103910008830054A43F47003C2F8883000BFBD46C2
:103920005DF8047B704700BF00ED00E080B400AF9D
:1039300000BFBD465DF8047B704780B400AF00BF98
:10394000BD465DF8047B704780B483B000AF7860FB
:103950003960FEE780B582B000AF4FF080431B694D
:103960004FF0804223F00103136100237B600EE0DF
:103970000C4A7B6852F823301B681B6809497A6837
:1039800051F82220104698477B6801337B60064B34
:103990001B781A467B689342EADB00BF00BF0837FA
:1039A000BD4680BD0C0000201C00002080B500AF8B
:1039B0000248FDF7CFFF00BF80BD00BFCC580020FC
:1039C00080B582B002AF00F063F954214FF080401F
:1039D00000F030FA00F054F900F026FB00230193C8
:1039E00001230093002380220D490E48FFF738FA87
:1039F0000023019301230093002380220A490B48EE
:103A0000FFF72EFA002301930123009300234FF4C4
:103A1000207207490748FFF723FAFFF791FBFEE7FB
:103A2000503E010891450008583E0108E145000854
:103A3000603E01083946000880B582B000AF78606A
:103A4000074A7B681A60074A7B681A617B681433EF
:103A50001846FEF70BF87B6818460837BD4680BD50
:103A60004C3F01085C3F010880B592B008AF394A6D
:103A70003B4692E8030083E803004FF47A733A462A
:103A800006CA3548FEF776FD344A07F1080392E886
:103A9000030083E8030007F1080393E806003048B9
:103AA000FEF714FC2F4A07F1100392E8030083E8A5
:103AB00003000A2307F1100206CA2B48FEF700FE96
:103AC0004FF47A71294800F065FF00229FED283AF3
:103AD000DFED282A9FED262ADFED251AB2EE041A23
:103AE000F7EE000A9FED240A14212448FEF7C4F8DB
:103AF000234A07F1180392E8030083E80300214AF0
:103B000007F1200392E8030083E803000A230793E8
:103B10008023069300230593002304934FF4165348
:103B20000393194B02936A4607F1200393E80300BD
:103B300082E8030007F118030CCB14491448FDF781
:103B40009FFC144A1449124800F064FF00BF283754
:103B5000BD4680BD6C3E01081C580020743E010823
:103B6000405800207C3E010850580020705800202A
:103B7000000000000000C8426666824284580020AF
:103B8000843E01088C3E010800BD01050010014083
:103B9000CC58002000000020393A000880B500AF62
:103BA000FFF762FF80BD000080B485B000AF786091
:103BB0007B6803F00703FB600C4BDB68BB60BA68F3
:103BC0004FF6FF031340BB60FB681A02BB68134348
:103BD00043F0BF6343F40033BB60044ABB68D36067
:103BE00000BF1437BD465DF8047B704700ED00E070
:103BF00080B483B000AF0346FB7197F90730002B08
:103C00000BDBFB7903F01F02074997F907305B09CB
:103C1000012000FA02F241F8232000BF0C37BD4614
:103C20005DF8047B704700BF00E100E080B483B022
:103C300000AF03463960FB7197F90730002B0ADBB0
:103C40003B68DAB20C4997F907301201D2B20B4443
:103C500083F800230AE03B68DAB20849FB7903F0F5
:103C60000F03043B1201D2B20B441A7600BF0C378B
:103C7000BD465DF8047B704700E100E000ED00E028
:103C800080B500AF0420FFF78FFF00BF80BD0000AC
:103C900080B594B000AF5E4A07F110031146184694
:103CA00000F008FB07F108035A49184600F002FB30
:103CB0003B465949184600F0FDFA07F11003102160
:103CC000184600F009FB00BF07F110031121184648
:103CD00000F012FB034683F00103DBB2002BF3D1AB
:103CE0004FF44033BB610023FB6107F1080007F18B
:103CF000180393E8060000F01FFB484A07F1200371
:103D000092E8030083E8030007F1080007F12003AD
:103D100093E8060000F010FB414A07F1280392E8FF
:103D2000030083E8030007F1080007F1280393E884
:103D3000060000F001FB07F108031621184600F009
:103D4000CBFA07F110031821184600F0C5FA00BF9E
:103D500007F110031921184600F0CEFA034683F04C
:103D60000103DBB2002BF3D12E4B1B682D4A43F02D
:103D700005031360F0233B6300237B63384607F1A0
:103D8000300393E8060000F0D7FA274A07F138031A
:103D900092E8030083E80300384607F1380393E80C
:103DA000060000F0C9FA214A07F1400392E8030037
:103DB00083E80300384607F1400393E8060000F06B
:103DC000BBFA1B4A07F1480392E8030083E80300AB
:103DD000384607F1480393E8060000F0ADFA00BF4B
:103DE0003B460C21184600F0B9FA0346022B14BFDB
:103DF00001230023DBB2002BF2D107F110030021D5
:103E0000184600F0C9FA00BF5037BD4680BD00BF5C
:103E1000003802400438024008380240943E01084D
:103E20009C3E0108003C0240A43E0108AC3E010853
:103E3000B43E010880B584B000AF78600B467B804B
:103E40007B686B4A934208D16A4B5B6C694A43F0CA
:103E5000010353641B23FB73A7E07B68B3F1804F1E
:103E600008D1644B1B6C634A43F0010313641C23A9
:103E7000FB739AE07B68604A934208D15D4B1B6CF0
:103E80005C4A43F0020313641D23FB738DE07B68DF
:103E90005A4A934208D1574B1B6C564A43F00403CD
:103EA00013641E23FB7380E07B68554A934208D15C
:103EB000504B1B6C4F4A43F0080313643223FB73CF
:103EC00073E07B684F4A934208D14A4B1B6C494AC6
:103ED00043F0100313643623FB7366E07B684A4AA1
:103EE000934208D1434B1B6C424A43F020031364B6
:103EF0003723FB7359E07B68444A934208D13D4B1A
:103F00005B6C3C4A43F0020353642E23FB734CE08A
:103F10007B683F4A934208D1364B5B6C354A43F489
:103F2000803353641823FB733FE07B68394A934224
:103F300008D1304B5B6C2F4A43F400335364192390
:103F4000FB7332E07B68344A934208D1294B5B6CA7
:103F5000284A43F4802353641A23FB7325E07B68CB
:103F60002E4A934208D1234B1B6C224A43F0400354
:103F700013642B23FB7318E07B68294A934208D112
:103F80001C4B1B6C1B4A43F0800313642C23FB73F4
:103F90000BE07B68234A934226D1164B1B6C154AD3
:103FA00043F4807313642D23FB737A887B689A62D1
:103FB0007B684FF47A72DA627B68DB6843F0010257
:103FC0007B68DA607B681B6843F001027B681A60DB
:103FD00097F90F301846FFF70BFE97F90F300621BF
:103FE0001846FFF723FE00E000BF1037BD4680BD36
:103FF000000001400038024000040040000800407A
:10400000000C00400010004000140040000401407B
:1040100000400140004401400048014000180040B9
:10402000001C00400020004080B5A6B000AF07F1A2
:1040300048038D49184600F03DF907F140038B49CC
:10404000184600F037F98A4A07F138031146184636
:1040500000F030F907F130038649184600F02AF9DC
:1040600007F128038449184600F024F907F12003DA
:104070008249184600F01EF9814A07F118031146DB
:10408000184600F017F907F110037E49184600F0B2
:1040900011F907F108037C49184600F00BF93B467B
:1040A0007A49184600F006F907F14803012118463D
:1040B00000F012F907F140031521184600F00CF941
:1040C000734A07F1500392E8030083E8030007F105
:1040D000380007F1500393E8060000F02DF96D4A0F
:1040E00007F1580392E8030083E8030007F1380062
:1040F00007F1580393E8060000F01EF907F13003BA
:104100000821184600F0E8F807F1300309211846A5
:1041100000F0E2F8604A07F1600392E8030083E8E8
:10412000030007F1280007F1600393E8060000F0A0
:1041300003F95A4A07F1680392E8030083E8030091
:1041400007F1280007F1680393E8060000F0F4F88F
:10415000534A07F1700392E8030083E8030007F174
:10416000200007F1700393E8060000F0E5F84D4ADF
:1041700007F1780392E8030083E8030007F12000C9
:1041800007F1780393E8060000F0D6F807F118036A
:104190000F21184600F0A0F800BF07F118030F2107
:1041A000184600F027F90346002BF6D107F1180353
:1041B0000F21184600F0F0F800BF07F118030F2197
:1041C000184600F033F90346002BF6D107F1180327
:1041D0000021184600F03FF907F1100300211846AE
:1041E00000F039F9304A07F1800392E8030083E8D0
:1041F000030007F1100007F1800393E8060000F0C8
:104200009BF81F4B00229A601D4B0022DA6007F1D9
:1042100008030F21184600F0BFF8244A07F188036D
:1042200092E8030083E8030007F1080007F1880320
:1042300093E8060000F080F81D4A07F1900392E829
:10424000030083E80300384607F1900393E8060073
:1042500000F072F807F118030021184600F03CF84E
:1042600000BF9837BD4680BD30380240403802401C
:1042700000040240040402400804024024040240F6
:1042800000540040045400401C540040205400409E
:10429000BC3E0108C43E0108CC3E0108D43E0108E2
:1042A000DC3E0108E43E0108EC3E0108F43E010852
:1042B000FC3E010880B483B000AF786039607B6851
:1042C0003A681A607B6820221A717B6818460C379E
:1042D000BD465DF8047B704780B582B000AF786062
:1042E0000B46FB70FB781946786800F065F87B6830
:1042F00018460837BD4680BD80B483B000AF7860F3
:104300000B46FB707B681B79FA789A4201D900232F
:104310000CE07B681B681B68FA78012101FA02F245
:104320001340002B14BF01230023DBB218460C37C7
:10433000BD465DF8047B704780B584B000AFF8607F
:104340003B1D83E806007B68BA681946F86800F0F0
:1043500092F8FB6818461037BD4680BD80B584B022
:1043600000AF786039603968786800F0ADF80346CE
:10437000FB7397F90F30002B01DA002308E07B680C
:104380001B681A683B681A4097F90F3022FA03F34A
:1043900018461037BD4680BD80B582B000AF78604A
:1043A0000B46FB70FB781946786800F0B1F87B6823
:1043B00018460837BD4680BD80B483B000AF786032
:1043C0000B46FB707B681B79FA789A420CD87B68A5
:1043D0001B681A68FB78012101FA03F319467B6810
:1043E0001B680A431A6000E000BF0C37BD465DF849
:1043F000047B704780B582B000AF78600B46FB70DD
:104400007B681B79FA789A4201D900230AE0FB788D
:1044100019467868FFF770FF0346002B0CBF012395
:104420000023DBB218460837BD4680BD80B582B098
:1044300000AF78600B46FB70FB7819467868FFF791
:104440005BFF0346012B0CBF01230023DBB21846A0
:104450000837BD4680BD80B483B000AF7860396056
:104460007B681B683A681A607B6818460C37BD4643
:104470005DF8047B704780B586B000AFF860B96026
:104480007A60B968F86800F01FF80346FB7597F981
:104490001730002B14DBFB681B681968BB68DA4314
:1044A000FB681B680A401A60FB681B68196897F96B
:1044B00017307A689A40FB681B680A431A6000E06C
:1044C00000BF1837BD4680BD80B485B000AF7860AE
:1044D00039600023FB730EE0FB7B012202FA03F339
:1044E0001A463B681340002B02D097F90F3009E0C1
:1044F000FB7B0133FB737B681B79FA7B9A42EBD31E
:104500004FF0FF3318461437BD465DF8047B704703
:1045100080B483B000AF78600B46FB707B681B797A
:10452000FA789A420DD87B681B681A68FB780121DB
:1045300001FA03F3DB4319467B681B680A401A60E3
:1045400000E000BF0C37BD465DF8047B704780B4C7
:1045500085B000AF78600023FB600EE00122FB68AD
:1045600002FA03F31A467B681340002B02D0FB6863
:104570005BB207E0FB680133FB60FB681F2BEDDDDE
:104580004FF0FF3318461437BD465DF8047B704783
:1045900080B582B000AF786001210D4800F028FAA4
:1045A0000C48FEF7D8F8034619460B48FEF742F8C8
:1045B000074800F0D5F90346002B05D00748FEF761
:1045C00067F8034800F0D9F90120FEF795FDE7E709
:1045D00070580020505800201C58002040580020DF
:1045E00080B582B000AF78609FED0F0A0F48FDF7ED
:1045F000CDFB9FED0F0A0D48FDF7D8FBB7EE000A83
:104600000A48FDF7E3FB01210848FDF7EFFB9FEDAA
:10461000090A0648FDF71DFD0448FDF799FB03460E
:104620001846FEF769FDF2E7CDCCCC3D845800205A
:10463000000048430000484280B588B000AF786071
:1046400000210D48FDF724FA03461A4607F10C0332
:104650000A4918460AF03EF807F10C0319460848C3
:10466000FDF760F900210448FDF769FA4FF47A700C
:10467000FEF742FDE4E700BFE0580020043F0108D8
:10468000CC58002080B483B000AF78603960064A0F
:104690007B681A607B683A685A607B6818460C37FA
:1046A000BD465DF8047B7047F841010880B582B0D3
:1046B00000AF78607B681B681B6878689847034682
:1046C000002B0BD0786800F07AF80346002B0CD151
:1046D0007B689B685A1C7B689A6007E07B680022B5
:1046E0005A737B6800229A6000E000BF0837BD461D
:1046F00080BD80B483B000AF78607B6801221A73FC
:1047000000BF0C37BD465DF8047B704780B483B0B2
:1047100000AF78607B6800221A7300BF0C37BD467B
:104720005DF8047B704780B582B000AF7860786830
:10473000FFF7ECFF786800F004F800BF0837BD46CB
:1047400080BD80B483B000AF78607B6800229A603F
:104750007B6800225A7300BF0C37BD465DF8047BAE
:10476000704780B582B000AF78607868FFF7DBFFF4
:104770007868FFF7BEFF00BF0837BD4680BD80B533
:1047800082B000AF78600B46FB70FB78002B03D043
:104790007868FFF7AEFF02E07868FFF7C4FF00BF5C
:1047A0000837BD4680BD80B483B000AF78607B68B9
:1047B0001B7B18460C37BD465DF8047B704780B400
:1047C00083B000AF78607B689A687B685B689A42C8
:1047D0002CBF01230023DBB218460C37BD465DF821
:1047E000047B704780B483B000AF78607B689A68C0
:1047F0007B685B689A4234BF01230023DBB2184612
:104800000C37BD465DF8047B704780B582B000AFC1
:1048100078607B681B681B68786898470346002BA4
:1048200007D07868FFF7DEFF0346002B01D0012395
:1048300000E0002318460837BD4680BD80B582B031
:1048400000AF786039607B6839681846FFF71AFF57
:10485000034A7B681A607B6818460837BD4680BDEE
:104860001C42010880B582B000AF78607B681846B2
:10487000FFF7A5FF0346002B03D07B681846FFF720
:1048800052FF7B681846FFF711FF00BF0837BD468F
:1048900080BD80B582B000AF78600B46FB70FB78BE
:1048A00083F00103DBB2002B08D07B689B7B002BDD
:1048B00008D07B681846FFF754FF03E07B68184672
:1048C000FFF731FF7B68FA789A7300BF0837BD465F
:1048D00080BD80B582B000AF78607B689B7B002B89
:1048E00006D17B681846FFF790FF0346002B01D0E6
:1048F000012300E0002318460837BD4680BD0000B4
:1049000080B582B000AF786039607B68396818463E
:10491000FFF7B8FE034A7B681A607B6818460837C1
:10492000BD4680BD4442010880B582B000AF7860CA
:104930007B681846FFF7BAFE00BF0837BD4680BD4A
:1049400080B582B000AF78600B46FB707B68FA7868
:1049500011461846FFF713FF00BF0837BD4680BD5C
:1049600080B582B000AF78607B681846FFF727FFFC
:10497000034618460837BD4680BD80B582B000AFFB
:1049800078607B681846FFF7DCFE00BF0837BD463D
:1049900080BD000080B582B000AF786039607B6870
:1049A00039681846FFF7ACFF7B6810331846FCF7F0
:1049B00057FD054A7B681A60044A7B681A617B6868
:1049C00018460837BD4680BD284201083842010814
:1049D00080B582B000AF78607B681846FFF7A4FF0F
:1049E00000BF0837BD4680BDA0F11000FFF7F0BF43
:1049F00080B582B000AF78600B46FB707B68FA78B8
:104A000011461846FFF79CFF7B6818460837BD46DD
:104A100080BD000003460846194609F0D1BA00BF20
:104A200070B5036884B000249E6903941023154672
:104A30000293CDE900446B461268B0479DF80430FC
:104A400003F00603062B03BF009B2B6001202046CA
:104A500004B070BD009890420CBF06200120704742
:104A600010B5034B0360044600F09AFD204610BDCC
:104A7000AC42010810B5054B0360044600F090FD00
:104A80002046082100F04AF8204610BDAC4201083B
:104A90002DE9F041069F0899099E8F4204469046F1
:104AA0001D460CD02946204600F07EFD20B1012392
:104AB000376086F80480B3710020BDE8F081079963
:104AC00000F072FD0028EDD086F805800020BDE8DA
:104AD000F08100BF38B515461C4600F065FD00B9F1
:104AE00038BD082206232560E260237138BD00BF6F
:104AF0002DE9F041064617461D460C4600F054FDD0
:104B000048B9032D07D823683A46314620465B69E9
:104B1000BDE8F0411847BDE8F08100BF07F086BB53
:104B200007F084BB1EB400F08DF81EBCFBF7B2FD8D
:104B3000F0B50278472A83B00C461D4619D0264EA0
:104B40000020336801909B683046984778B1019BFC
:104B50001B68019302272368314620461E6901AA7B
:104B60000123B04738BB0746384603B0F0BD0127E4
:104B7000F1E743784E2BE2D18378552BDFD1C37810
:104B8000432BDCD10379462B1AD0432BD7D1437961
:104B90002B2BD4D183792B2BD1D1C379012BCED818
:104BA00050F8206C4FF0000301930ABF3046583094
:104BB00056F8786CC5E7019B2B60384603B0F0BD12
:104BC00043794F2BBBD18379522BB8D1C0790028C0
:104BD000B5D1024EB5E700BFDC4E0108B04E01086A
:104BE00010B5044600F07AF8224612F82039472B17
:104BF00004D0836823BB8260012010BD63784E2BF4
:104C0000F7D1A378552BF4D1E378432BF1D1237955
:104C1000432BEED163792B2BEBD1A3792B2BE8D14E
:104C2000E379012BE5D854F8043C0133012B44F817
:104C3000043CE1D1836844F8083C8260012010BD47
:104C400000F042FB08B500F049F8836883B393F89D
:104C50002020472A04D00022826003F1200008BDF2
:104C600093F821204E2AF6D193F82220552AF2D12A
:104C700093F82320432AEED193F82420432AEAD143
:104C800093F825202B2AE6D193F826202B2AE2D16F
:104C900093F82720012ADED8DA69013ADA61002A7E
:104CA000DBD19969816000229A6103F1200008BD7F
:104CB00000F00AFB704700BF704700BF0048704714
:104CC000D042010810B504210446FFF727FF204613
:104CD00010BD00BF00487047F058002000487047E2
:104CE000F0580020502870B51DD0844600F00F0009
:104CF0000C2855D8DFE800F0074426071E5454540A
:104D0000542A22071E00104650F8046B4EB10CF0D6
:104D10007004102C08BF11460E441CF0800F18BF01
:104D200036681E6070BDD01C20F0030050F8046B84
:104D30001E6070BD104650F8086BE7E7104630F96A
:104D4000026BE3E7104630F8026BDFE700261046FF
:104D5000344610F8015B05F07F0E0EFA04FE15F0E4
:104D6000800F46EA0E0604F10704F2D11F2CCDD8BD
:104D70006D06CBD54FF0FF3505FA04F42643C6E7A0
:104D800000261046344610F8015B05F07F0E0EFA3F
:104D900004FE2D0646EA0E0604F10704F3D4B5E737
:104DA00008F094FBFF2808B5034612D003F0700307
:104DB000302B084613D005D8202B09D1BDE8084078
:104DC00008F081BB402B06D1BDE8084008F068BB65
:104DD00003D8002008BD502BFBD008F077FBBDE8BE
:104DE000084008F06DBB00BFF8B50C4615460646F6
:104DF00008B108F055FB286014F8017BFF2F28D17B
:104E00006860204610F8013BFF2B32D010230024AD
:104E10002B75224610F8011B01F07F039340090611
:104E200044EA030402F10702F4D40444EC6010F8ED
:104E3000013B6B750024224610F8011B01F07F0333
:104E400093401C430B0602F10702F5D404442C6185
:104E5000F8BD31463846FFF7A5FF2B1D0146224617
:104E60003846FFF73FFF0446204610F8013BFF2B72
:104E7000CCD12B750024D9E72DE9F04F00F00303C6
:104E800095B00024012B0A940F46164600F0A4802A
:104E9000022B0AD13146384608F0ECFA002840F0DF
:104EA0009080082015B0BDE8F08F002B40F0FD8108
:104EB00010F00804EED10EAB4FF001080293029BF4
:104EC000009300230C22194630460E9707F0EAFDA6
:104ED000304608F0EBFA03900028DBD0DDE9022130
:104EE00044EA080330460493FFF77EFF9DF84C30F8
:104EF0000693824631461846FFF754FF0DF13408F9
:104F00000023059010901946CDF800800F223046FE
:104F100007F0A0FD0D9BDDF8489023F00103CA4582
:104F200003F1FF3533D29DF84DB00E9C0021584659
:104F3000FFF738FF524601460BAB5846FFF7D2FE4B
:104F4000002182465846FFF72DFF524601460CAB22
:104F50005846FFF7C7FE002182465846FFF722FF5A
:104F60005246014643465846FFF7BCFE82460020A3
:104F700002461AF8011B01F07F03934018430B0609
:104F800002F10702F5D40B9B2344AB421DD94FF02D
:104F9000000AD3460123049AD10777D50A9B1C4601
:104FA00000231946CDF8008030460D2207F052FD4F
:104FB000039BC7E90B3B0D9B3B62C7E9094A0620EF
:104FC00070E7092015B0BDE8F08F0C9A1344AB428E
:104FD00064D8CA45AAD3DAE70EAB10F008040293EE
:104FE00002D04FF002086AE700930D6A23460D22B3
:104FF0002146304607F02EFD0E9B9D42F1D1029BCB
:105000000093214623460C2230460E9707F04AFDB6
:10501000D7F830B0D7E90A43BBF1000F3BD0039378
:10502000A2460DF13408BAF1000FC0F2FF8003254B
:1050300000231A461946CDF8008030460D9707F038
:1050400031FD002319460122CDF8008030460D9431
:1050500007F028FD002319460F22CDF800803046C6
:1050600007F0F8FC0D9ACDF8008002F00102002351
:1050700042EA0B020D9230460F22194607F012FD4C
:10508000022D60D0072015B0BDE8F08F049A1207FA
:105090005DD4012B6BD1384607F0FCF90D9B002B3A
:1050A0003FF4F8AE0F9A03EB020B002800F0E1800A
:1050B000013809EB0004BBF1000F3FF4EBAE049B99
:1050C00013F00803089300F0D880794B3B60794BCC
:1050D0007B60069B079603F00702CDF818B04FF0EF
:1050E000000909929B4600210A4614F8010B00F0C2
:1050F0007F039340050641EA030102F10702F4D45D
:105100001F2A05D8400603D5012393405B4219436B
:1051100000258A4626462A4616F8010B00F07F0332
:1051200093401D43030602F10702F5D41F2A20D83D
:1051300046061ED5012393405B421D4359BB4FF0E9
:1051400001092C44CFE73846FFF74AFD9AE7012BC7
:1051500000F0A980BAF1000FC0F2A18054460325E7
:1051600066E7049BDB07DDE906B63FF517AF54465B
:1051700059E781B94FF00109002DE2D14B46DDE935
:1051800006B6002B3FF486AE049BD8073FF582AEEF
:10519000002402254CE7002921DC6FF04043119EDA
:1051A0005B1A56F8231006EB83060FB1089B2BB150
:1051B0000029E1D1DDE906B60323ECE60A9B0D9355
:1051C00021B963E056F8041F0029CAD03144434690
:1051D00000223846FFF7ACFC0028F3D0CCE7BBF147
:1051E000FF0F44D0099A042A5FD8DFE802F0035E7B
:1051F0001C0319008B005B42119A05991A4458460A
:105200004346FFF76FFD0D990029D3D0002FB3D08F
:105210000AAB00223846FFF78BFC0028ACD0C9E768
:10522000CB005B42E8E74B005B42E5E7DDE90221AA
:105230003046FFF7D9FD9DF84C003146FFF7B2FD2F
:105240006FF04042121B0546119850F8223000EBD7
:10525000820033B10246002352F8041F01330029B3
:10526000FAD1C7E90A35042378633B63DFE60023FC
:10527000C2E7BBF1000F87D10CE6FB79012B0CBF15
:1052800057F8203C07F158030A9322E71C46049B79
:10529000DD07DDE906B63FF583AE5446C3E600F010
:1052A00021F807F071F900F00FF808F00FF900BFCE
:1052B000474E5543464F520008B5804708F006F95F
:1052C00007F062F908F002F908B5034B1868BFF35C
:1052D0005B8FFFF7F1FF00BF2400002008B5804777
:1052E000FFF7F2FF08B5034B1868BFF35B8FFFF7BA
:1052F000F5FF00BF20000020024B1868BFF35B8F52
:10530000704700BF24000020024B1868BFF35B8F7A
:10531000704700BF20000020012810B51AD8BFF345
:105320005B8FA1F1280353E8002F013A43E80020E6
:105330000028F8D1BFF35B8F5AB951F81C3C01F13A
:1053400058040BB1204698472046BDE8104006F0AF
:10535000F3BF10BD51F8140CFFF7AEFF002310B5DA
:1053600040E91E1240F8803C0446FFF7CDFF44F8A8
:10537000700CFFF7C1FF0749074A084B44F8581C57
:1053800044F8542C44F86C0C44F8503CA4F18000D0
:1053900010BD00BF474E5543432B2B001953000847
:1053A00070B504460D461646FFF798FC4368013376
:1053B0003246294643602046FFF7D0FF04460123CA
:1053C00044F8283B2046FBF753F9204607F0DCF869
:1053D000FFF77AFF10B5FFF781FCD0E900420132F8
:1053E000426064B194F82020472A0AD0002202606B
:1053F00020342046FBF760F9204607F0C5F8FFF798
:1054000063FF94F821204E2AF0D194F82220552AE7
:10541000ECD194F82320432AE8D194F82420432A9D
:10542000E4D194F825202B2AE0D194F826202B2AC9
:10543000DCD194F82720012AD8D8626952426261EF
:10544000D6E700BF012838BF012010B5044620462A
:1054500008F092F800B110BD07F028F908B18047B4
:10546000F5E7042006F050FF024B034A03490360AE
:10547000FFF796FFF44F0108995C0008E04F010820
:10548000FFF7E0BF10B5034B03600446FFF7E8FAEF
:10549000204610BD344F010810B5054B036004468B
:1054A000FFF7DEFA20460C21FFF738FB204610BD3F
:1054B000344F010870B582B00446069E96420D46F0
:1054C00009D0A06804680696246A2946A44602B05A
:1054D000BDE87040604719460192009300F064F8FF
:1054E000DDE900320028ECD0062002B070BD00BF1C
:1054F0002DE9F04F0D4681B01946DDE90A8BDDE953
:105500000CA91C460746164600F04EF880B9D04557
:1055100027D0B86823460468CDE90CA9CDE90A8BE9
:10552000E46932462946A44601B0BDE8F04F604721
:10553000002DC9F8008089F804600CDBA844C2453E
:1055400014BF4FF001084FF0060889F806800020CC
:1055500001B0BDE8F08F0235F9D1012389F806309A
:10556000F5E75946384600F01FF80028D1D089F8F1
:105570000560ECE72DE9F04106460F4614461D464E
:10558000FFF7A8FA48B9B068016822468C692B4633
:105590003946A446BDE8F0416047BDE8F08100BF50
:1055A000704700BF00207047814211D008B54068A5
:1055B00003782A2B0AD049680B782A2B08BF0131BF
:1055C000FBF7BEF8B0FA80F0400908BD002008BD26
:1055D0000120704710B5034B03600446FFF740FA03
:1055E000204610BDAC4F010810B5054B03600446C2
:1055F000FFF736FA20461821FFF790FA204610BD33
:10560000AC4F01082DE9F04F83B00546DDF830A01E
:10561000524591460F4698462DD0EB685E1E05EB2D
:10562000C305FBB1EC6814F0020F434639464FEA5C
:10563000242212D014F0010404D0F81C0DD0D9F8A3
:1056400000008258A868D0F800C0CDF800A0DCF8AF
:1056500020B04A44D847032808D8013E731CA5F15E
:105660000805DFD1012003B0BDE8F08F2043C0B2B0
:1056700003B0BDE8F08F1946FFF796FF0028CCD0A5
:105680000620F0E72DE9F04F93B08A461F9C079360
:10569000A368DDF870B00B90DE06099201D583682F
:1056A000A3601E9B9B4500F0688107990B98FFF74C
:1056B0007BFF002840F04E81BAF1000FA8BF1E9B6F
:1056C0004FF001020892099AA4BFA3EB0A031946FE
:1056D0004FF0000EB8BF0146022342F00102CDE9AF
:1056E00005AECDF830E00A920D938A460B9BDF6839
:1056F00007F1FF38002F00F0828003EBC7074FF05F
:105700000009F968A0681190CA07CDE90F994CBF4C
:10571000DBF80020099A4FEA212344BFD3580A9AA4
:105720005B44BAF1000F07D09A45089E2CBF0025B4
:105730000125B54200F095808E0705D40599023108
:1057400000F08C8002F0FD02B868016800931E9B97
:1057500002930FAD1D9B01930395CD69079B05999E
:10576000A84763799DF841209DF842600F99134343
:10577000062E6371864600F00A81022E8C4600F0E8
:105780000681069D2268002D5CD1002A00F08180F0
:105790008A4269D0002900F0A580032BA57938D969
:1057A000D80702D5A068800733D4012D38BF012562
:1057B000012E38BF0126EDB2F6B286EA0503DBB250
:1057C000032B40F28380032E40F29580DDF83CC02D
:1057D0009DF840202271002206F00203C4F800C0A8
:1057E0000692A67153BBF20728D56379042B2FD0FC
:1057F00008F1FF38B8F1FF3FA7F1080781D10C9BF2
:1058000033B30D9B012B23D001230D930023089369
:105810006CE7002D2ED0002ECFD1032D40F2EE806C
:10582000E8077CD50B9B9B6899073ED485F0010364
:10583000DBB2032B4FD9AB07A571D6D5002013B02F
:10584000BDE8F08F002AA3D10029A6D1042BCFD127
:10585000DDF818E0704613B0BDE8F08F8107C7D0BF
:1058600070E701230C93C3E722799DF840100A43A7
:105870002271BBE7032E5AD9F00742D486F0010209
:10588000D2B2032AA4D80122C4F80090A2710692D1
:10589000ACE79DF840202160227121B17BB30B9AC7
:1058A0009268D607CBD50690A0E7059BDDF83CC0F3
:1058B000002BC0F290801E9A63449A4216D185F064
:1058C0000603DBB2032B00F2A28006262E40F6B2BE
:1058D000032E00F2A88001226379C4F80090A2711F
:1058E000069283E7BEF1000F80D056E785F00103F2
:1058F000DBB2032BEFD905F002032E4671E70690C9
:1059000076E70B9989688907B8D5059B002B70DB72
:105910001A441E9B93420CBF062501254DE785F0D6
:105920000103DBB2032BD6D9A571002087E70598C8
:10593000002834DB1E9D0244954270D0002E5BD1BE
:105940000A1895429FD19DF84020216006232271BC
:10595000A37173E7099BC4F800B0BAF1000F23717B
:1059600032DB1E9BD3445B4514BF4FF0010B4FF05D
:10597000060B84F806B0002061E71D990B98FFF72D
:1059800013FE00283FF491AE099B637156E79DF822
:10599000403021602371A67113B0BDE8F08F0599E6
:1059A000023146D01E9B07980093036805991D6A33
:1059B0001D9BA8470546002E7FF4FFAE03283FF647
:1059C0002FAFDDF83CC009E01AF1020F7FF436AFCB
:1059D0000123A37132E7059B023387D01E9B0798F2
:1059E0000093036805991E6A1D9B6246B0470646F0
:1059F000E3E6059B0233D5D10125DEE6059B002BAE
:105A00001BDB059B19441E9B8B427FF464AF9DF802
:105A10004020C4F800C006232271A3710EE77EB9AE
:105A20000623A3710AE7002202232260A37101204A
:105A300005E7002E3FF427AFDEE70233CED14AE779
:105A40000625BAE62DE9F04F89B0CDE902100446EB
:105A500091469846FFF73EF8002873D1D8F80830F1
:105A6000DA06039A48BF2346D46848BF9B68661E7F
:105A7000002C49D0039A019302EBC40403F0010205
:105A800000920025019BE2680495CDE90635009B54
:105A90008DF8145002F002073B4302F0010A2ED0A9
:105AA000B9F1000F38D01212BAF1000F02D0D9F8B4
:105AB00000309A584A44A068016804ABD1F818B085
:105AC0000299D847D8B1079B082B27D09DF81430EE
:105AD000032B04D91FB923F002038DF81430D8F832
:105AE0000C1009B3D8F80030049A934242D16BB33A
:105AF00098F804309DF81420134388F80430013ED0
:105B0000771CA4F10804BDD198F80400003818BF30
